{
	"tipjar.sol": {
		"tips": {
			"abi": [
				{
					"inputs": [],
					"stateMutability": "nonpayable",
					"type": "constructor"
				},
				{
					"inputs": [
						{
							"internalType": "address payable",
							"name": "walletAddress",
							"type": "address"
						},
						{
							"internalType": "string",
							"name": "name",
							"type": "string"
						},
						{
							"internalType": "uint256",
							"name": "percent",
							"type": "uint256"
						}
					],
					"name": "addWaitress",
					"outputs": [],
					"stateMutability": "nonpayable",
					"type": "function"
				},
				{
					"inputs": [],
					"name": "addtips",
					"outputs": [],
					"stateMutability": "payable",
					"type": "function"
				},
				{
					"inputs": [],
					"name": "distributeBalance",
					"outputs": [],
					"stateMutability": "nonpayable",
					"type": "function"
				},
				{
					"inputs": [
						{
							"internalType": "address",
							"name": "walletAddress",
							"type": "address"
						}
					],
					"name": "removeWaitress",
					"outputs": [],
					"stateMutability": "nonpayable",
					"type": "function"
				},
				{
					"inputs": [],
					"name": "viewWaitress",
					"outputs": [
						{
							"components": [
								{
									"internalType": "address payable",
									"name": "walletAddress",
									"type": "address"
								},
								{
									"internalType": "string",
									"name": "name",
									"type": "string"
								},
								{
									"internalType": "uint256",
									"name": "percent",
									"type": "uint256"
								}
							],
							"internalType": "struct tips.Waitress[]",
							"name": "",
							"type": "tuple[]"
						}
					],
					"stateMutability": "view",
					"type": "function"
				},
				{
					"inputs": [],
					"name": "viewtips",
					"outputs": [
						{
							"internalType": "uint256",
							"name": "",
							"type": "uint256"
						}
					],
					"stateMutability": "view",
					"type": "function"
				}
			],
			"devdoc": {
				"kind": "dev",
				"methods": {},
				"version": 1
			},
			"evm": {
				"assembly": "    /* \"tipjar.sol\":57:3305  contract tips {... */\n  mstore(0x40, 0x80)\n    /* \"tipjar.sol\":97:146  constructor() {... */\n  callvalue\n  dup1\n  iszero\n  tag_1\n  jumpi\n  revert(0x00, 0x00)\ntag_1:\n  pop\n    /* \"tipjar.sol\":129:139  msg.sender */\n  caller\n    /* \"tipjar.sol\":121:126  owner */\n  0x00\n  0x00\n    /* \"tipjar.sol\":121:139  owner = msg.sender */\n  0x0100\n  exp\n  dup2\n  sload\n  dup2\n  0xffffffffffffffffffffffffffffffffffffffff\n  mul\n  not\n  and\n  swap1\n  dup4\n  0xffffffffffffffffffffffffffffffffffffffff\n  and\n  mul\n  or\n  swap1\n  sstore\n  pop\n    /* \"tipjar.sol\":57:3305  contract tips {... */\n  dataSize(sub_0)\n  dup1\n  dataOffset(sub_0)\n  0x00\n  codecopy\n  0x00\n  return\nstop\n\nsub_0: assembly {\n        /* \"tipjar.sol\":57:3305  contract tips {... */\n      mstore(0x40, 0x80)\n      jumpi(tag_1, lt(calldatasize, 0x04))\n      shr(0xe0, calldataload(0x00))\n      dup1\n      0x2a08deda\n      eq\n      tag_2\n      jumpi\n      dup1\n      0x369a489d\n      eq\n      tag_3\n      jumpi\n      dup1\n      0x6e7301fd\n      eq\n      tag_4\n      jumpi\n      dup1\n      0x7943da69\n      eq\n      tag_5\n      jumpi\n      dup1\n      0xb499b79a\n      eq\n      tag_6\n      jumpi\n      dup1\n      0xe83a1b00\n      eq\n      tag_7\n      jumpi\n    tag_1:\n      revert(0x00, 0x00)\n        /* \"tipjar.sol\":254:346  function viewtips() public view returns (uint) {... */\n    tag_2:\n      callvalue\n      dup1\n      iszero\n      tag_8\n      jumpi\n      revert(0x00, 0x00)\n    tag_8:\n      pop\n      tag_9\n      tag_10\n      jump\t// in\n    tag_9:\n      mload(0x40)\n      tag_11\n      swap2\n      swap1\n      tag_12\n      jump\t// in\n    tag_11:\n      mload(0x40)\n      dup1\n      swap2\n      sub\n      swap1\n      return\n        /* \"tipjar.sol\":1914:2579  function removeWaitress(address walletAddress) public onlyOwner {... */\n    tag_3:\n      callvalue\n      dup1\n      iszero\n      tag_13\n      jumpi\n      revert(0x00, 0x00)\n    tag_13:\n      pop\n      tag_14\n      0x04\n      dup1\n      calldatasize\n      sub\n      dup2\n      add\n      swap1\n      tag_15\n      swap2\n      swap1\n      tag_16\n      jump\t// in\n    tag_15:\n      tag_17\n      jump\t// in\n    tag_14:\n      stop\n        /* \"tipjar.sol\":189:225  function addtips() public payable {} */\n    tag_4:\n      tag_18\n      tag_19\n      jump\t// in\n    tag_18:\n      stop\n        /* \"tipjar.sol\":2585:3100  function distributeBalance() public {... */\n    tag_5:\n      callvalue\n      dup1\n      iszero\n      tag_20\n      jumpi\n      revert(0x00, 0x00)\n    tag_20:\n      pop\n      tag_21\n      tag_22\n      jump\t// in\n    tag_21:\n      stop\n        /* \"tipjar.sol\":783:1908  function addWaitress(... */\n    tag_6:\n      callvalue\n      dup1\n      iszero\n      tag_23\n      jumpi\n      revert(0x00, 0x00)\n    tag_23:\n      pop\n      tag_24\n      0x04\n      dup1\n      calldatasize\n      sub\n      dup2\n      add\n      swap1\n      tag_25\n      swap2\n      swap1\n      tag_26\n      jump\t// in\n    tag_25:\n      tag_27\n      jump\t// in\n    tag_24:\n      stop\n        /* \"tipjar.sol\":575:671  function viewWaitress() public view returns (Waitress[] memory) {... */\n    tag_7:\n      callvalue\n      dup1\n      iszero\n      tag_28\n      jumpi\n      revert(0x00, 0x00)\n    tag_28:\n      pop\n      tag_29\n      tag_30\n      jump\t// in\n    tag_29:\n      mload(0x40)\n      tag_31\n      swap2\n      swap1\n      tag_32\n      jump\t// in\n    tag_31:\n      mload(0x40)\n      dup1\n      swap2\n      sub\n      swap1\n      return\n        /* \"tipjar.sol\":254:346  function viewtips() public view returns (uint) {... */\n    tag_10:\n        /* \"tipjar.sol\":295:299  uint */\n      0x00\n        /* \"tipjar.sol\":318:339  address(this).balance */\n      selfbalance\n        /* \"tipjar.sol\":311:339  return address(this).balance */\n      swap1\n      pop\n        /* \"tipjar.sol\":254:346  function viewtips() public view returns (uint) {... */\n      swap1\n      jump\t// out\n        /* \"tipjar.sol\":1914:2579  function removeWaitress(address walletAddress) public onlyOwner {... */\n    tag_17:\n        /* \"tipjar.sol\":730:735  owner */\n      0x00\n      0x00\n      swap1\n      sload\n      swap1\n      0x0100\n      exp\n      swap1\n      div\n      0xffffffffffffffffffffffffffffffffffffffff\n      and\n        /* \"tipjar.sol\":716:735  msg.sender == owner */\n      0xffffffffffffffffffffffffffffffffffffffff\n      and\n        /* \"tipjar.sol\":716:726  msg.sender */\n      caller\n        /* \"tipjar.sol\":716:735  msg.sender == owner */\n      0xffffffffffffffffffffffffffffffffffffffff\n      and\n      eq\n        /* \"tipjar.sol\":708:759  require(msg.sender == owner, \"Only owner can call\") */\n      tag_35\n      jumpi\n      mload(0x40)\n      0x08c379a000000000000000000000000000000000000000000000000000000000\n      dup2\n      mstore\n      0x04\n      add\n      tag_36\n      swap1\n      tag_37\n      jump\t// in\n    tag_36:\n      mload(0x40)\n      dup1\n      swap2\n      sub\n      swap1\n      revert\n    tag_35:\n        /* \"tipjar.sol\":2152:2153  1 */\n      0x01\n        /* \"tipjar.sol\":2133:2141  waitress */\n      dup1\n        /* \"tipjar.sol\":2133:2148  waitress.length */\n      dup1\n      sload\n      swap1\n      pop\n        /* \"tipjar.sol\":2133:2153  waitress.length >= 1 */\n      lt\n        /* \"tipjar.sol\":2129:2573  if (waitress.length >= 1) {... */\n      tag_39\n      jumpi\n        /* \"tipjar.sol\":2174:2180  uint i */\n      0x00\n        /* \"tipjar.sol\":2183:2184  0 */\n      0x00\n        /* \"tipjar.sol\":2174:2184  uint i = 0 */\n      swap1\n      pop\n        /* \"tipjar.sol\":2169:2563  for (uint i = 0; i < waitress.length; i++) {... */\n    tag_40:\n        /* \"tipjar.sol\":2190:2198  waitress */\n      0x01\n        /* \"tipjar.sol\":2190:2205  waitress.length */\n      dup1\n      sload\n      swap1\n      pop\n        /* \"tipjar.sol\":2186:2187  i */\n      dup2\n        /* \"tipjar.sol\":2186:2205  i < waitress.length */\n      lt\n        /* \"tipjar.sol\":2169:2563  for (uint i = 0; i < waitress.length; i++) {... */\n      iszero\n      tag_41\n      jumpi\n        /* \"tipjar.sol\":2263:2276  walletAddress */\n      dup2\n        /* \"tipjar.sol\":2234:2276  waitress[i].walletAddress == walletAddress */\n      0xffffffffffffffffffffffffffffffffffffffff\n      and\n        /* \"tipjar.sol\":2234:2242  waitress */\n      0x01\n        /* \"tipjar.sol\":2243:2244  i */\n      dup3\n        /* \"tipjar.sol\":2234:2245  waitress[i] */\n      dup2\n      sload\n      dup2\n      lt\n      tag_43\n      jumpi\n      tag_44\n      tag_45\n      jump\t// in\n    tag_44:\n    tag_43:\n      swap1\n      0x00\n      mstore\n      keccak256(0x00, 0x20)\n      swap1\n      0x03\n      mul\n      add\n        /* \"tipjar.sol\":2234:2259  waitress[i].walletAddress */\n      0x00\n      add\n      0x00\n      swap1\n      sload\n      swap1\n      0x0100\n      exp\n      swap1\n      div\n      0xffffffffffffffffffffffffffffffffffffffff\n      and\n        /* \"tipjar.sol\":2234:2276  waitress[i].walletAddress == walletAddress */\n      0xffffffffffffffffffffffffffffffffffffffff\n      and\n      sub\n        /* \"tipjar.sol\":2230:2549  if (waitress[i].walletAddress == walletAddress) {... */\n      tag_47\n      jumpi\n        /* \"tipjar.sol\":2348:2354  uint j */\n      0x00\n        /* \"tipjar.sol\":2357:2358  i */\n      dup2\n        /* \"tipjar.sol\":2348:2358  uint j = i */\n      swap1\n      pop\n        /* \"tipjar.sol\":2343:2468  for (uint j = i; j < waitress.length - 1; j++) {... */\n    tag_48:\n        /* \"tipjar.sol\":2382:2383  1 */\n      0x01\n        /* \"tipjar.sol\":2364:2372  waitress */\n      dup1\n        /* \"tipjar.sol\":2364:2379  waitress.length */\n      dup1\n      sload\n      swap1\n      pop\n        /* \"tipjar.sol\":2364:2383  waitress.length - 1 */\n      tag_51\n      swap2\n      swap1\n      tag_52\n      jump\t// in\n    tag_51:\n        /* \"tipjar.sol\":2360:2361  j */\n      dup2\n        /* \"tipjar.sol\":2360:2383  j < waitress.length - 1 */\n      lt\n        /* \"tipjar.sol\":2343:2468  for (uint j = i; j < waitress.length - 1; j++) {... */\n      iszero\n      tag_49\n      jumpi\n        /* \"tipjar.sol\":2430:2438  waitress */\n      0x01\n        /* \"tipjar.sol\":2443:2444  1 */\n      dup1\n        /* \"tipjar.sol\":2439:2440  j */\n      dup3\n        /* \"tipjar.sol\":2439:2444  j + 1 */\n      tag_53\n      swap2\n      swap1\n      tag_54\n      jump\t// in\n    tag_53:\n        /* \"tipjar.sol\":2430:2445  waitress[j + 1] */\n      dup2\n      sload\n      dup2\n      lt\n      tag_55\n      jumpi\n      tag_56\n      tag_45\n      jump\t// in\n    tag_56:\n    tag_55:\n      swap1\n      0x00\n      mstore\n      keccak256(0x00, 0x20)\n      swap1\n      0x03\n      mul\n      add\n        /* \"tipjar.sol\":2416:2424  waitress */\n      0x01\n        /* \"tipjar.sol\":2425:2426  j */\n      dup3\n        /* \"tipjar.sol\":2416:2427  waitress[j] */\n      dup2\n      sload\n      dup2\n      lt\n      tag_58\n      jumpi\n      tag_59\n      tag_45\n      jump\t// in\n    tag_59:\n    tag_58:\n      swap1\n      0x00\n      mstore\n      keccak256(0x00, 0x20)\n      swap1\n      0x03\n      mul\n      add\n        /* \"tipjar.sol\":2416:2445  waitress[j] = waitress[j + 1] */\n      0x00\n      dup3\n      add\n      0x00\n      swap1\n      sload\n      swap1\n      0x0100\n      exp\n      swap1\n      div\n      0xffffffffffffffffffffffffffffffffffffffff\n      and\n      dup2\n      0x00\n      add\n      exp(0x0100, 0x00)\n      dup2\n      sload\n      dup2\n      0xffffffffffffffffffffffffffffffffffffffff\n      mul\n      not\n      and\n      swap1\n      dup4\n      0xffffffffffffffffffffffffffffffffffffffff\n      and\n      mul\n      or\n      swap1\n      sstore\n      pop\n      0x01\n      dup3\n      add\n      dup2\n      0x01\n      add\n      swap1\n      dup2\n      tag_61\n      swap2\n      swap1\n      tag_62\n      jump\t// in\n    tag_61:\n      pop\n      0x02\n      dup3\n      add\n      sload\n      dup2\n      0x02\n      add\n      sstore\n      swap1\n      pop\n      pop\n        /* \"tipjar.sol\":2385:2388  j++ */\n      dup1\n      dup1\n      0x01\n      add\n      swap2\n      pop\n      pop\n        /* \"tipjar.sol\":2343:2468  for (uint j = i; j < waitress.length - 1; j++) {... */\n      jump(tag_48)\n    tag_49:\n      pop\n        /* \"tipjar.sol\":2489:2497  waitress */\n      0x01\n        /* \"tipjar.sol\":2489:2503  waitress.pop() */\n      dup1\n      sload\n      dup1\n      tag_63\n      jumpi\n      tag_64\n      tag_65\n      jump\t// in\n    tag_64:\n    tag_63:\n      0x01\n      swap1\n      sub\n      dup2\n      dup2\n      swap1\n      0x00\n      mstore\n      keccak256(0x00, 0x20)\n      swap1\n      0x03\n      mul\n      add\n      0x00\n      0x00\n      dup3\n      add\n      exp(0x0100, 0x00)\n      dup2\n      sload\n      swap1\n      0xffffffffffffffffffffffffffffffffffffffff\n      mul\n      not\n      and\n      swap1\n      sstore\n      0x01\n      dup3\n      add\n      0x00\n      tag_67\n      swap2\n      swap1\n      tag_68\n      jump\t// in\n    tag_67:\n      0x02\n      dup3\n      add\n      0x00\n      swap1\n      sstore\n      pop\n      pop\n      swap1\n      sstore\n        /* \"tipjar.sol\":2525:2530  break */\n      jump(tag_41)\n        /* \"tipjar.sol\":2230:2549  if (waitress[i].walletAddress == walletAddress) {... */\n    tag_47:\n        /* \"tipjar.sol\":2207:2210  i++ */\n      dup1\n      dup1\n      0x01\n      add\n      swap2\n      pop\n      pop\n        /* \"tipjar.sol\":2169:2563  for (uint i = 0; i < waitress.length; i++) {... */\n      jump(tag_40)\n    tag_41:\n      pop\n        /* \"tipjar.sol\":2129:2573  if (waitress.length >= 1) {... */\n    tag_39:\n        /* \"tipjar.sol\":1914:2579  function removeWaitress(address walletAddress) public onlyOwner {... */\n      pop\n      jump\t// out\n        /* \"tipjar.sol\":189:225  function addtips() public payable {} */\n    tag_19:\n      jump\t// out\n        /* \"tipjar.sol\":2585:3100  function distributeBalance() public {... */\n    tag_22:\n        /* \"tipjar.sol\":2663:2664  0 */\n      0x00\n        /* \"tipjar.sol\":2639:2660  address(this).balance */\n      selfbalance\n        /* \"tipjar.sol\":2639:2664  address(this).balance > 0 */\n      gt\n        /* \"tipjar.sol\":2631:2677  require(address(this).balance > 0, \"No Money\") */\n      tag_71\n      jumpi\n      mload(0x40)\n      0x08c379a000000000000000000000000000000000000000000000000000000000\n      dup2\n      mstore\n      0x04\n      add\n      tag_72\n      swap1\n      tag_73\n      jump\t// in\n    tag_72:\n      mload(0x40)\n      dup1\n      swap2\n      sub\n      swap1\n      revert\n    tag_71:\n        /* \"tipjar.sol\":2710:2711  1 */\n      0x01\n        /* \"tipjar.sol\":2691:2699  waitress */\n      dup1\n        /* \"tipjar.sol\":2691:2706  waitress.length */\n      dup1\n      sload\n      swap1\n      pop\n        /* \"tipjar.sol\":2691:2711  waitress.length >= 1 */\n      lt\n        /* \"tipjar.sol\":2687:3094  if (waitress.length >= 1) {... */\n      tag_74\n      jumpi\n        /* \"tipjar.sol\":2727:2743  uint totalamount */\n      0x00\n        /* \"tipjar.sol\":2746:2767  address(this).balance */\n      selfbalance\n        /* \"tipjar.sol\":2727:2767  uint totalamount = address(this).balance */\n      swap1\n      pop\n        /* \"tipjar.sol\":2786:2792  uint j */\n      0x00\n        /* \"tipjar.sol\":2795:2796  0 */\n      0x00\n        /* \"tipjar.sol\":2786:2796  uint j = 0 */\n      swap1\n      pop\n        /* \"tipjar.sol\":2781:3084  for (uint j = 0; j < waitress.length; j++) {... */\n    tag_75:\n        /* \"tipjar.sol\":2802:2810  waitress */\n      0x01\n        /* \"tipjar.sol\":2802:2817  waitress.length */\n      dup1\n      sload\n      swap1\n      pop\n        /* \"tipjar.sol\":2798:2799  j */\n      dup2\n        /* \"tipjar.sol\":2798:2817  j < waitress.length */\n      lt\n        /* \"tipjar.sol\":2781:3084  for (uint j = 0; j < waitress.length; j++) {... */\n      iszero\n      tag_76\n      jumpi\n        /* \"tipjar.sol\":2877:2898  uint distributeAmount */\n      0x00\n        /* \"tipjar.sol\":2959:2962  100 */\n      0x64\n        /* \"tipjar.sol\":2916:2924  waitress */\n      0x01\n        /* \"tipjar.sol\":2925:2926  j */\n      dup4\n        /* \"tipjar.sol\":2916:2927  waitress[j] */\n      dup2\n      sload\n      dup2\n      lt\n      tag_78\n      jumpi\n      tag_79\n      tag_45\n      jump\t// in\n    tag_79:\n    tag_78:\n      swap1\n      0x00\n      mstore\n      keccak256(0x00, 0x20)\n      swap1\n      0x03\n      mul\n      add\n        /* \"tipjar.sol\":2916:2935  waitress[j].percent */\n      0x02\n      add\n      sload\n        /* \"tipjar.sol\":2902:2913  totalamount */\n      dup5\n        /* \"tipjar.sol\":2902:2935  totalamount * waitress[j].percent */\n      tag_81\n      swap2\n      swap1\n      tag_82\n      jump\t// in\n    tag_81:\n        /* \"tipjar.sol\":2901:2962  (totalamount * waitress[j].percent) /... */\n      tag_83\n      swap2\n      swap1\n      tag_84\n      jump\t// in\n    tag_83:\n        /* \"tipjar.sol\":2877:2962  uint distributeAmount = (totalamount * waitress[j].percent) /... */\n      swap1\n      pop\n        /* \"tipjar.sol\":3010:3069  _transferFunds(waitress[j].walletAddress, distributeAmount) */\n      tag_85\n        /* \"tipjar.sol\":3025:3033  waitress */\n      0x01\n        /* \"tipjar.sol\":3034:3035  j */\n      dup4\n        /* \"tipjar.sol\":3025:3036  waitress[j] */\n      dup2\n      sload\n      dup2\n      lt\n      tag_86\n      jumpi\n      tag_87\n      tag_45\n      jump\t// in\n    tag_87:\n    tag_86:\n      swap1\n      0x00\n      mstore\n      keccak256(0x00, 0x20)\n      swap1\n      0x03\n      mul\n      add\n        /* \"tipjar.sol\":3025:3050  waitress[j].walletAddress */\n      0x00\n      add\n      0x00\n      swap1\n      sload\n      swap1\n      0x0100\n      exp\n      swap1\n      div\n      0xffffffffffffffffffffffffffffffffffffffff\n      and\n        /* \"tipjar.sol\":3052:3068  distributeAmount */\n      dup3\n        /* \"tipjar.sol\":3010:3024  _transferFunds */\n      tag_89\n        /* \"tipjar.sol\":3010:3069  _transferFunds(waitress[j].walletAddress, distributeAmount) */\n      jump\t// in\n    tag_85:\n        /* \"tipjar.sol\":2824:3084  {... */\n      pop\n        /* \"tipjar.sol\":2819:2822  j++ */\n      dup1\n      dup1\n      0x01\n      add\n      swap2\n      pop\n      pop\n        /* \"tipjar.sol\":2781:3084  for (uint j = 0; j < waitress.length; j++) {... */\n      jump(tag_75)\n    tag_76:\n      pop\n        /* \"tipjar.sol\":2713:3094  {... */\n      pop\n        /* \"tipjar.sol\":2687:3094  if (waitress.length >= 1) {... */\n    tag_74:\n        /* \"tipjar.sol\":2585:3100  function distributeBalance() public {... */\n      jump\t// out\n        /* \"tipjar.sol\":783:1908  function addWaitress(... */\n    tag_27:\n        /* \"tipjar.sol\":730:735  owner */\n      0x00\n      0x00\n      swap1\n      sload\n      swap1\n      0x0100\n      exp\n      swap1\n      div\n      0xffffffffffffffffffffffffffffffffffffffff\n      and\n        /* \"tipjar.sol\":716:735  msg.sender == owner */\n      0xffffffffffffffffffffffffffffffffffffffff\n      and\n        /* \"tipjar.sol\":716:726  msg.sender */\n      caller\n        /* \"tipjar.sol\":716:735  msg.sender == owner */\n      0xffffffffffffffffffffffffffffffffffffffff\n      and\n      eq\n        /* \"tipjar.sol\":708:759  require(msg.sender == owner, \"Only owner can call\") */\n      tag_91\n      jumpi\n      mload(0x40)\n      0x08c379a000000000000000000000000000000000000000000000000000000000\n      dup2\n      mstore\n      0x04\n      add\n      tag_92\n      swap1\n      tag_37\n      jump\t// in\n    tag_92:\n      mload(0x40)\n      dup1\n      swap2\n      sub\n      swap1\n      revert\n    tag_91:\n        /* \"tipjar.sol\":1074:1077  100 */\n      0x64\n        /* \"tipjar.sol\":1063:1070  percent */\n      dup2\n        /* \"tipjar.sol\":1063:1077  percent <= 100 */\n      gt\n      iszero\n        /* \"tipjar.sol\":1055:1115  require(percent <= 100, \"Percent can't be greater than 100\") */\n      tag_94\n      jumpi\n      mload(0x40)\n      0x08c379a000000000000000000000000000000000000000000000000000000000\n      dup2\n      mstore\n      0x04\n      add\n      tag_95\n      swap1\n      tag_96\n      jump\t// in\n    tag_95:\n      mload(0x40)\n      dup1\n      swap2\n      sub\n      swap1\n      revert\n    tag_94:\n        /* \"tipjar.sol\":1279:1296  uint totalPercent */\n      0x00\n        /* \"tipjar.sol\":1299:1300  0 */\n      0x00\n        /* \"tipjar.sol\":1279:1300  uint totalPercent = 0 */\n      swap1\n      pop\n        /* \"tipjar.sol\":1315:1321  uint i */\n      0x00\n        /* \"tipjar.sol\":1324:1325  0 */\n      0x00\n        /* \"tipjar.sol\":1315:1325  uint i = 0 */\n      swap1\n      pop\n        /* \"tipjar.sol\":1310:1413  for (uint i = 0; i < waitress.length; i++) {... */\n    tag_97:\n        /* \"tipjar.sol\":1331:1339  waitress */\n      0x01\n        /* \"tipjar.sol\":1331:1346  waitress.length */\n      dup1\n      sload\n      swap1\n      pop\n        /* \"tipjar.sol\":1327:1328  i */\n      dup2\n        /* \"tipjar.sol\":1327:1346  i < waitress.length */\n      lt\n        /* \"tipjar.sol\":1310:1413  for (uint i = 0; i < waitress.length; i++) {... */\n      iszero\n      tag_98\n      jumpi\n        /* \"tipjar.sol\":1383:1391  waitress */\n      0x01\n        /* \"tipjar.sol\":1392:1393  i */\n      dup2\n        /* \"tipjar.sol\":1383:1394  waitress[i] */\n      dup2\n      sload\n      dup2\n      lt\n      tag_100\n      jumpi\n      tag_101\n      tag_45\n      jump\t// in\n    tag_101:\n    tag_100:\n      swap1\n      0x00\n      mstore\n      keccak256(0x00, 0x20)\n      swap1\n      0x03\n      mul\n      add\n        /* \"tipjar.sol\":1383:1402  waitress[i].percent */\n      0x02\n      add\n      sload\n        /* \"tipjar.sol\":1367:1402  totalPercent += waitress[i].percent */\n      dup3\n      tag_103\n      swap2\n      swap1\n      tag_54\n      jump\t// in\n    tag_103:\n      swap2\n      pop\n        /* \"tipjar.sol\":1348:1351  i++ */\n      dup1\n      dup1\n      0x01\n      add\n      swap2\n      pop\n      pop\n        /* \"tipjar.sol\":1310:1413  for (uint i = 0; i < waitress.length; i++) {... */\n      jump(tag_97)\n    tag_98:\n      pop\n        /* \"tipjar.sol\":1456:1459  100 */\n      0x64\n        /* \"tipjar.sol\":1445:1452  percent */\n      dup3\n        /* \"tipjar.sol\":1430:1442  totalPercent */\n      dup3\n        /* \"tipjar.sol\":1430:1452  totalPercent + percent */\n      tag_104\n      swap2\n      swap1\n      tag_54\n      jump\t// in\n    tag_104:\n        /* \"tipjar.sol\":1430:1459  totalPercent + percent <= 100 */\n      gt\n      iszero\n        /* \"tipjar.sol\":1422:1489  require(totalPercent + percent <= 100, \"Total percent exceeds 100\") */\n      tag_105\n      jumpi\n      mload(0x40)\n      0x08c379a000000000000000000000000000000000000000000000000000000000\n      dup2\n      mstore\n      0x04\n      add\n      tag_106\n      swap1\n      tag_107\n      jump\t// in\n    tag_106:\n      mload(0x40)\n      dup1\n      swap2\n      sub\n      swap1\n      revert\n    tag_105:\n        /* \"tipjar.sol\":1500:1518  bool waitressExist */\n      0x00\n        /* \"tipjar.sol\":1521:1526  false */\n      0x00\n        /* \"tipjar.sol\":1500:1526  bool waitressExist = false */\n      swap1\n      pop\n        /* \"tipjar.sol\":1560:1561  1 */\n      0x01\n        /* \"tipjar.sol\":1541:1549  waitress */\n      dup1\n        /* \"tipjar.sol\":1541:1556  waitress.length */\n      dup1\n      sload\n      swap1\n      pop\n        /* \"tipjar.sol\":1541:1561  waitress.length >= 1 */\n      lt\n        /* \"tipjar.sol\":1537:1771  if (waitress.length >= 1) {... */\n      tag_108\n      jumpi\n        /* \"tipjar.sol\":1582:1588  uint i */\n      0x00\n        /* \"tipjar.sol\":1591:1592  0 */\n      0x00\n        /* \"tipjar.sol\":1582:1592  uint i = 0 */\n      swap1\n      pop\n        /* \"tipjar.sol\":1577:1761  for (uint i = 0; i < waitress.length; i++) {... */\n    tag_109:\n        /* \"tipjar.sol\":1598:1606  waitress */\n      0x01\n        /* \"tipjar.sol\":1598:1613  waitress.length */\n      dup1\n      sload\n      swap1\n      pop\n        /* \"tipjar.sol\":1594:1595  i */\n      dup2\n        /* \"tipjar.sol\":1594:1613  i < waitress.length */\n      lt\n        /* \"tipjar.sol\":1577:1761  for (uint i = 0; i < waitress.length; i++) {... */\n      iszero\n      tag_110\n      jumpi\n        /* \"tipjar.sol\":1671:1684  walletAddress */\n      dup6\n        /* \"tipjar.sol\":1642:1684  waitress[i].walletAddress == walletAddress */\n      0xffffffffffffffffffffffffffffffffffffffff\n      and\n        /* \"tipjar.sol\":1642:1650  waitress */\n      0x01\n        /* \"tipjar.sol\":1651:1652  i */\n      dup3\n        /* \"tipjar.sol\":1642:1653  waitress[i] */\n      dup2\n      sload\n      dup2\n      lt\n      tag_112\n      jumpi\n      tag_113\n      tag_45\n      jump\t// in\n    tag_113:\n    tag_112:\n      swap1\n      0x00\n      mstore\n      keccak256(0x00, 0x20)\n      swap1\n      0x03\n      mul\n      add\n        /* \"tipjar.sol\":1642:1667  waitress[i].walletAddress */\n      0x00\n      add\n      0x00\n      swap1\n      sload\n      swap1\n      0x0100\n      exp\n      swap1\n      div\n      0xffffffffffffffffffffffffffffffffffffffff\n      and\n        /* \"tipjar.sol\":1642:1684  waitress[i].walletAddress == walletAddress */\n      0xffffffffffffffffffffffffffffffffffffffff\n      and\n      sub\n        /* \"tipjar.sol\":1638:1747  if (waitress[i].walletAddress == walletAddress) {... */\n      tag_115\n      jumpi\n        /* \"tipjar.sol\":1724:1728  true */\n      0x01\n        /* \"tipjar.sol\":1708:1728  waitressExist = true */\n      swap2\n      pop\n        /* \"tipjar.sol\":1638:1747  if (waitress[i].walletAddress == walletAddress) {... */\n    tag_115:\n        /* \"tipjar.sol\":1615:1618  i++ */\n      dup1\n      dup1\n      0x01\n      add\n      swap2\n      pop\n      pop\n        /* \"tipjar.sol\":1577:1761  for (uint i = 0; i < waitress.length; i++) {... */\n      jump(tag_109)\n    tag_110:\n      pop\n        /* \"tipjar.sol\":1537:1771  if (waitress.length >= 1) {... */\n    tag_108:\n        /* \"tipjar.sol\":1817:1822  false */\n      0x00\n        /* \"tipjar.sol\":1800:1822  waitressExist == false */\n      iszero\n      iszero\n        /* \"tipjar.sol\":1800:1813  waitressExist */\n      dup2\n        /* \"tipjar.sol\":1800:1822  waitressExist == false */\n      iszero\n      iszero\n      sub\n        /* \"tipjar.sol\":1796:1902  if (waitressExist == false) {... */\n      tag_116\n      jumpi\n        /* \"tipjar.sol\":1838:1846  waitress */\n      0x01\n        /* \"tipjar.sol\":1852:1890  Waitress(walletAddress, name, percent) */\n      mload(0x40)\n      dup1\n      0x60\n      add\n      0x40\n      mstore\n      dup1\n        /* \"tipjar.sol\":1861:1874  walletAddress */\n      dup8\n        /* \"tipjar.sol\":1852:1890  Waitress(walletAddress, name, percent) */\n      0xffffffffffffffffffffffffffffffffffffffff\n      and\n      dup2\n      mstore\n      0x20\n      add\n        /* \"tipjar.sol\":1876:1880  name */\n      dup7\n        /* \"tipjar.sol\":1852:1890  Waitress(walletAddress, name, percent) */\n      dup2\n      mstore\n      0x20\n      add\n        /* \"tipjar.sol\":1882:1889  percent */\n      dup6\n        /* \"tipjar.sol\":1852:1890  Waitress(walletAddress, name, percent) */\n      dup2\n      mstore\n      pop\n        /* \"tipjar.sol\":1838:1891  waitress.push(Waitress(walletAddress, name, percent)) */\n      swap1\n      dup1\n      0x01\n      dup2\n      sload\n      add\n      dup1\n      dup3\n      sstore\n      dup1\n      swap2\n      pop\n      pop\n      0x01\n      swap1\n      sub\n      swap1\n      0x00\n      mstore\n      keccak256(0x00, 0x20)\n      swap1\n      0x03\n      mul\n      add\n      0x00\n      swap1\n      swap2\n      swap1\n      swap2\n      swap1\n      swap2\n      pop\n      0x00\n      dup3\n      add\n      mload\n      dup2\n      0x00\n      add\n      exp(0x0100, 0x00)\n      dup2\n      sload\n      dup2\n      0xffffffffffffffffffffffffffffffffffffffff\n      mul\n      not\n      and\n      swap1\n      dup4\n      0xffffffffffffffffffffffffffffffffffffffff\n      and\n      mul\n      or\n      swap1\n      sstore\n      pop\n      0x20\n      dup3\n      add\n      mload\n      dup2\n      0x01\n      add\n      swap1\n      dup2\n      tag_118\n      swap2\n      swap1\n      tag_119\n      jump\t// in\n    tag_118:\n      pop\n      0x40\n      dup3\n      add\n      mload\n      dup2\n      0x02\n      add\n      sstore\n      pop\n      pop\n        /* \"tipjar.sol\":1796:1902  if (waitressExist == false) {... */\n    tag_116:\n        /* \"tipjar.sol\":916:1908  {... */\n      pop\n      pop\n        /* \"tipjar.sol\":783:1908  function addWaitress(... */\n      pop\n      pop\n      pop\n      jump\t// out\n        /* \"tipjar.sol\":575:671  function viewWaitress() public view returns (Waitress[] memory) {... */\n    tag_30:\n        /* \"tipjar.sol\":620:637  Waitress[] memory */\n      0x60\n        /* \"tipjar.sol\":656:664  waitress */\n      0x01\n        /* \"tipjar.sol\":649:664  return waitress */\n      dup1\n      sload\n      dup1\n      0x20\n      mul\n      0x20\n      add\n      mload(0x40)\n      swap1\n      dup2\n      add\n      0x40\n      mstore\n      dup1\n      swap3\n      swap2\n      swap1\n      dup2\n      dup2\n      mstore\n      0x20\n      add\n      0x00\n      swap1\n    tag_121:\n      dup3\n      dup3\n      lt\n      iszero\n      tag_122\n      jumpi\n      dup4\n      dup3\n      swap1\n      0x00\n      mstore\n      keccak256(0x00, 0x20)\n      swap1\n      0x03\n      mul\n      add\n      mload(0x40)\n      dup1\n      0x60\n      add\n      0x40\n      mstore\n      swap1\n      dup2\n      0x00\n      dup3\n      add\n      0x00\n      swap1\n      sload\n      swap1\n      0x0100\n      exp\n      swap1\n      div\n      0xffffffffffffffffffffffffffffffffffffffff\n      and\n      0xffffffffffffffffffffffffffffffffffffffff\n      and\n      0xffffffffffffffffffffffffffffffffffffffff\n      and\n      dup2\n      mstore\n      0x20\n      add\n      0x01\n      dup3\n      add\n      dup1\n      sload\n      tag_124\n      swap1\n      tag_125\n      jump\t// in\n    tag_124:\n      dup1\n      0x1f\n      add\n      0x20\n      dup1\n      swap2\n      div\n      mul\n      0x20\n      add\n      mload(0x40)\n      swap1\n      dup2\n      add\n      0x40\n      mstore\n      dup1\n      swap3\n      swap2\n      swap1\n      dup2\n      dup2\n      mstore\n      0x20\n      add\n      dup3\n      dup1\n      sload\n      tag_126\n      swap1\n      tag_125\n      jump\t// in\n    tag_126:\n      dup1\n      iszero\n      tag_127\n      jumpi\n      dup1\n      0x1f\n      lt\n      tag_128\n      jumpi\n      0x0100\n      dup1\n      dup4\n      sload\n      div\n      mul\n      dup4\n      mstore\n      swap2\n      0x20\n      add\n      swap2\n      jump(tag_127)\n    tag_128:\n      dup3\n      add\n      swap2\n      swap1\n      0x00\n      mstore\n      keccak256(0x00, 0x20)\n      swap1\n    tag_129:\n      dup2\n      sload\n      dup2\n      mstore\n      swap1\n      0x01\n      add\n      swap1\n      0x20\n      add\n      dup1\n      dup4\n      gt\n      tag_129\n      jumpi\n      dup3\n      swap1\n      sub\n      0x1f\n      and\n      dup3\n      add\n      swap2\n    tag_127:\n      pop\n      pop\n      pop\n      pop\n      pop\n      dup2\n      mstore\n      0x20\n      add\n      0x02\n      dup3\n      add\n      sload\n      dup2\n      mstore\n      pop\n      pop\n      dup2\n      mstore\n      0x20\n      add\n      swap1\n      0x01\n      add\n      swap1\n      jump(tag_121)\n    tag_122:\n      pop\n      pop\n      pop\n      pop\n      swap1\n      pop\n        /* \"tipjar.sol\":575:671  function viewWaitress() public view returns (Waitress[] memory) {... */\n      swap1\n      jump\t// out\n        /* \"tipjar.sol\":3106:3303  function _transferFunds(address payable recipient, uint amount) internal {... */\n    tag_89:\n        /* \"tipjar.sol\":3190:3202  bool success */\n      0x00\n        /* \"tipjar.sol\":3216:3225  recipient */\n      dup3\n        /* \"tipjar.sol\":3208:3231  payable(recipient).call */\n      0xffffffffffffffffffffffffffffffffffffffff\n      and\n        /* \"tipjar.sol\":3239:3245  amount */\n      dup3\n        /* \"tipjar.sol\":3208:3250  payable(recipient).call{value: amount}(\"\") */\n      mload(0x40)\n      tag_131\n      swap1\n      tag_132\n      jump\t// in\n    tag_131:\n      0x00\n      mload(0x40)\n      dup1\n      dup4\n      sub\n      dup2\n      dup6\n      dup8\n      gas\n      call\n      swap3\n      pop\n      pop\n      pop\n      returndatasize\n      dup1\n      0x00\n      dup2\n      eq\n      tag_135\n      jumpi\n      mload(0x40)\n      swap2\n      pop\n      and(add(returndatasize, 0x3f), not(0x1f))\n      dup3\n      add\n      0x40\n      mstore\n      returndatasize\n      dup3\n      mstore\n      returndatasize\n      0x00\n      0x20\n      dup5\n      add\n      returndatacopy\n      jump(tag_134)\n    tag_135:\n      0x60\n      swap2\n      pop\n    tag_134:\n      pop\n        /* \"tipjar.sol\":3189:3250  (bool success, ) = payable(recipient).call{value: amount}(\"\") */\n      pop\n      swap1\n      pop\n        /* \"tipjar.sol\":3268:3275  success */\n      dup1\n        /* \"tipjar.sol\":3260:3296  require(success, \"Transfer failed.\") */\n      tag_136\n      jumpi\n      mload(0x40)\n      0x08c379a000000000000000000000000000000000000000000000000000000000\n      dup2\n      mstore\n      0x04\n      add\n      tag_137\n      swap1\n      tag_138\n      jump\t// in\n    tag_137:\n      mload(0x40)\n      dup1\n      swap2\n      sub\n      swap1\n      revert\n    tag_136:\n        /* \"tipjar.sol\":3179:3303  {... */\n      pop\n        /* \"tipjar.sol\":3106:3303  function _transferFunds(address payable recipient, uint amount) internal {... */\n      pop\n      pop\n      jump\t// out\n    tag_68:\n      pop\n      dup1\n      sload\n      tag_139\n      swap1\n      tag_125\n      jump\t// in\n    tag_139:\n      0x00\n      dup3\n      sstore\n      dup1\n      0x1f\n      lt\n      tag_141\n      jumpi\n      pop\n      jump(tag_140)\n    tag_141:\n      0x1f\n      add\n      0x20\n      swap1\n      div\n      swap1\n      0x00\n      mstore\n      keccak256(0x00, 0x20)\n      swap1\n      dup2\n      add\n      swap1\n      tag_142\n      swap2\n      swap1\n      tag_143\n      jump\t// in\n    tag_142:\n    tag_140:\n      pop\n      jump\t// out\n    tag_143:\n    tag_144:\n      dup1\n      dup3\n      gt\n      iszero\n      tag_145\n      jumpi\n      0x00\n      dup2\n      0x00\n      swap1\n      sstore\n      pop\n      0x01\n      add\n      jump(tag_144)\n    tag_145:\n      pop\n      swap1\n      jump\t// out\n        /* \"#utility.yul\":7:84   */\n    tag_146:\n        /* \"#utility.yul\":44:51   */\n      0x00\n        /* \"#utility.yul\":73:78   */\n      dup2\n        /* \"#utility.yul\":62:78   */\n      swap1\n      pop\n        /* \"#utility.yul\":7:84   */\n      swap2\n      swap1\n      pop\n      jump\t// out\n        /* \"#utility.yul\":90:208   */\n    tag_147:\n        /* \"#utility.yul\":177:201   */\n      tag_219\n        /* \"#utility.yul\":195:200   */\n      dup2\n        /* \"#utility.yul\":177:201   */\n      tag_146\n      jump\t// in\n    tag_219:\n        /* \"#utility.yul\":172:175   */\n      dup3\n        /* \"#utility.yul\":165:202   */\n      mstore\n        /* \"#utility.yul\":90:208   */\n      pop\n      pop\n      jump\t// out\n        /* \"#utility.yul\":214:436   */\n    tag_12:\n        /* \"#utility.yul\":307:311   */\n      0x00\n        /* \"#utility.yul\":345:347   */\n      0x20\n        /* \"#utility.yul\":334:343   */\n      dup3\n        /* \"#utility.yul\":330:348   */\n      add\n        /* \"#utility.yul\":322:348   */\n      swap1\n      pop\n        /* \"#utility.yul\":358:429   */\n      tag_221\n        /* \"#utility.yul\":426:427   */\n      0x00\n        /* \"#utility.yul\":415:424   */\n      dup4\n        /* \"#utility.yul\":411:428   */\n      add\n        /* \"#utility.yul\":402:408   */\n      dup5\n        /* \"#utility.yul\":358:429   */\n      tag_147\n      jump\t// in\n    tag_221:\n        /* \"#utility.yul\":214:436   */\n      swap3\n      swap2\n      pop\n      pop\n      jump\t// out\n        /* \"#utility.yul\":442:517   */\n    tag_148:\n        /* \"#utility.yul\":475:481   */\n      0x00\n        /* \"#utility.yul\":508:510   */\n      0x40\n        /* \"#utility.yul\":502:511   */\n      mload\n        /* \"#utility.yul\":492:511   */\n      swap1\n      pop\n        /* \"#utility.yul\":442:517   */\n      swap1\n      jump\t// out\n        /* \"#utility.yul\":523:640   */\n    tag_149:\n        /* \"#utility.yul\":632:633   */\n      0x00\n        /* \"#utility.yul\":629:630   */\n      0x00\n        /* \"#utility.yul\":622:634   */\n      revert\n        /* \"#utility.yul\":646:763   */\n    tag_150:\n        /* \"#utility.yul\":755:756   */\n      0x00\n        /* \"#utility.yul\":752:753   */\n      0x00\n        /* \"#utility.yul\":745:757   */\n      revert\n        /* \"#utility.yul\":769:895   */\n    tag_151:\n        /* \"#utility.yul\":806:813   */\n      0x00\n        /* \"#utility.yul\":846:888   */\n      0xffffffffffffffffffffffffffffffffffffffff\n        /* \"#utility.yul\":839:844   */\n      dup3\n        /* \"#utility.yul\":835:889   */\n      and\n        /* \"#utility.yul\":824:889   */\n      swap1\n      pop\n        /* \"#utility.yul\":769:895   */\n      swap2\n      swap1\n      pop\n      jump\t// out\n        /* \"#utility.yul\":901:997   */\n    tag_152:\n        /* \"#utility.yul\":938:945   */\n      0x00\n        /* \"#utility.yul\":967:991   */\n      tag_227\n        /* \"#utility.yul\":985:990   */\n      dup3\n        /* \"#utility.yul\":967:991   */\n      tag_151\n      jump\t// in\n    tag_227:\n        /* \"#utility.yul\":956:991   */\n      swap1\n      pop\n        /* \"#utility.yul\":901:997   */\n      swap2\n      swap1\n      pop\n      jump\t// out\n        /* \"#utility.yul\":1003:1125   */\n    tag_153:\n        /* \"#utility.yul\":1076:1100   */\n      tag_229\n        /* \"#utility.yul\":1094:1099   */\n      dup2\n        /* \"#utility.yul\":1076:1100   */\n      tag_152\n      jump\t// in\n    tag_229:\n        /* \"#utility.yul\":1069:1074   */\n      dup2\n        /* \"#utility.yul\":1066:1101   */\n      eq\n        /* \"#utility.yul\":1056:1119   */\n      tag_230\n      jumpi\n        /* \"#utility.yul\":1115:1116   */\n      0x00\n        /* \"#utility.yul\":1112:1113   */\n      0x00\n        /* \"#utility.yul\":1105:1117   */\n      revert\n        /* \"#utility.yul\":1056:1119   */\n    tag_230:\n        /* \"#utility.yul\":1003:1125   */\n      pop\n      jump\t// out\n        /* \"#utility.yul\":1131:1270   */\n    tag_154:\n        /* \"#utility.yul\":1177:1182   */\n      0x00\n        /* \"#utility.yul\":1215:1221   */\n      dup2\n        /* \"#utility.yul\":1202:1222   */\n      calldataload\n        /* \"#utility.yul\":1193:1222   */\n      swap1\n      pop\n        /* \"#utility.yul\":1231:1264   */\n      tag_232\n        /* \"#utility.yul\":1258:1263   */\n      dup2\n        /* \"#utility.yul\":1231:1264   */\n      tag_153\n      jump\t// in\n    tag_232:\n        /* \"#utility.yul\":1131:1270   */\n      swap3\n      swap2\n      pop\n      pop\n      jump\t// out\n        /* \"#utility.yul\":1276:1605   */\n    tag_16:\n        /* \"#utility.yul\":1335:1341   */\n      0x00\n        /* \"#utility.yul\":1384:1386   */\n      0x20\n        /* \"#utility.yul\":1372:1381   */\n      dup3\n        /* \"#utility.yul\":1363:1370   */\n      dup5\n        /* \"#utility.yul\":1359:1382   */\n      sub\n        /* \"#utility.yul\":1355:1387   */\n      slt\n        /* \"#utility.yul\":1352:1471   */\n      iszero\n      tag_234\n      jumpi\n        /* \"#utility.yul\":1390:1469   */\n      tag_235\n      tag_149\n      jump\t// in\n    tag_235:\n        /* \"#utility.yul\":1352:1471   */\n    tag_234:\n        /* \"#utility.yul\":1510:1511   */\n      0x00\n        /* \"#utility.yul\":1535:1588   */\n      tag_236\n        /* \"#utility.yul\":1580:1587   */\n      dup5\n        /* \"#utility.yul\":1571:1577   */\n      dup3\n        /* \"#utility.yul\":1560:1569   */\n      dup6\n        /* \"#utility.yul\":1556:1578   */\n      add\n        /* \"#utility.yul\":1535:1588   */\n      tag_154\n      jump\t// in\n    tag_236:\n        /* \"#utility.yul\":1525:1588   */\n      swap2\n      pop\n        /* \"#utility.yul\":1481:1598   */\n      pop\n        /* \"#utility.yul\":1276:1605   */\n      swap3\n      swap2\n      pop\n      pop\n      jump\t// out\n        /* \"#utility.yul\":1611:1715   */\n    tag_155:\n        /* \"#utility.yul\":1656:1663   */\n      0x00\n        /* \"#utility.yul\":1685:1709   */\n      tag_238\n        /* \"#utility.yul\":1703:1708   */\n      dup3\n        /* \"#utility.yul\":1685:1709   */\n      tag_151\n      jump\t// in\n    tag_238:\n        /* \"#utility.yul\":1674:1709   */\n      swap1\n      pop\n        /* \"#utility.yul\":1611:1715   */\n      swap2\n      swap1\n      pop\n      jump\t// out\n        /* \"#utility.yul\":1721:1859   */\n    tag_156:\n        /* \"#utility.yul\":1802:1834   */\n      tag_240\n        /* \"#utility.yul\":1828:1833   */\n      dup2\n        /* \"#utility.yul\":1802:1834   */\n      tag_155\n      jump\t// in\n    tag_240:\n        /* \"#utility.yul\":1795:1800   */\n      dup2\n        /* \"#utility.yul\":1792:1835   */\n      eq\n        /* \"#utility.yul\":1782:1853   */\n      tag_241\n      jumpi\n        /* \"#utility.yul\":1849:1850   */\n      0x00\n        /* \"#utility.yul\":1846:1847   */\n      0x00\n        /* \"#utility.yul\":1839:1851   */\n      revert\n        /* \"#utility.yul\":1782:1853   */\n    tag_241:\n        /* \"#utility.yul\":1721:1859   */\n      pop\n      jump\t// out\n        /* \"#utility.yul\":1865:2020   */\n    tag_157:\n        /* \"#utility.yul\":1919:1924   */\n      0x00\n        /* \"#utility.yul\":1957:1963   */\n      dup2\n        /* \"#utility.yul\":1944:1964   */\n      calldataload\n        /* \"#utility.yul\":1935:1964   */\n      swap1\n      pop\n        /* \"#utility.yul\":1973:2014   */\n      tag_243\n        /* \"#utility.yul\":2008:2013   */\n      dup2\n        /* \"#utility.yul\":1973:2014   */\n      tag_156\n      jump\t// in\n    tag_243:\n        /* \"#utility.yul\":1865:2020   */\n      swap3\n      swap2\n      pop\n      pop\n      jump\t// out\n        /* \"#utility.yul\":2026:2143   */\n    tag_158:\n        /* \"#utility.yul\":2135:2136   */\n      0x00\n        /* \"#utility.yul\":2132:2133   */\n      0x00\n        /* \"#utility.yul\":2125:2137   */\n      revert\n        /* \"#utility.yul\":2149:2266   */\n    tag_159:\n        /* \"#utility.yul\":2258:2259   */\n      0x00\n        /* \"#utility.yul\":2255:2256   */\n      0x00\n        /* \"#utility.yul\":2248:2260   */\n      revert\n        /* \"#utility.yul\":2272:2374   */\n    tag_160:\n        /* \"#utility.yul\":2313:2319   */\n      0x00\n        /* \"#utility.yul\":2364:2366   */\n      0x1f\n        /* \"#utility.yul\":2360:2367   */\n      not\n        /* \"#utility.yul\":2355:2357   */\n      0x1f\n        /* \"#utility.yul\":2348:2353   */\n      dup4\n        /* \"#utility.yul\":2344:2358   */\n      add\n        /* \"#utility.yul\":2340:2368   */\n      and\n        /* \"#utility.yul\":2330:2368   */\n      swap1\n      pop\n        /* \"#utility.yul\":2272:2374   */\n      swap2\n      swap1\n      pop\n      jump\t// out\n        /* \"#utility.yul\":2380:2560   */\n    tag_161:\n        /* \"#utility.yul\":2428:2505   */\n      0x4e487b7100000000000000000000000000000000000000000000000000000000\n        /* \"#utility.yul\":2425:2426   */\n      0x00\n        /* \"#utility.yul\":2418:2506   */\n      mstore\n        /* \"#utility.yul\":2525:2529   */\n      0x41\n        /* \"#utility.yul\":2522:2523   */\n      0x04\n        /* \"#utility.yul\":2515:2530   */\n      mstore\n        /* \"#utility.yul\":2549:2553   */\n      0x24\n        /* \"#utility.yul\":2546:2547   */\n      0x00\n        /* \"#utility.yul\":2539:2554   */\n      revert\n        /* \"#utility.yul\":2566:2847   */\n    tag_162:\n        /* \"#utility.yul\":2649:2676   */\n      tag_249\n        /* \"#utility.yul\":2671:2675   */\n      dup3\n        /* \"#utility.yul\":2649:2676   */\n      tag_160\n      jump\t// in\n    tag_249:\n        /* \"#utility.yul\":2641:2647   */\n      dup2\n        /* \"#utility.yul\":2637:2677   */\n      add\n        /* \"#utility.yul\":2779:2785   */\n      dup2\n        /* \"#utility.yul\":2767:2777   */\n      dup2\n        /* \"#utility.yul\":2764:2786   */\n      lt\n        /* \"#utility.yul\":2743:2761   */\n      0xffffffffffffffff\n        /* \"#utility.yul\":2731:2741   */\n      dup3\n        /* \"#utility.yul\":2728:2762   */\n      gt\n        /* \"#utility.yul\":2725:2787   */\n      or\n        /* \"#utility.yul\":2722:2810   */\n      iszero\n      tag_250\n      jumpi\n        /* \"#utility.yul\":2790:2808   */\n      tag_251\n      tag_161\n      jump\t// in\n    tag_251:\n        /* \"#utility.yul\":2722:2810   */\n    tag_250:\n        /* \"#utility.yul\":2830:2840   */\n      dup1\n        /* \"#utility.yul\":2826:2828   */\n      0x40\n        /* \"#utility.yul\":2819:2841   */\n      mstore\n        /* \"#utility.yul\":2609:2847   */\n      pop\n        /* \"#utility.yul\":2566:2847   */\n      pop\n      pop\n      jump\t// out\n        /* \"#utility.yul\":2853:2982   */\n    tag_163:\n        /* \"#utility.yul\":2887:2893   */\n      0x00\n        /* \"#utility.yul\":2914:2934   */\n      tag_253\n      tag_148\n      jump\t// in\n    tag_253:\n        /* \"#utility.yul\":2904:2934   */\n      swap1\n      pop\n        /* \"#utility.yul\":2943:2976   */\n      tag_254\n        /* \"#utility.yul\":2971:2975   */\n      dup3\n        /* \"#utility.yul\":2963:2969   */\n      dup3\n        /* \"#utility.yul\":2943:2976   */\n      tag_162\n      jump\t// in\n    tag_254:\n        /* \"#utility.yul\":2853:2982   */\n      swap2\n      swap1\n      pop\n      jump\t// out\n        /* \"#utility.yul\":2988:3296   */\n    tag_164:\n        /* \"#utility.yul\":3050:3054   */\n      0x00\n        /* \"#utility.yul\":3140:3158   */\n      0xffffffffffffffff\n        /* \"#utility.yul\":3132:3138   */\n      dup3\n        /* \"#utility.yul\":3129:3159   */\n      gt\n        /* \"#utility.yul\":3126:3182   */\n      iszero\n      tag_256\n      jumpi\n        /* \"#utility.yul\":3162:3180   */\n      tag_257\n      tag_161\n      jump\t// in\n    tag_257:\n        /* \"#utility.yul\":3126:3182   */\n    tag_256:\n        /* \"#utility.yul\":3200:3229   */\n      tag_258\n        /* \"#utility.yul\":3222:3228   */\n      dup3\n        /* \"#utility.yul\":3200:3229   */\n      tag_160\n      jump\t// in\n    tag_258:\n        /* \"#utility.yul\":3192:3229   */\n      swap1\n      pop\n        /* \"#utility.yul\":3284:3288   */\n      0x20\n        /* \"#utility.yul\":3278:3282   */\n      dup2\n        /* \"#utility.yul\":3274:3289   */\n      add\n        /* \"#utility.yul\":3266:3289   */\n      swap1\n      pop\n        /* \"#utility.yul\":2988:3296   */\n      swap2\n      swap1\n      pop\n      jump\t// out\n        /* \"#utility.yul\":3302:3450   */\n    tag_165:\n        /* \"#utility.yul\":3400:3406   */\n      dup3\n        /* \"#utility.yul\":3395:3398   */\n      dup2\n        /* \"#utility.yul\":3390:3393   */\n      dup4\n        /* \"#utility.yul\":3377:3407   */\n      calldatacopy\n        /* \"#utility.yul\":3441:3442   */\n      0x00\n        /* \"#utility.yul\":3432:3438   */\n      dup4\n        /* \"#utility.yul\":3427:3430   */\n      dup4\n        /* \"#utility.yul\":3423:3439   */\n      add\n        /* \"#utility.yul\":3416:3443   */\n      mstore\n        /* \"#utility.yul\":3302:3450   */\n      pop\n      pop\n      pop\n      jump\t// out\n        /* \"#utility.yul\":3456:3881   */\n    tag_166:\n        /* \"#utility.yul\":3534:3539   */\n      0x00\n        /* \"#utility.yul\":3559:3625   */\n      tag_261\n        /* \"#utility.yul\":3575:3624   */\n      tag_262\n        /* \"#utility.yul\":3617:3623   */\n      dup5\n        /* \"#utility.yul\":3575:3624   */\n      tag_164\n      jump\t// in\n    tag_262:\n        /* \"#utility.yul\":3559:3625   */\n      tag_163\n      jump\t// in\n    tag_261:\n        /* \"#utility.yul\":3550:3625   */\n      swap1\n      pop\n        /* \"#utility.yul\":3648:3654   */\n      dup3\n        /* \"#utility.yul\":3641:3646   */\n      dup2\n        /* \"#utility.yul\":3634:3655   */\n      mstore\n        /* \"#utility.yul\":3686:3690   */\n      0x20\n        /* \"#utility.yul\":3679:3684   */\n      dup2\n        /* \"#utility.yul\":3675:3691   */\n      add\n        /* \"#utility.yul\":3724:3727   */\n      dup5\n        /* \"#utility.yul\":3715:3721   */\n      dup5\n        /* \"#utility.yul\":3710:3713   */\n      dup5\n        /* \"#utility.yul\":3706:3722   */\n      add\n        /* \"#utility.yul\":3703:3728   */\n      gt\n        /* \"#utility.yul\":3700:3812   */\n      iszero\n      tag_263\n      jumpi\n        /* \"#utility.yul\":3731:3810   */\n      tag_264\n      tag_159\n      jump\t// in\n    tag_264:\n        /* \"#utility.yul\":3700:3812   */\n    tag_263:\n        /* \"#utility.yul\":3821:3875   */\n      tag_265\n        /* \"#utility.yul\":3868:3874   */\n      dup5\n        /* \"#utility.yul\":3863:3866   */\n      dup3\n        /* \"#utility.yul\":3858:3861   */\n      dup6\n        /* \"#utility.yul\":3821:3875   */\n      tag_165\n      jump\t// in\n    tag_265:\n        /* \"#utility.yul\":3540:3881   */\n      pop\n        /* \"#utility.yul\":3456:3881   */\n      swap4\n      swap3\n      pop\n      pop\n      pop\n      jump\t// out\n        /* \"#utility.yul\":3901:4241   */\n    tag_167:\n        /* \"#utility.yul\":3957:3962   */\n      0x00\n        /* \"#utility.yul\":4006:4009   */\n      dup3\n        /* \"#utility.yul\":3999:4003   */\n      0x1f\n        /* \"#utility.yul\":3991:3997   */\n      dup4\n        /* \"#utility.yul\":3987:4004   */\n      add\n        /* \"#utility.yul\":3983:4010   */\n      slt\n        /* \"#utility.yul\":3973:4095   */\n      tag_267\n      jumpi\n        /* \"#utility.yul\":4014:4093   */\n      tag_268\n      tag_158\n      jump\t// in\n    tag_268:\n        /* \"#utility.yul\":3973:4095   */\n    tag_267:\n        /* \"#utility.yul\":4131:4137   */\n      dup2\n        /* \"#utility.yul\":4118:4138   */\n      calldataload\n        /* \"#utility.yul\":4156:4235   */\n      tag_269\n        /* \"#utility.yul\":4231:4234   */\n      dup5\n        /* \"#utility.yul\":4223:4229   */\n      dup3\n        /* \"#utility.yul\":4216:4220   */\n      0x20\n        /* \"#utility.yul\":4208:4214   */\n      dup7\n        /* \"#utility.yul\":4204:4221   */\n      add\n        /* \"#utility.yul\":4156:4235   */\n      tag_166\n      jump\t// in\n    tag_269:\n        /* \"#utility.yul\":4147:4235   */\n      swap2\n      pop\n        /* \"#utility.yul\":3963:4241   */\n      pop\n        /* \"#utility.yul\":3901:4241   */\n      swap3\n      swap2\n      pop\n      pop\n      jump\t// out\n        /* \"#utility.yul\":4247:4369   */\n    tag_168:\n        /* \"#utility.yul\":4320:4344   */\n      tag_271\n        /* \"#utility.yul\":4338:4343   */\n      dup2\n        /* \"#utility.yul\":4320:4344   */\n      tag_146\n      jump\t// in\n    tag_271:\n        /* \"#utility.yul\":4313:4318   */\n      dup2\n        /* \"#utility.yul\":4310:4345   */\n      eq\n        /* \"#utility.yul\":4300:4363   */\n      tag_272\n      jumpi\n        /* \"#utility.yul\":4359:4360   */\n      0x00\n        /* \"#utility.yul\":4356:4357   */\n      0x00\n        /* \"#utility.yul\":4349:4361   */\n      revert\n        /* \"#utility.yul\":4300:4363   */\n    tag_272:\n        /* \"#utility.yul\":4247:4369   */\n      pop\n      jump\t// out\n        /* \"#utility.yul\":4375:4514   */\n    tag_169:\n        /* \"#utility.yul\":4421:4426   */\n      0x00\n        /* \"#utility.yul\":4459:4465   */\n      dup2\n        /* \"#utility.yul\":4446:4466   */\n      calldataload\n        /* \"#utility.yul\":4437:4466   */\n      swap1\n      pop\n        /* \"#utility.yul\":4475:4508   */\n      tag_274\n        /* \"#utility.yul\":4502:4507   */\n      dup2\n        /* \"#utility.yul\":4475:4508   */\n      tag_168\n      jump\t// in\n    tag_274:\n        /* \"#utility.yul\":4375:4514   */\n      swap3\n      swap2\n      pop\n      pop\n      jump\t// out\n        /* \"#utility.yul\":4520:5335   */\n    tag_26:\n        /* \"#utility.yul\":4615:4621   */\n      0x00\n        /* \"#utility.yul\":4623:4629   */\n      0x00\n        /* \"#utility.yul\":4631:4637   */\n      0x00\n        /* \"#utility.yul\":4680:4682   */\n      0x60\n        /* \"#utility.yul\":4668:4677   */\n      dup5\n        /* \"#utility.yul\":4659:4666   */\n      dup7\n        /* \"#utility.yul\":4655:4678   */\n      sub\n        /* \"#utility.yul\":4651:4683   */\n      slt\n        /* \"#utility.yul\":4648:4767   */\n      iszero\n      tag_276\n      jumpi\n        /* \"#utility.yul\":4686:4765   */\n      tag_277\n      tag_149\n      jump\t// in\n    tag_277:\n        /* \"#utility.yul\":4648:4767   */\n    tag_276:\n        /* \"#utility.yul\":4806:4807   */\n      0x00\n        /* \"#utility.yul\":4831:4892   */\n      tag_278\n        /* \"#utility.yul\":4884:4891   */\n      dup7\n        /* \"#utility.yul\":4875:4881   */\n      dup3\n        /* \"#utility.yul\":4864:4873   */\n      dup8\n        /* \"#utility.yul\":4860:4882   */\n      add\n        /* \"#utility.yul\":4831:4892   */\n      tag_157\n      jump\t// in\n    tag_278:\n        /* \"#utility.yul\":4821:4892   */\n      swap4\n      pop\n        /* \"#utility.yul\":4777:4902   */\n      pop\n        /* \"#utility.yul\":4969:4971   */\n      0x20\n        /* \"#utility.yul\":4958:4967   */\n      dup5\n        /* \"#utility.yul\":4954:4972   */\n      add\n        /* \"#utility.yul\":4941:4973   */\n      calldataload\n        /* \"#utility.yul\":5000:5018   */\n      0xffffffffffffffff\n        /* \"#utility.yul\":4992:4998   */\n      dup2\n        /* \"#utility.yul\":4989:5019   */\n      gt\n        /* \"#utility.yul\":4986:5103   */\n      iszero\n      tag_279\n      jumpi\n        /* \"#utility.yul\":5022:5101   */\n      tag_280\n      tag_150\n      jump\t// in\n    tag_280:\n        /* \"#utility.yul\":4986:5103   */\n    tag_279:\n        /* \"#utility.yul\":5127:5190   */\n      tag_281\n        /* \"#utility.yul\":5182:5189   */\n      dup7\n        /* \"#utility.yul\":5173:5179   */\n      dup3\n        /* \"#utility.yul\":5162:5171   */\n      dup8\n        /* \"#utility.yul\":5158:5180   */\n      add\n        /* \"#utility.yul\":5127:5190   */\n      tag_167\n      jump\t// in\n    tag_281:\n        /* \"#utility.yul\":5117:5190   */\n      swap3\n      pop\n        /* \"#utility.yul\":4912:5200   */\n      pop\n        /* \"#utility.yul\":5239:5241   */\n      0x40\n        /* \"#utility.yul\":5265:5318   */\n      tag_282\n        /* \"#utility.yul\":5310:5317   */\n      dup7\n        /* \"#utility.yul\":5301:5307   */\n      dup3\n        /* \"#utility.yul\":5290:5299   */\n      dup8\n        /* \"#utility.yul\":5286:5308   */\n      add\n        /* \"#utility.yul\":5265:5318   */\n      tag_169\n      jump\t// in\n    tag_282:\n        /* \"#utility.yul\":5255:5318   */\n      swap2\n      pop\n        /* \"#utility.yul\":5210:5328   */\n      pop\n        /* \"#utility.yul\":4520:5335   */\n      swap3\n      pop\n      swap3\n      pop\n      swap3\n      jump\t// out\n        /* \"#utility.yul\":5341:5479   */\n    tag_170:\n        /* \"#utility.yul\":5432:5438   */\n      0x00\n        /* \"#utility.yul\":5466:5471   */\n      dup2\n        /* \"#utility.yul\":5460:5472   */\n      mload\n        /* \"#utility.yul\":5450:5472   */\n      swap1\n      pop\n        /* \"#utility.yul\":5341:5479   */\n      swap2\n      swap1\n      pop\n      jump\t// out\n        /* \"#utility.yul\":5485:5693   */\n    tag_171:\n        /* \"#utility.yul\":5608:5619   */\n      0x00\n        /* \"#utility.yul\":5642:5648   */\n      dup3\n        /* \"#utility.yul\":5637:5640   */\n      dup3\n        /* \"#utility.yul\":5630:5649   */\n      mstore\n        /* \"#utility.yul\":5682:5686   */\n      0x20\n        /* \"#utility.yul\":5677:5680   */\n      dup3\n        /* \"#utility.yul\":5673:5687   */\n      add\n        /* \"#utility.yul\":5658:5687   */\n      swap1\n      pop\n        /* \"#utility.yul\":5485:5693   */\n      swap3\n      swap2\n      pop\n      pop\n      jump\t// out\n        /* \"#utility.yul\":5699:5855   */\n    tag_172:\n        /* \"#utility.yul\":5790:5794   */\n      0x00\n        /* \"#utility.yul\":5813:5816   */\n      dup2\n        /* \"#utility.yul\":5805:5816   */\n      swap1\n      pop\n        /* \"#utility.yul\":5843:5847   */\n      0x20\n        /* \"#utility.yul\":5838:5841   */\n      dup3\n        /* \"#utility.yul\":5834:5848   */\n      add\n        /* \"#utility.yul\":5826:5848   */\n      swap1\n      pop\n        /* \"#utility.yul\":5699:5855   */\n      swap2\n      swap1\n      pop\n      jump\t// out\n        /* \"#utility.yul\":5861:5993   */\n    tag_173:\n        /* \"#utility.yul\":5954:5986   */\n      tag_287\n        /* \"#utility.yul\":5980:5985   */\n      dup2\n        /* \"#utility.yul\":5954:5986   */\n      tag_155\n      jump\t// in\n    tag_287:\n        /* \"#utility.yul\":5949:5952   */\n      dup3\n        /* \"#utility.yul\":5942:5987   */\n      mstore\n        /* \"#utility.yul\":5861:5993   */\n      pop\n      pop\n      jump\t// out\n        /* \"#utility.yul\":5999:6098   */\n    tag_174:\n        /* \"#utility.yul\":6051:6057   */\n      0x00\n        /* \"#utility.yul\":6085:6090   */\n      dup2\n        /* \"#utility.yul\":6079:6091   */\n      mload\n        /* \"#utility.yul\":6069:6091   */\n      swap1\n      pop\n        /* \"#utility.yul\":5999:6098   */\n      swap2\n      swap1\n      pop\n      jump\t// out\n        /* \"#utility.yul\":6104:6263   */\n    tag_175:\n        /* \"#utility.yul\":6178:6189   */\n      0x00\n        /* \"#utility.yul\":6212:6218   */\n      dup3\n        /* \"#utility.yul\":6207:6210   */\n      dup3\n        /* \"#utility.yul\":6200:6219   */\n      mstore\n        /* \"#utility.yul\":6252:6256   */\n      0x20\n        /* \"#utility.yul\":6247:6250   */\n      dup3\n        /* \"#utility.yul\":6243:6257   */\n      add\n        /* \"#utility.yul\":6228:6257   */\n      swap1\n      pop\n        /* \"#utility.yul\":6104:6263   */\n      swap3\n      swap2\n      pop\n      pop\n      jump\t// out\n        /* \"#utility.yul\":6269:6408   */\n    tag_176:\n        /* \"#utility.yul\":6358:6364   */\n      dup3\n        /* \"#utility.yul\":6353:6356   */\n      dup2\n        /* \"#utility.yul\":6348:6351   */\n      dup4\n        /* \"#utility.yul\":6342:6365   */\n      mcopy\n        /* \"#utility.yul\":6399:6400   */\n      0x00\n        /* \"#utility.yul\":6390:6396   */\n      dup4\n        /* \"#utility.yul\":6385:6388   */\n      dup4\n        /* \"#utility.yul\":6381:6397   */\n      add\n        /* \"#utility.yul\":6374:6401   */\n      mstore\n        /* \"#utility.yul\":6269:6408   */\n      pop\n      pop\n      pop\n      jump\t// out\n        /* \"#utility.yul\":6414:6771   */\n    tag_177:\n        /* \"#utility.yul\":6492:6495   */\n      0x00\n        /* \"#utility.yul\":6520:6559   */\n      tag_292\n        /* \"#utility.yul\":6553:6558   */\n      dup3\n        /* \"#utility.yul\":6520:6559   */\n      tag_174\n      jump\t// in\n    tag_292:\n        /* \"#utility.yul\":6575:6636   */\n      tag_293\n        /* \"#utility.yul\":6629:6635   */\n      dup2\n        /* \"#utility.yul\":6624:6627   */\n      dup6\n        /* \"#utility.yul\":6575:6636   */\n      tag_175\n      jump\t// in\n    tag_293:\n        /* \"#utility.yul\":6568:6636   */\n      swap4\n      pop\n        /* \"#utility.yul\":6645:6710   */\n      tag_294\n        /* \"#utility.yul\":6703:6709   */\n      dup2\n        /* \"#utility.yul\":6698:6701   */\n      dup6\n        /* \"#utility.yul\":6691:6695   */\n      0x20\n        /* \"#utility.yul\":6684:6689   */\n      dup7\n        /* \"#utility.yul\":6680:6696   */\n      add\n        /* \"#utility.yul\":6645:6710   */\n      tag_176\n      jump\t// in\n    tag_294:\n        /* \"#utility.yul\":6735:6764   */\n      tag_295\n        /* \"#utility.yul\":6757:6763   */\n      dup2\n        /* \"#utility.yul\":6735:6764   */\n      tag_160\n      jump\t// in\n    tag_295:\n        /* \"#utility.yul\":6730:6733   */\n      dup5\n        /* \"#utility.yul\":6726:6765   */\n      add\n        /* \"#utility.yul\":6719:6765   */\n      swap2\n      pop\n        /* \"#utility.yul\":6496:6771   */\n      pop\n        /* \"#utility.yul\":6414:6771   */\n      swap3\n      swap2\n      pop\n      pop\n      jump\t// out\n        /* \"#utility.yul\":6777:6885   */\n    tag_178:\n        /* \"#utility.yul\":6854:6878   */\n      tag_297\n        /* \"#utility.yul\":6872:6877   */\n      dup2\n        /* \"#utility.yul\":6854:6878   */\n      tag_146\n      jump\t// in\n    tag_297:\n        /* \"#utility.yul\":6849:6852   */\n      dup3\n        /* \"#utility.yul\":6842:6879   */\n      mstore\n        /* \"#utility.yul\":6777:6885   */\n      pop\n      pop\n      jump\t// out\n        /* \"#utility.yul\":6943:7739   */\n    tag_179:\n        /* \"#utility.yul\":7050:7053   */\n      0x00\n        /* \"#utility.yul\":7086:7090   */\n      0x60\n        /* \"#utility.yul\":7081:7084   */\n      dup4\n        /* \"#utility.yul\":7077:7091   */\n      add\n        /* \"#utility.yul\":7182:7186   */\n      0x00\n        /* \"#utility.yul\":7175:7180   */\n      dup4\n        /* \"#utility.yul\":7171:7187   */\n      add\n        /* \"#utility.yul\":7165:7188   */\n      mload\n        /* \"#utility.yul\":7201:7280   */\n      tag_299\n        /* \"#utility.yul\":7274:7278   */\n      0x00\n        /* \"#utility.yul\":7269:7272   */\n      dup7\n        /* \"#utility.yul\":7265:7279   */\n      add\n        /* \"#utility.yul\":7251:7263   */\n      dup3\n        /* \"#utility.yul\":7201:7280   */\n      tag_173\n      jump\t// in\n    tag_299:\n        /* \"#utility.yul\":7101:7290   */\n      pop\n        /* \"#utility.yul\":7372:7376   */\n      0x20\n        /* \"#utility.yul\":7365:7370   */\n      dup4\n        /* \"#utility.yul\":7361:7377   */\n      add\n        /* \"#utility.yul\":7355:7378   */\n      mload\n        /* \"#utility.yul\":7425:7428   */\n      dup5\n        /* \"#utility.yul\":7419:7423   */\n      dup3\n        /* \"#utility.yul\":7415:7429   */\n      sub\n        /* \"#utility.yul\":7408:7412   */\n      0x20\n        /* \"#utility.yul\":7403:7406   */\n      dup7\n        /* \"#utility.yul\":7399:7413   */\n      add\n        /* \"#utility.yul\":7392:7430   */\n      mstore\n        /* \"#utility.yul\":7451:7524   */\n      tag_300\n        /* \"#utility.yul\":7519:7523   */\n      dup3\n        /* \"#utility.yul\":7505:7517   */\n      dup3\n        /* \"#utility.yul\":7451:7524   */\n      tag_177\n      jump\t// in\n    tag_300:\n        /* \"#utility.yul\":7443:7524   */\n      swap2\n      pop\n        /* \"#utility.yul\":7300:7535   */\n      pop\n        /* \"#utility.yul\":7620:7624   */\n      0x40\n        /* \"#utility.yul\":7613:7618   */\n      dup4\n        /* \"#utility.yul\":7609:7625   */\n      add\n        /* \"#utility.yul\":7603:7626   */\n      mload\n        /* \"#utility.yul\":7639:7702   */\n      tag_301\n        /* \"#utility.yul\":7696:7700   */\n      0x40\n        /* \"#utility.yul\":7691:7694   */\n      dup7\n        /* \"#utility.yul\":7687:7701   */\n      add\n        /* \"#utility.yul\":7673:7685   */\n      dup3\n        /* \"#utility.yul\":7639:7702   */\n      tag_178\n      jump\t// in\n    tag_301:\n        /* \"#utility.yul\":7545:7712   */\n      pop\n        /* \"#utility.yul\":7729:7733   */\n      dup1\n        /* \"#utility.yul\":7722:7733   */\n      swap2\n      pop\n        /* \"#utility.yul\":7055:7739   */\n      pop\n        /* \"#utility.yul\":6943:7739   */\n      swap3\n      swap2\n      pop\n      pop\n      jump\t// out\n        /* \"#utility.yul\":7745:7997   */\n    tag_180:\n        /* \"#utility.yul\":7862:7872   */\n      0x00\n        /* \"#utility.yul\":7897:7991   */\n      tag_303\n        /* \"#utility.yul\":7987:7990   */\n      dup4\n        /* \"#utility.yul\":7979:7985   */\n      dup4\n        /* \"#utility.yul\":7897:7991   */\n      tag_179\n      jump\t// in\n    tag_303:\n        /* \"#utility.yul\":7883:7991   */\n      swap1\n      pop\n        /* \"#utility.yul\":7745:7997   */\n      swap3\n      swap2\n      pop\n      pop\n      jump\t// out\n        /* \"#utility.yul\":8003:8140   */\n    tag_181:\n        /* \"#utility.yul\":8097:8101   */\n      0x00\n        /* \"#utility.yul\":8129:8133   */\n      0x20\n        /* \"#utility.yul\":8124:8127   */\n      dup3\n        /* \"#utility.yul\":8120:8134   */\n      add\n        /* \"#utility.yul\":8112:8134   */\n      swap1\n      pop\n        /* \"#utility.yul\":8003:8140   */\n      swap2\n      swap1\n      pop\n      jump\t// out\n        /* \"#utility.yul\":8202:9305   */\n    tag_182:\n        /* \"#utility.yul\":8369:8372   */\n      0x00\n        /* \"#utility.yul\":8398:8476   */\n      tag_306\n        /* \"#utility.yul\":8470:8475   */\n      dup3\n        /* \"#utility.yul\":8398:8476   */\n      tag_170\n      jump\t// in\n    tag_306:\n        /* \"#utility.yul\":8492:8602   */\n      tag_307\n        /* \"#utility.yul\":8595:8601   */\n      dup2\n        /* \"#utility.yul\":8590:8593   */\n      dup6\n        /* \"#utility.yul\":8492:8602   */\n      tag_171\n      jump\t// in\n    tag_307:\n        /* \"#utility.yul\":8485:8602   */\n      swap4\n      pop\n        /* \"#utility.yul\":8628:8631   */\n      dup4\n        /* \"#utility.yul\":8673:8677   */\n      0x20\n        /* \"#utility.yul\":8665:8671   */\n      dup3\n        /* \"#utility.yul\":8661:8678   */\n      mul\n        /* \"#utility.yul\":8656:8659   */\n      dup6\n        /* \"#utility.yul\":8652:8679   */\n      add\n        /* \"#utility.yul\":8703:8783   */\n      tag_308\n        /* \"#utility.yul\":8777:8782   */\n      dup6\n        /* \"#utility.yul\":8703:8783   */\n      tag_172\n      jump\t// in\n    tag_308:\n        /* \"#utility.yul\":8806:8813   */\n      dup1\n        /* \"#utility.yul\":8837:8838   */\n      0x00\n        /* \"#utility.yul\":8822:9260   */\n    tag_309:\n        /* \"#utility.yul\":8847:8853   */\n      dup6\n        /* \"#utility.yul\":8844:8845   */\n      dup2\n        /* \"#utility.yul\":8841:8854   */\n      lt\n        /* \"#utility.yul\":8822:9260   */\n      iszero\n      tag_311\n      jumpi\n        /* \"#utility.yul\":8918:8927   */\n      dup5\n        /* \"#utility.yul\":8912:8916   */\n      dup5\n        /* \"#utility.yul\":8908:8928   */\n      sub\n        /* \"#utility.yul\":8903:8906   */\n      dup10\n        /* \"#utility.yul\":8896:8929   */\n      mstore\n        /* \"#utility.yul\":8969:8975   */\n      dup2\n        /* \"#utility.yul\":8963:8976   */\n      mload\n        /* \"#utility.yul\":8997:9109   */\n      tag_312\n        /* \"#utility.yul\":9104:9108   */\n      dup6\n        /* \"#utility.yul\":9089:9102   */\n      dup3\n        /* \"#utility.yul\":8997:9109   */\n      tag_180\n      jump\t// in\n    tag_312:\n        /* \"#utility.yul\":8989:9109   */\n      swap5\n      pop\n        /* \"#utility.yul\":9132:9216   */\n      tag_313\n        /* \"#utility.yul\":9209:9215   */\n      dup4\n        /* \"#utility.yul\":9132:9216   */\n      tag_181\n      jump\t// in\n    tag_313:\n        /* \"#utility.yul\":9122:9216   */\n      swap3\n      pop\n        /* \"#utility.yul\":9245:9249   */\n      0x20\n        /* \"#utility.yul\":9240:9243   */\n      dup11\n        /* \"#utility.yul\":9236:9250   */\n      add\n        /* \"#utility.yul\":9229:9250   */\n      swap10\n      pop\n        /* \"#utility.yul\":8882:9260   */\n      pop\n        /* \"#utility.yul\":8869:8870   */\n      0x01\n        /* \"#utility.yul\":8866:8867   */\n      dup2\n        /* \"#utility.yul\":8862:8871   */\n      add\n        /* \"#utility.yul\":8857:8871   */\n      swap1\n      pop\n        /* \"#utility.yul\":8822:9260   */\n      jump(tag_309)\n    tag_311:\n        /* \"#utility.yul\":8826:8840   */\n      pop\n        /* \"#utility.yul\":9276:9280   */\n      dup3\n        /* \"#utility.yul\":9269:9280   */\n      swap8\n      pop\n        /* \"#utility.yul\":9296:9299   */\n      dup8\n        /* \"#utility.yul\":9289:9299   */\n      swap6\n      pop\n        /* \"#utility.yul\":8374:9305   */\n      pop\n      pop\n      pop\n      pop\n      pop\n        /* \"#utility.yul\":8202:9305   */\n      swap3\n      swap2\n      pop\n      pop\n      jump\t// out\n        /* \"#utility.yul\":9311:9780   */\n    tag_32:\n        /* \"#utility.yul\":9502:9506   */\n      0x00\n        /* \"#utility.yul\":9540:9542   */\n      0x20\n        /* \"#utility.yul\":9529:9538   */\n      dup3\n        /* \"#utility.yul\":9525:9543   */\n      add\n        /* \"#utility.yul\":9517:9543   */\n      swap1\n      pop\n        /* \"#utility.yul\":9589:9598   */\n      dup2\n        /* \"#utility.yul\":9583:9587   */\n      dup2\n        /* \"#utility.yul\":9579:9599   */\n      sub\n        /* \"#utility.yul\":9575:9576   */\n      0x00\n        /* \"#utility.yul\":9564:9573   */\n      dup4\n        /* \"#utility.yul\":9560:9577   */\n      add\n        /* \"#utility.yul\":9553:9600   */\n      mstore\n        /* \"#utility.yul\":9617:9773   */\n      tag_315\n        /* \"#utility.yul\":9768:9772   */\n      dup2\n        /* \"#utility.yul\":9759:9765   */\n      dup5\n        /* \"#utility.yul\":9617:9773   */\n      tag_182\n      jump\t// in\n    tag_315:\n        /* \"#utility.yul\":9609:9773   */\n      swap1\n      pop\n        /* \"#utility.yul\":9311:9780   */\n      swap3\n      swap2\n      pop\n      pop\n      jump\t// out\n        /* \"#utility.yul\":9786:9955   */\n    tag_183:\n        /* \"#utility.yul\":9870:9881   */\n      0x00\n        /* \"#utility.yul\":9904:9910   */\n      dup3\n        /* \"#utility.yul\":9899:9902   */\n      dup3\n        /* \"#utility.yul\":9892:9911   */\n      mstore\n        /* \"#utility.yul\":9944:9948   */\n      0x20\n        /* \"#utility.yul\":9939:9942   */\n      dup3\n        /* \"#utility.yul\":9935:9949   */\n      add\n        /* \"#utility.yul\":9920:9949   */\n      swap1\n      pop\n        /* \"#utility.yul\":9786:9955   */\n      swap3\n      swap2\n      pop\n      pop\n      jump\t// out\n        /* \"#utility.yul\":9961:10130   */\n    tag_184:\n        /* \"#utility.yul\":10101:10122   */\n      0x4f6e6c79206f776e65722063616e2063616c6c00000000000000000000000000\n        /* \"#utility.yul\":10097:10098   */\n      0x00\n        /* \"#utility.yul\":10089:10095   */\n      dup3\n        /* \"#utility.yul\":10085:10099   */\n      add\n        /* \"#utility.yul\":10078:10123   */\n      mstore\n        /* \"#utility.yul\":9961:10130   */\n      pop\n      jump\t// out\n        /* \"#utility.yul\":10136:10502   */\n    tag_185:\n        /* \"#utility.yul\":10278:10281   */\n      0x00\n        /* \"#utility.yul\":10299:10366   */\n      tag_319\n        /* \"#utility.yul\":10363:10365   */\n      0x13\n        /* \"#utility.yul\":10358:10361   */\n      dup4\n        /* \"#utility.yul\":10299:10366   */\n      tag_183\n      jump\t// in\n    tag_319:\n        /* \"#utility.yul\":10292:10366   */\n      swap2\n      pop\n        /* \"#utility.yul\":10375:10468   */\n      tag_320\n        /* \"#utility.yul\":10464:10467   */\n      dup3\n        /* \"#utility.yul\":10375:10468   */\n      tag_184\n      jump\t// in\n    tag_320:\n        /* \"#utility.yul\":10493:10495   */\n      0x20\n        /* \"#utility.yul\":10488:10491   */\n      dup3\n        /* \"#utility.yul\":10484:10496   */\n      add\n        /* \"#utility.yul\":10477:10496   */\n      swap1\n      pop\n        /* \"#utility.yul\":10136:10502   */\n      swap2\n      swap1\n      pop\n      jump\t// out\n        /* \"#utility.yul\":10508:10927   */\n    tag_37:\n        /* \"#utility.yul\":10674:10678   */\n      0x00\n        /* \"#utility.yul\":10712:10714   */\n      0x20\n        /* \"#utility.yul\":10701:10710   */\n      dup3\n        /* \"#utility.yul\":10697:10715   */\n      add\n        /* \"#utility.yul\":10689:10715   */\n      swap1\n      pop\n        /* \"#utility.yul\":10761:10770   */\n      dup2\n        /* \"#utility.yul\":10755:10759   */\n      dup2\n        /* \"#utility.yul\":10751:10771   */\n      sub\n        /* \"#utility.yul\":10747:10748   */\n      0x00\n        /* \"#utility.yul\":10736:10745   */\n      dup4\n        /* \"#utility.yul\":10732:10749   */\n      add\n        /* \"#utility.yul\":10725:10772   */\n      mstore\n        /* \"#utility.yul\":10789:10920   */\n      tag_322\n        /* \"#utility.yul\":10915:10919   */\n      dup2\n        /* \"#utility.yul\":10789:10920   */\n      tag_185\n      jump\t// in\n    tag_322:\n        /* \"#utility.yul\":10781:10920   */\n      swap1\n      pop\n        /* \"#utility.yul\":10508:10927   */\n      swap2\n      swap1\n      pop\n      jump\t// out\n        /* \"#utility.yul\":10933:11113   */\n    tag_45:\n        /* \"#utility.yul\":10981:11058   */\n      0x4e487b7100000000000000000000000000000000000000000000000000000000\n        /* \"#utility.yul\":10978:10979   */\n      0x00\n        /* \"#utility.yul\":10971:11059   */\n      mstore\n        /* \"#utility.yul\":11078:11082   */\n      0x32\n        /* \"#utility.yul\":11075:11076   */\n      0x04\n        /* \"#utility.yul\":11068:11083   */\n      mstore\n        /* \"#utility.yul\":11102:11106   */\n      0x24\n        /* \"#utility.yul\":11099:11100   */\n      0x00\n        /* \"#utility.yul\":11092:11107   */\n      revert\n        /* \"#utility.yul\":11119:11299   */\n    tag_186:\n        /* \"#utility.yul\":11167:11244   */\n      0x4e487b7100000000000000000000000000000000000000000000000000000000\n        /* \"#utility.yul\":11164:11165   */\n      0x00\n        /* \"#utility.yul\":11157:11245   */\n      mstore\n        /* \"#utility.yul\":11264:11268   */\n      0x11\n        /* \"#utility.yul\":11261:11262   */\n      0x04\n        /* \"#utility.yul\":11254:11269   */\n      mstore\n        /* \"#utility.yul\":11288:11292   */\n      0x24\n        /* \"#utility.yul\":11285:11286   */\n      0x00\n        /* \"#utility.yul\":11278:11293   */\n      revert\n        /* \"#utility.yul\":11305:11499   */\n    tag_52:\n        /* \"#utility.yul\":11345:11349   */\n      0x00\n        /* \"#utility.yul\":11365:11385   */\n      tag_326\n        /* \"#utility.yul\":11383:11384   */\n      dup3\n        /* \"#utility.yul\":11365:11385   */\n      tag_146\n      jump\t// in\n    tag_326:\n        /* \"#utility.yul\":11360:11385   */\n      swap2\n      pop\n        /* \"#utility.yul\":11399:11419   */\n      tag_327\n        /* \"#utility.yul\":11417:11418   */\n      dup4\n        /* \"#utility.yul\":11399:11419   */\n      tag_146\n      jump\t// in\n    tag_327:\n        /* \"#utility.yul\":11394:11419   */\n      swap3\n      pop\n        /* \"#utility.yul\":11443:11444   */\n      dup3\n        /* \"#utility.yul\":11440:11441   */\n      dup3\n        /* \"#utility.yul\":11436:11445   */\n      sub\n        /* \"#utility.yul\":11428:11445   */\n      swap1\n      pop\n        /* \"#utility.yul\":11467:11468   */\n      dup2\n        /* \"#utility.yul\":11461:11465   */\n      dup2\n        /* \"#utility.yul\":11458:11469   */\n      gt\n        /* \"#utility.yul\":11455:11492   */\n      iszero\n      tag_328\n      jumpi\n        /* \"#utility.yul\":11472:11490   */\n      tag_329\n      tag_186\n      jump\t// in\n    tag_329:\n        /* \"#utility.yul\":11455:11492   */\n    tag_328:\n        /* \"#utility.yul\":11305:11499   */\n      swap3\n      swap2\n      pop\n      pop\n      jump\t// out\n        /* \"#utility.yul\":11505:11696   */\n    tag_54:\n        /* \"#utility.yul\":11545:11548   */\n      0x00\n        /* \"#utility.yul\":11564:11584   */\n      tag_331\n        /* \"#utility.yul\":11582:11583   */\n      dup3\n        /* \"#utility.yul\":11564:11584   */\n      tag_146\n      jump\t// in\n    tag_331:\n        /* \"#utility.yul\":11559:11584   */\n      swap2\n      pop\n        /* \"#utility.yul\":11598:11618   */\n      tag_332\n        /* \"#utility.yul\":11616:11617   */\n      dup4\n        /* \"#utility.yul\":11598:11618   */\n      tag_146\n      jump\t// in\n    tag_332:\n        /* \"#utility.yul\":11593:11618   */\n      swap3\n      pop\n        /* \"#utility.yul\":11641:11642   */\n      dup3\n        /* \"#utility.yul\":11638:11639   */\n      dup3\n        /* \"#utility.yul\":11634:11643   */\n      add\n        /* \"#utility.yul\":11627:11643   */\n      swap1\n      pop\n        /* \"#utility.yul\":11662:11665   */\n      dup1\n        /* \"#utility.yul\":11659:11660   */\n      dup3\n        /* \"#utility.yul\":11656:11666   */\n      gt\n        /* \"#utility.yul\":11653:11689   */\n      iszero\n      tag_333\n      jumpi\n        /* \"#utility.yul\":11669:11687   */\n      tag_334\n      tag_186\n      jump\t// in\n    tag_334:\n        /* \"#utility.yul\":11653:11689   */\n    tag_333:\n        /* \"#utility.yul\":11505:11696   */\n      swap3\n      swap2\n      pop\n      pop\n      jump\t// out\n        /* \"#utility.yul\":11702:11882   */\n    tag_187:\n        /* \"#utility.yul\":11750:11827   */\n      0x4e487b7100000000000000000000000000000000000000000000000000000000\n        /* \"#utility.yul\":11747:11748   */\n      0x00\n        /* \"#utility.yul\":11740:11828   */\n      mstore\n        /* \"#utility.yul\":11847:11851   */\n      0x22\n        /* \"#utility.yul\":11844:11845   */\n      0x04\n        /* \"#utility.yul\":11837:11852   */\n      mstore\n        /* \"#utility.yul\":11871:11875   */\n      0x24\n        /* \"#utility.yul\":11868:11869   */\n      0x00\n        /* \"#utility.yul\":11861:11876   */\n      revert\n        /* \"#utility.yul\":11888:12208   */\n    tag_125:\n        /* \"#utility.yul\":11932:11938   */\n      0x00\n        /* \"#utility.yul\":11969:11970   */\n      0x02\n        /* \"#utility.yul\":11963:11967   */\n      dup3\n        /* \"#utility.yul\":11959:11971   */\n      div\n        /* \"#utility.yul\":11949:11971   */\n      swap1\n      pop\n        /* \"#utility.yul\":12016:12017   */\n      0x01\n        /* \"#utility.yul\":12010:12014   */\n      dup3\n        /* \"#utility.yul\":12006:12018   */\n      and\n        /* \"#utility.yul\":12037:12055   */\n      dup1\n        /* \"#utility.yul\":12027:12108   */\n      tag_337\n      jumpi\n        /* \"#utility.yul\":12093:12097   */\n      0x7f\n        /* \"#utility.yul\":12085:12091   */\n      dup3\n        /* \"#utility.yul\":12081:12098   */\n      and\n        /* \"#utility.yul\":12071:12098   */\n      swap2\n      pop\n        /* \"#utility.yul\":12027:12108   */\n    tag_337:\n        /* \"#utility.yul\":12155:12157   */\n      0x20\n        /* \"#utility.yul\":12147:12153   */\n      dup3\n        /* \"#utility.yul\":12144:12158   */\n      lt\n        /* \"#utility.yul\":12124:12142   */\n      dup2\n        /* \"#utility.yul\":12121:12159   */\n      sub\n        /* \"#utility.yul\":12118:12202   */\n      tag_338\n      jumpi\n        /* \"#utility.yul\":12174:12192   */\n      tag_339\n      tag_187\n      jump\t// in\n    tag_339:\n        /* \"#utility.yul\":12118:12202   */\n    tag_338:\n        /* \"#utility.yul\":11939:12208   */\n      pop\n        /* \"#utility.yul\":11888:12208   */\n      swap2\n      swap1\n      pop\n      jump\t// out\n        /* \"#utility.yul\":12214:12363   */\n    tag_188:\n        /* \"#utility.yul\":12263:12269   */\n      0x00\n        /* \"#utility.yul\":12297:12302   */\n      dup2\n        /* \"#utility.yul\":12291:12303   */\n      sload\n        /* \"#utility.yul\":12281:12303   */\n      swap1\n      pop\n        /* \"#utility.yul\":12323:12356   */\n      tag_341\n        /* \"#utility.yul\":12349:12355   */\n      dup2\n        /* \"#utility.yul\":12323:12356   */\n      tag_125\n      jump\t// in\n    tag_341:\n        /* \"#utility.yul\":12313:12356   */\n      swap1\n      pop\n        /* \"#utility.yul\":12214:12363   */\n      swap2\n      swap1\n      pop\n      jump\t// out\n        /* \"#utility.yul\":12369:12510   */\n    tag_189:\n        /* \"#utility.yul\":12418:12422   */\n      0x00\n        /* \"#utility.yul\":12441:12444   */\n      dup2\n        /* \"#utility.yul\":12433:12444   */\n      swap1\n      pop\n        /* \"#utility.yul\":12464:12467   */\n      dup2\n        /* \"#utility.yul\":12461:12462   */\n      0x00\n        /* \"#utility.yul\":12454:12468   */\n      mstore\n        /* \"#utility.yul\":12498:12502   */\n      0x20\n        /* \"#utility.yul\":12495:12496   */\n      0x00\n        /* \"#utility.yul\":12485:12503   */\n      keccak256\n        /* \"#utility.yul\":12477:12503   */\n      swap1\n      pop\n        /* \"#utility.yul\":12369:12510   */\n      swap2\n      swap1\n      pop\n      jump\t// out\n        /* \"#utility.yul\":12516:12609   */\n    tag_190:\n        /* \"#utility.yul\":12553:12559   */\n      0x00\n        /* \"#utility.yul\":12600:12602   */\n      0x20\n        /* \"#utility.yul\":12595:12597   */\n      0x1f\n        /* \"#utility.yul\":12588:12593   */\n      dup4\n        /* \"#utility.yul\":12584:12598   */\n      add\n        /* \"#utility.yul\":12580:12603   */\n      div\n        /* \"#utility.yul\":12570:12603   */\n      swap1\n      pop\n        /* \"#utility.yul\":12516:12609   */\n      swap2\n      swap1\n      pop\n      jump\t// out\n        /* \"#utility.yul\":12615:12722   */\n    tag_191:\n        /* \"#utility.yul\":12659:12667   */\n      0x00\n        /* \"#utility.yul\":12709:12714   */\n      dup3\n        /* \"#utility.yul\":12703:12707   */\n      dup3\n        /* \"#utility.yul\":12699:12715   */\n      shl\n        /* \"#utility.yul\":12678:12715   */\n      swap1\n      pop\n        /* \"#utility.yul\":12615:12722   */\n      swap3\n      swap2\n      pop\n      pop\n      jump\t// out\n        /* \"#utility.yul\":12728:13121   */\n    tag_192:\n        /* \"#utility.yul\":12797:12803   */\n      0x00\n        /* \"#utility.yul\":12847:12848   */\n      0x08\n        /* \"#utility.yul\":12835:12845   */\n      dup4\n        /* \"#utility.yul\":12831:12849   */\n      mul\n        /* \"#utility.yul\":12870:12967   */\n      tag_346\n        /* \"#utility.yul\":12900:12966   */\n      0xffffffffffffffffffffffffffffffffffffffffffffffffffffffffffffffff\n        /* \"#utility.yul\":12889:12898   */\n      dup3\n        /* \"#utility.yul\":12870:12967   */\n      tag_191\n      jump\t// in\n    tag_346:\n        /* \"#utility.yul\":12988:13027   */\n      tag_347\n        /* \"#utility.yul\":13018:13026   */\n      dup7\n        /* \"#utility.yul\":13007:13016   */\n      dup4\n        /* \"#utility.yul\":12988:13027   */\n      tag_191\n      jump\t// in\n    tag_347:\n        /* \"#utility.yul\":12976:13027   */\n      swap6\n      pop\n        /* \"#utility.yul\":13060:13064   */\n      dup1\n        /* \"#utility.yul\":13056:13065   */\n      not\n        /* \"#utility.yul\":13049:13054   */\n      dup5\n        /* \"#utility.yul\":13045:13066   */\n      and\n        /* \"#utility.yul\":13036:13066   */\n      swap4\n      pop\n        /* \"#utility.yul\":13109:13113   */\n      dup1\n        /* \"#utility.yul\":13099:13107   */\n      dup7\n        /* \"#utility.yul\":13095:13114   */\n      and\n        /* \"#utility.yul\":13088:13093   */\n      dup5\n        /* \"#utility.yul\":13085:13115   */\n      or\n        /* \"#utility.yul\":13075:13115   */\n      swap3\n      pop\n        /* \"#utility.yul\":12804:13121   */\n      pop\n      pop\n        /* \"#utility.yul\":12728:13121   */\n      swap4\n      swap3\n      pop\n      pop\n      pop\n      jump\t// out\n        /* \"#utility.yul\":13127:13187   */\n    tag_193:\n        /* \"#utility.yul\":13155:13158   */\n      0x00\n        /* \"#utility.yul\":13176:13181   */\n      dup2\n        /* \"#utility.yul\":13169:13181   */\n      swap1\n      pop\n        /* \"#utility.yul\":13127:13187   */\n      swap2\n      swap1\n      pop\n      jump\t// out\n        /* \"#utility.yul\":13193:13335   */\n    tag_194:\n        /* \"#utility.yul\":13243:13252   */\n      0x00\n        /* \"#utility.yul\":13276:13329   */\n      tag_350\n        /* \"#utility.yul\":13294:13328   */\n      tag_351\n        /* \"#utility.yul\":13303:13327   */\n      tag_352\n        /* \"#utility.yul\":13321:13326   */\n      dup5\n        /* \"#utility.yul\":13303:13327   */\n      tag_146\n      jump\t// in\n    tag_352:\n        /* \"#utility.yul\":13294:13328   */\n      tag_193\n      jump\t// in\n    tag_351:\n        /* \"#utility.yul\":13276:13329   */\n      tag_146\n      jump\t// in\n    tag_350:\n        /* \"#utility.yul\":13263:13329   */\n      swap1\n      pop\n        /* \"#utility.yul\":13193:13335   */\n      swap2\n      swap1\n      pop\n      jump\t// out\n        /* \"#utility.yul\":13341:13416   */\n    tag_195:\n        /* \"#utility.yul\":13384:13387   */\n      0x00\n        /* \"#utility.yul\":13405:13410   */\n      dup2\n        /* \"#utility.yul\":13398:13410   */\n      swap1\n      pop\n        /* \"#utility.yul\":13341:13416   */\n      swap2\n      swap1\n      pop\n      jump\t// out\n        /* \"#utility.yul\":13422:13691   */\n    tag_196:\n        /* \"#utility.yul\":13532:13571   */\n      tag_355\n        /* \"#utility.yul\":13563:13570   */\n      dup4\n        /* \"#utility.yul\":13532:13571   */\n      tag_194\n      jump\t// in\n    tag_355:\n        /* \"#utility.yul\":13593:13684   */\n      tag_356\n        /* \"#utility.yul\":13642:13683   */\n      tag_357\n        /* \"#utility.yul\":13666:13682   */\n      dup3\n        /* \"#utility.yul\":13642:13683   */\n      tag_195\n      jump\t// in\n    tag_357:\n        /* \"#utility.yul\":13634:13640   */\n      dup5\n        /* \"#utility.yul\":13627:13631   */\n      dup5\n        /* \"#utility.yul\":13621:13632   */\n      sload\n        /* \"#utility.yul\":13593:13684   */\n      tag_192\n      jump\t// in\n    tag_356:\n        /* \"#utility.yul\":13587:13591   */\n      dup3\n        /* \"#utility.yul\":13580:13685   */\n      sstore\n        /* \"#utility.yul\":13498:13691   */\n      pop\n        /* \"#utility.yul\":13422:13691   */\n      pop\n      pop\n      pop\n      jump\t// out\n        /* \"#utility.yul\":13697:13770   */\n    tag_197:\n        /* \"#utility.yul\":13742:13745   */\n      0x00\n        /* \"#utility.yul\":13763:13764   */\n      0x00\n        /* \"#utility.yul\":13756:13764   */\n      swap1\n      pop\n        /* \"#utility.yul\":13697:13770   */\n      swap1\n      jump\t// out\n        /* \"#utility.yul\":13776:13965   */\n    tag_198:\n        /* \"#utility.yul\":13853:13885   */\n      tag_360\n      tag_197\n      jump\t// in\n    tag_360:\n        /* \"#utility.yul\":13894:13959   */\n      tag_361\n        /* \"#utility.yul\":13952:13958   */\n      dup2\n        /* \"#utility.yul\":13944:13950   */\n      dup5\n        /* \"#utility.yul\":13938:13942   */\n      dup5\n        /* \"#utility.yul\":13894:13959   */\n      tag_196\n      jump\t// in\n    tag_361:\n        /* \"#utility.yul\":13829:13965   */\n      pop\n        /* \"#utility.yul\":13776:13965   */\n      pop\n      pop\n      jump\t// out\n        /* \"#utility.yul\":13971:14157   */\n    tag_199:\n        /* \"#utility.yul\":14031:14151   */\n    tag_363:\n        /* \"#utility.yul\":14048:14051   */\n      dup2\n        /* \"#utility.yul\":14041:14046   */\n      dup2\n        /* \"#utility.yul\":14038:14052   */\n      lt\n        /* \"#utility.yul\":14031:14151   */\n      iszero\n      tag_365\n      jumpi\n        /* \"#utility.yul\":14102:14141   */\n      tag_366\n        /* \"#utility.yul\":14139:14140   */\n      0x00\n        /* \"#utility.yul\":14132:14137   */\n      dup3\n        /* \"#utility.yul\":14102:14141   */\n      tag_198\n      jump\t// in\n    tag_366:\n        /* \"#utility.yul\":14075:14076   */\n      0x01\n        /* \"#utility.yul\":14068:14073   */\n      dup2\n        /* \"#utility.yul\":14064:14077   */\n      add\n        /* \"#utility.yul\":14055:14077   */\n      swap1\n      pop\n        /* \"#utility.yul\":14031:14151   */\n      jump(tag_363)\n    tag_365:\n        /* \"#utility.yul\":13971:14157   */\n      pop\n      pop\n      jump\t// out\n        /* \"#utility.yul\":14163:14706   */\n    tag_200:\n        /* \"#utility.yul\":14264:14266   */\n      0x1f\n        /* \"#utility.yul\":14259:14262   */\n      dup3\n        /* \"#utility.yul\":14256:14267   */\n      gt\n        /* \"#utility.yul\":14253:14699   */\n      iszero\n      tag_368\n      jumpi\n        /* \"#utility.yul\":14298:14336   */\n      tag_369\n        /* \"#utility.yul\":14330:14335   */\n      dup2\n        /* \"#utility.yul\":14298:14336   */\n      tag_189\n      jump\t// in\n    tag_369:\n        /* \"#utility.yul\":14382:14411   */\n      tag_370\n        /* \"#utility.yul\":14400:14410   */\n      dup5\n        /* \"#utility.yul\":14382:14411   */\n      tag_190\n      jump\t// in\n    tag_370:\n        /* \"#utility.yul\":14372:14380   */\n      dup2\n        /* \"#utility.yul\":14368:14412   */\n      add\n        /* \"#utility.yul\":14565:14567   */\n      0x20\n        /* \"#utility.yul\":14553:14563   */\n      dup6\n        /* \"#utility.yul\":14550:14568   */\n      lt\n        /* \"#utility.yul\":14547:14596   */\n      iszero\n      tag_371\n      jumpi\n        /* \"#utility.yul\":14586:14594   */\n      dup2\n        /* \"#utility.yul\":14571:14594   */\n      swap1\n      pop\n        /* \"#utility.yul\":14547:14596   */\n    tag_371:\n        /* \"#utility.yul\":14609:14689   */\n      tag_372\n        /* \"#utility.yul\":14665:14687   */\n      tag_373\n        /* \"#utility.yul\":14683:14686   */\n      dup6\n        /* \"#utility.yul\":14665:14687   */\n      tag_190\n      jump\t// in\n    tag_373:\n        /* \"#utility.yul\":14655:14663   */\n      dup4\n        /* \"#utility.yul\":14651:14688   */\n      add\n        /* \"#utility.yul\":14638:14649   */\n      dup3\n        /* \"#utility.yul\":14609:14689   */\n      tag_199\n      jump\t// in\n    tag_372:\n        /* \"#utility.yul\":14268:14699   */\n      pop\n      pop\n        /* \"#utility.yul\":14253:14699   */\n    tag_368:\n        /* \"#utility.yul\":14163:14706   */\n      pop\n      pop\n      pop\n      jump\t// out\n        /* \"#utility.yul\":14712:14829   */\n    tag_201:\n        /* \"#utility.yul\":14766:14774   */\n      0x00\n        /* \"#utility.yul\":14816:14821   */\n      dup3\n        /* \"#utility.yul\":14810:14814   */\n      dup3\n        /* \"#utility.yul\":14806:14822   */\n      shr\n        /* \"#utility.yul\":14785:14822   */\n      swap1\n      pop\n        /* \"#utility.yul\":14712:14829   */\n      swap3\n      swap2\n      pop\n      pop\n      jump\t// out\n        /* \"#utility.yul\":14835:15004   */\n    tag_202:\n        /* \"#utility.yul\":14879:14885   */\n      0x00\n        /* \"#utility.yul\":14912:14963   */\n      tag_376\n        /* \"#utility.yul\":14960:14961   */\n      0x00\n        /* \"#utility.yul\":14956:14962   */\n      not\n        /* \"#utility.yul\":14948:14953   */\n      dup5\n        /* \"#utility.yul\":14945:14946   */\n      0x08\n        /* \"#utility.yul\":14941:14954   */\n      mul\n        /* \"#utility.yul\":14912:14963   */\n      tag_201\n      jump\t// in\n    tag_376:\n        /* \"#utility.yul\":14908:14964   */\n      not\n        /* \"#utility.yul\":14993:14997   */\n      dup1\n        /* \"#utility.yul\":14987:14991   */\n      dup4\n        /* \"#utility.yul\":14983:14998   */\n      and\n        /* \"#utility.yul\":14973:14998   */\n      swap2\n      pop\n        /* \"#utility.yul\":14886:15004   */\n      pop\n        /* \"#utility.yul\":14835:15004   */\n      swap3\n      swap2\n      pop\n      pop\n      jump\t// out\n        /* \"#utility.yul\":15009:15304   */\n    tag_203:\n        /* \"#utility.yul\":15085:15089   */\n      0x00\n        /* \"#utility.yul\":15231:15260   */\n      tag_378\n        /* \"#utility.yul\":15256:15259   */\n      dup4\n        /* \"#utility.yul\":15250:15254   */\n      dup4\n        /* \"#utility.yul\":15231:15260   */\n      tag_202\n      jump\t// in\n    tag_378:\n        /* \"#utility.yul\":15223:15260   */\n      swap2\n      pop\n        /* \"#utility.yul\":15293:15296   */\n      dup3\n        /* \"#utility.yul\":15290:15291   */\n      0x02\n        /* \"#utility.yul\":15286:15297   */\n      mul\n        /* \"#utility.yul\":15280:15284   */\n      dup3\n        /* \"#utility.yul\":15277:15298   */\n      or\n        /* \"#utility.yul\":15269:15298   */\n      swap1\n      pop\n        /* \"#utility.yul\":15009:15304   */\n      swap3\n      swap2\n      pop\n      pop\n      jump\t// out\n        /* \"#utility.yul\":15309:16760   */\n    tag_62:\n        /* \"#utility.yul\":15420:15423   */\n      dup2\n        /* \"#utility.yul\":15414:15418   */\n      dup2\n        /* \"#utility.yul\":15411:15424   */\n      sub\n        /* \"#utility.yul\":15408:15434   */\n      tag_380\n      jumpi\n        /* \"#utility.yul\":15427:15432   */\n      pop\n      pop\n      jump(tag_379)\n        /* \"#utility.yul\":15408:15434   */\n    tag_380:\n        /* \"#utility.yul\":15458:15492   */\n      tag_381\n        /* \"#utility.yul\":15488:15491   */\n      dup3\n        /* \"#utility.yul\":15458:15492   */\n      tag_188\n      jump\t// in\n    tag_381:\n        /* \"#utility.yul\":15557:15575   */\n      0xffffffffffffffff\n        /* \"#utility.yul\":15549:15555   */\n      dup2\n        /* \"#utility.yul\":15546:15576   */\n      gt\n        /* \"#utility.yul\":15543:15599   */\n      iszero\n      tag_382\n      jumpi\n        /* \"#utility.yul\":15579:15597   */\n      tag_383\n      tag_161\n      jump\t// in\n    tag_383:\n        /* \"#utility.yul\":15543:15599   */\n    tag_382:\n        /* \"#utility.yul\":15623:15661   */\n      tag_384\n        /* \"#utility.yul\":15655:15659   */\n      dup3\n        /* \"#utility.yul\":15649:15660   */\n      sload\n        /* \"#utility.yul\":15623:15661   */\n      tag_125\n      jump\t// in\n    tag_384:\n        /* \"#utility.yul\":15708:15775   */\n      tag_385\n        /* \"#utility.yul\":15768:15774   */\n      dup3\n        /* \"#utility.yul\":15760:15766   */\n      dup3\n        /* \"#utility.yul\":15754:15758   */\n      dup6\n        /* \"#utility.yul\":15708:15775   */\n      tag_200\n      jump\t// in\n    tag_385:\n        /* \"#utility.yul\":15802:15803   */\n      0x00\n        /* \"#utility.yul\":15831:15833   */\n      0x1f\n        /* \"#utility.yul\":15823:15829   */\n      dup4\n        /* \"#utility.yul\":15820:15834   */\n      gt\n        /* \"#utility.yul\":15848:15849   */\n      0x01\n        /* \"#utility.yul\":15843:16515   */\n      dup2\n      eq\n      tag_387\n      jumpi\n        /* \"#utility.yul\":16559:16560   */\n      0x00\n        /* \"#utility.yul\":16576:16582   */\n      dup5\n        /* \"#utility.yul\":16573:16650   */\n      iszero\n      tag_388\n      jumpi\n        /* \"#utility.yul\":16625:16634   */\n      dup3\n        /* \"#utility.yul\":16620:16623   */\n      dup8\n        /* \"#utility.yul\":16616:16635   */\n      add\n        /* \"#utility.yul\":16610:16636   */\n      sload\n        /* \"#utility.yul\":16601:16636   */\n      swap1\n      pop\n        /* \"#utility.yul\":16573:16650   */\n    tag_388:\n        /* \"#utility.yul\":16676:16743   */\n      tag_389\n        /* \"#utility.yul\":16736:16742   */\n      dup6\n        /* \"#utility.yul\":16729:16734   */\n      dup3\n        /* \"#utility.yul\":16676:16743   */\n      tag_203\n      jump\t// in\n    tag_389:\n        /* \"#utility.yul\":16670:16674   */\n      dup7\n        /* \"#utility.yul\":16663:16744   */\n      sstore\n        /* \"#utility.yul\":16532:16754   */\n      pop\n        /* \"#utility.yul\":15813:16754   */\n      jump(tag_386)\n        /* \"#utility.yul\":15843:16515   */\n    tag_387:\n        /* \"#utility.yul\":15895:15899   */\n      0x1f\n        /* \"#utility.yul\":15891:15900   */\n      not\n        /* \"#utility.yul\":15883:15889   */\n      dup5\n        /* \"#utility.yul\":15879:15901   */\n      and\n        /* \"#utility.yul\":15921:15957   */\n      tag_390\n        /* \"#utility.yul\":15953:15956   */\n      dup8\n        /* \"#utility.yul\":15921:15957   */\n      tag_189\n      jump\t// in\n    tag_390:\n        /* \"#utility.yul\":15914:15957   */\n      swap7\n      pop\n        /* \"#utility.yul\":15984:16021   */\n      tag_391\n        /* \"#utility.yul\":16016:16020   */\n      dup7\n        /* \"#utility.yul\":15984:16021   */\n      tag_189\n      jump\t// in\n    tag_391:\n        /* \"#utility.yul\":16043:16044   */\n      0x00\n        /* \"#utility.yul\":16057:16264   */\n    tag_392:\n        /* \"#utility.yul\":16071:16078   */\n      dup3\n        /* \"#utility.yul\":16068:16069   */\n      dup2\n        /* \"#utility.yul\":16065:16079   */\n      lt\n        /* \"#utility.yul\":16057:16264   */\n      iszero\n      tag_394\n      jumpi\n        /* \"#utility.yul\":16150:16159   */\n      dup5\n        /* \"#utility.yul\":16145:16148   */\n      dup10\n        /* \"#utility.yul\":16141:16160   */\n      add\n        /* \"#utility.yul\":16135:16161   */\n      sload\n        /* \"#utility.yul\":16127:16133   */\n      dup3\n        /* \"#utility.yul\":16120:16162   */\n      sstore\n        /* \"#utility.yul\":16201:16202   */\n      0x01\n        /* \"#utility.yul\":16193:16199   */\n      dup3\n        /* \"#utility.yul\":16189:16203   */\n      add\n        /* \"#utility.yul\":16179:16203   */\n      swap2\n      pop\n        /* \"#utility.yul\":16248:16249   */\n      0x01\n        /* \"#utility.yul\":16237:16246   */\n      dup6\n        /* \"#utility.yul\":16233:16250   */\n      add\n        /* \"#utility.yul\":16220:16250   */\n      swap5\n      pop\n        /* \"#utility.yul\":16094:16098   */\n      0x20\n        /* \"#utility.yul\":16091:16092   */\n      dup2\n        /* \"#utility.yul\":16087:16099   */\n      add\n        /* \"#utility.yul\":16082:16099   */\n      swap1\n      pop\n        /* \"#utility.yul\":16057:16264   */\n      jump(tag_392)\n    tag_394:\n        /* \"#utility.yul\":16292:16298   */\n      dup7\n        /* \"#utility.yul\":16283:16290   */\n      dup4\n        /* \"#utility.yul\":16280:16299   */\n      lt\n        /* \"#utility.yul\":16277:16456   */\n      iszero\n      tag_395\n      jumpi\n        /* \"#utility.yul\":16350:16359   */\n      dup5\n        /* \"#utility.yul\":16345:16348   */\n      dup10\n        /* \"#utility.yul\":16341:16360   */\n      add\n        /* \"#utility.yul\":16335:16361   */\n      sload\n        /* \"#utility.yul\":16393:16441   */\n      tag_396\n        /* \"#utility.yul\":16435:16439   */\n      0x1f\n        /* \"#utility.yul\":16427:16433   */\n      dup10\n        /* \"#utility.yul\":16423:16440   */\n      and\n        /* \"#utility.yul\":16412:16421   */\n      dup3\n        /* \"#utility.yul\":16393:16441   */\n      tag_202\n      jump\t// in\n    tag_396:\n        /* \"#utility.yul\":16385:16391   */\n      dup4\n        /* \"#utility.yul\":16378:16442   */\n      sstore\n        /* \"#utility.yul\":16300:16456   */\n      pop\n        /* \"#utility.yul\":16277:16456   */\n    tag_395:\n        /* \"#utility.yul\":16502:16503   */\n      0x01\n        /* \"#utility.yul\":16498:16499   */\n      0x02\n        /* \"#utility.yul\":16490:16496   */\n      dup9\n        /* \"#utility.yul\":16486:16500   */\n      mul\n        /* \"#utility.yul\":16482:16504   */\n      add\n        /* \"#utility.yul\":16476:16480   */\n      dup9\n        /* \"#utility.yul\":16469:16505   */\n      sstore\n        /* \"#utility.yul\":15850:16515   */\n      pop\n      pop\n      pop\n        /* \"#utility.yul\":15813:16754   */\n    tag_386:\n      pop\n        /* \"#utility.yul\":15398:16760   */\n      pop\n      pop\n      pop\n        /* \"#utility.yul\":15309:16760   */\n      pop\n      pop\n    tag_379:\n      jump\t// out\n        /* \"#utility.yul\":16766:16946   */\n    tag_65:\n        /* \"#utility.yul\":16814:16891   */\n      0x4e487b7100000000000000000000000000000000000000000000000000000000\n        /* \"#utility.yul\":16811:16812   */\n      0x00\n        /* \"#utility.yul\":16804:16892   */\n      mstore\n        /* \"#utility.yul\":16911:16915   */\n      0x31\n        /* \"#utility.yul\":16908:16909   */\n      0x04\n        /* \"#utility.yul\":16901:16916   */\n      mstore\n        /* \"#utility.yul\":16935:16939   */\n      0x24\n        /* \"#utility.yul\":16932:16933   */\n      0x00\n        /* \"#utility.yul\":16925:16940   */\n      revert\n        /* \"#utility.yul\":16952:17110   */\n    tag_204:\n        /* \"#utility.yul\":17092:17102   */\n      0x4e6f204d6f6e6579000000000000000000000000000000000000000000000000\n        /* \"#utility.yul\":17088:17089   */\n      0x00\n        /* \"#utility.yul\":17080:17086   */\n      dup3\n        /* \"#utility.yul\":17076:17090   */\n      add\n        /* \"#utility.yul\":17069:17103   */\n      mstore\n        /* \"#utility.yul\":16952:17110   */\n      pop\n      jump\t// out\n        /* \"#utility.yul\":17116:17481   */\n    tag_205:\n        /* \"#utility.yul\":17258:17261   */\n      0x00\n        /* \"#utility.yul\":17279:17345   */\n      tag_400\n        /* \"#utility.yul\":17343:17344   */\n      0x08\n        /* \"#utility.yul\":17338:17341   */\n      dup4\n        /* \"#utility.yul\":17279:17345   */\n      tag_183\n      jump\t// in\n    tag_400:\n        /* \"#utility.yul\":17272:17345   */\n      swap2\n      pop\n        /* \"#utility.yul\":17354:17447   */\n      tag_401\n        /* \"#utility.yul\":17443:17446   */\n      dup3\n        /* \"#utility.yul\":17354:17447   */\n      tag_204\n      jump\t// in\n    tag_401:\n        /* \"#utility.yul\":17472:17474   */\n      0x20\n        /* \"#utility.yul\":17467:17470   */\n      dup3\n        /* \"#utility.yul\":17463:17475   */\n      add\n        /* \"#utility.yul\":17456:17475   */\n      swap1\n      pop\n        /* \"#utility.yul\":17116:17481   */\n      swap2\n      swap1\n      pop\n      jump\t// out\n        /* \"#utility.yul\":17487:17906   */\n    tag_73:\n        /* \"#utility.yul\":17653:17657   */\n      0x00\n        /* \"#utility.yul\":17691:17693   */\n      0x20\n        /* \"#utility.yul\":17680:17689   */\n      dup3\n        /* \"#utility.yul\":17676:17694   */\n      add\n        /* \"#utility.yul\":17668:17694   */\n      swap1\n      pop\n        /* \"#utility.yul\":17740:17749   */\n      dup2\n        /* \"#utility.yul\":17734:17738   */\n      dup2\n        /* \"#utility.yul\":17730:17750   */\n      sub\n        /* \"#utility.yul\":17726:17727   */\n      0x00\n        /* \"#utility.yul\":17715:17724   */\n      dup4\n        /* \"#utility.yul\":17711:17728   */\n      add\n        /* \"#utility.yul\":17704:17751   */\n      mstore\n        /* \"#utility.yul\":17768:17899   */\n      tag_403\n        /* \"#utility.yul\":17894:17898   */\n      dup2\n        /* \"#utility.yul\":17768:17899   */\n      tag_205\n      jump\t// in\n    tag_403:\n        /* \"#utility.yul\":17760:17899   */\n      swap1\n      pop\n        /* \"#utility.yul\":17487:17906   */\n      swap2\n      swap1\n      pop\n      jump\t// out\n        /* \"#utility.yul\":17912:18322   */\n    tag_82:\n        /* \"#utility.yul\":17952:17959   */\n      0x00\n        /* \"#utility.yul\":17975:17995   */\n      tag_405\n        /* \"#utility.yul\":17993:17994   */\n      dup3\n        /* \"#utility.yul\":17975:17995   */\n      tag_146\n      jump\t// in\n    tag_405:\n        /* \"#utility.yul\":17970:17995   */\n      swap2\n      pop\n        /* \"#utility.yul\":18009:18029   */\n      tag_406\n        /* \"#utility.yul\":18027:18028   */\n      dup4\n        /* \"#utility.yul\":18009:18029   */\n      tag_146\n      jump\t// in\n    tag_406:\n        /* \"#utility.yul\":18004:18029   */\n      swap3\n      pop\n        /* \"#utility.yul\":18064:18065   */\n      dup3\n        /* \"#utility.yul\":18061:18062   */\n      dup3\n        /* \"#utility.yul\":18057:18066   */\n      mul\n        /* \"#utility.yul\":18086:18116   */\n      tag_407\n        /* \"#utility.yul\":18104:18115   */\n      dup2\n        /* \"#utility.yul\":18086:18116   */\n      tag_146\n      jump\t// in\n    tag_407:\n        /* \"#utility.yul\":18075:18116   */\n      swap2\n      pop\n        /* \"#utility.yul\":18265:18266   */\n      dup3\n        /* \"#utility.yul\":18256:18263   */\n      dup3\n        /* \"#utility.yul\":18252:18267   */\n      div\n        /* \"#utility.yul\":18249:18250   */\n      dup5\n        /* \"#utility.yul\":18246:18268   */\n      eq\n        /* \"#utility.yul\":18226:18227   */\n      dup4\n        /* \"#utility.yul\":18219:18228   */\n      iszero\n        /* \"#utility.yul\":18199:18282   */\n      or\n        /* \"#utility.yul\":18176:18315   */\n      tag_408\n      jumpi\n        /* \"#utility.yul\":18295:18313   */\n      tag_409\n      tag_186\n      jump\t// in\n    tag_409:\n        /* \"#utility.yul\":18176:18315   */\n    tag_408:\n        /* \"#utility.yul\":17960:18322   */\n      pop\n        /* \"#utility.yul\":17912:18322   */\n      swap3\n      swap2\n      pop\n      pop\n      jump\t// out\n        /* \"#utility.yul\":18328:18508   */\n    tag_206:\n        /* \"#utility.yul\":18376:18453   */\n      0x4e487b7100000000000000000000000000000000000000000000000000000000\n        /* \"#utility.yul\":18373:18374   */\n      0x00\n        /* \"#utility.yul\":18366:18454   */\n      mstore\n        /* \"#utility.yul\":18473:18477   */\n      0x12\n        /* \"#utility.yul\":18470:18471   */\n      0x04\n        /* \"#utility.yul\":18463:18478   */\n      mstore\n        /* \"#utility.yul\":18497:18501   */\n      0x24\n        /* \"#utility.yul\":18494:18495   */\n      0x00\n        /* \"#utility.yul\":18487:18502   */\n      revert\n        /* \"#utility.yul\":18514:18699   */\n    tag_84:\n        /* \"#utility.yul\":18554:18555   */\n      0x00\n        /* \"#utility.yul\":18571:18591   */\n      tag_412\n        /* \"#utility.yul\":18589:18590   */\n      dup3\n        /* \"#utility.yul\":18571:18591   */\n      tag_146\n      jump\t// in\n    tag_412:\n        /* \"#utility.yul\":18566:18591   */\n      swap2\n      pop\n        /* \"#utility.yul\":18605:18625   */\n      tag_413\n        /* \"#utility.yul\":18623:18624   */\n      dup4\n        /* \"#utility.yul\":18605:18625   */\n      tag_146\n      jump\t// in\n    tag_413:\n        /* \"#utility.yul\":18600:18625   */\n      swap3\n      pop\n        /* \"#utility.yul\":18644:18645   */\n      dup3\n        /* \"#utility.yul\":18634:18669   */\n      tag_414\n      jumpi\n        /* \"#utility.yul\":18649:18667   */\n      tag_415\n      tag_206\n      jump\t// in\n    tag_415:\n        /* \"#utility.yul\":18634:18669   */\n    tag_414:\n        /* \"#utility.yul\":18691:18692   */\n      dup3\n        /* \"#utility.yul\":18688:18689   */\n      dup3\n        /* \"#utility.yul\":18684:18693   */\n      div\n        /* \"#utility.yul\":18679:18693   */\n      swap1\n      pop\n        /* \"#utility.yul\":18514:18699   */\n      swap3\n      swap2\n      pop\n      pop\n      jump\t// out\n        /* \"#utility.yul\":18705:18925   */\n    tag_207:\n        /* \"#utility.yul\":18845:18879   */\n      0x50657263656e742063616e27742062652067726561746572207468616e203130\n        /* \"#utility.yul\":18841:18842   */\n      0x00\n        /* \"#utility.yul\":18833:18839   */\n      dup3\n        /* \"#utility.yul\":18829:18843   */\n      add\n        /* \"#utility.yul\":18822:18880   */\n      mstore\n        /* \"#utility.yul\":18914:18917   */\n      0x3000000000000000000000000000000000000000000000000000000000000000\n        /* \"#utility.yul\":18909:18911   */\n      0x20\n        /* \"#utility.yul\":18901:18907   */\n      dup3\n        /* \"#utility.yul\":18897:18912   */\n      add\n        /* \"#utility.yul\":18890:18918   */\n      mstore\n        /* \"#utility.yul\":18705:18925   */\n      pop\n      jump\t// out\n        /* \"#utility.yul\":18931:19297   */\n    tag_208:\n        /* \"#utility.yul\":19073:19076   */\n      0x00\n        /* \"#utility.yul\":19094:19161   */\n      tag_418\n        /* \"#utility.yul\":19158:19160   */\n      0x21\n        /* \"#utility.yul\":19153:19156   */\n      dup4\n        /* \"#utility.yul\":19094:19161   */\n      tag_183\n      jump\t// in\n    tag_418:\n        /* \"#utility.yul\":19087:19161   */\n      swap2\n      pop\n        /* \"#utility.yul\":19170:19263   */\n      tag_419\n        /* \"#utility.yul\":19259:19262   */\n      dup3\n        /* \"#utility.yul\":19170:19263   */\n      tag_207\n      jump\t// in\n    tag_419:\n        /* \"#utility.yul\":19288:19290   */\n      0x40\n        /* \"#utility.yul\":19283:19286   */\n      dup3\n        /* \"#utility.yul\":19279:19291   */\n      add\n        /* \"#utility.yul\":19272:19291   */\n      swap1\n      pop\n        /* \"#utility.yul\":18931:19297   */\n      swap2\n      swap1\n      pop\n      jump\t// out\n        /* \"#utility.yul\":19303:19722   */\n    tag_96:\n        /* \"#utility.yul\":19469:19473   */\n      0x00\n        /* \"#utility.yul\":19507:19509   */\n      0x20\n        /* \"#utility.yul\":19496:19505   */\n      dup3\n        /* \"#utility.yul\":19492:19510   */\n      add\n        /* \"#utility.yul\":19484:19510   */\n      swap1\n      pop\n        /* \"#utility.yul\":19556:19565   */\n      dup2\n        /* \"#utility.yul\":19550:19554   */\n      dup2\n        /* \"#utility.yul\":19546:19566   */\n      sub\n        /* \"#utility.yul\":19542:19543   */\n      0x00\n        /* \"#utility.yul\":19531:19540   */\n      dup4\n        /* \"#utility.yul\":19527:19544   */\n      add\n        /* \"#utility.yul\":19520:19567   */\n      mstore\n        /* \"#utility.yul\":19584:19715   */\n      tag_421\n        /* \"#utility.yul\":19710:19714   */\n      dup2\n        /* \"#utility.yul\":19584:19715   */\n      tag_208\n      jump\t// in\n    tag_421:\n        /* \"#utility.yul\":19576:19715   */\n      swap1\n      pop\n        /* \"#utility.yul\":19303:19722   */\n      swap2\n      swap1\n      pop\n      jump\t// out\n        /* \"#utility.yul\":19728:19903   */\n    tag_209:\n        /* \"#utility.yul\":19868:19895   */\n      0x546f74616c2070657263656e7420657863656564732031303000000000000000\n        /* \"#utility.yul\":19864:19865   */\n      0x00\n        /* \"#utility.yul\":19856:19862   */\n      dup3\n        /* \"#utility.yul\":19852:19866   */\n      add\n        /* \"#utility.yul\":19845:19896   */\n      mstore\n        /* \"#utility.yul\":19728:19903   */\n      pop\n      jump\t// out\n        /* \"#utility.yul\":19909:20275   */\n    tag_210:\n        /* \"#utility.yul\":20051:20054   */\n      0x00\n        /* \"#utility.yul\":20072:20139   */\n      tag_424\n        /* \"#utility.yul\":20136:20138   */\n      0x19\n        /* \"#utility.yul\":20131:20134   */\n      dup4\n        /* \"#utility.yul\":20072:20139   */\n      tag_183\n      jump\t// in\n    tag_424:\n        /* \"#utility.yul\":20065:20139   */\n      swap2\n      pop\n        /* \"#utility.yul\":20148:20241   */\n      tag_425\n        /* \"#utility.yul\":20237:20240   */\n      dup3\n        /* \"#utility.yul\":20148:20241   */\n      tag_209\n      jump\t// in\n    tag_425:\n        /* \"#utility.yul\":20266:20268   */\n      0x20\n        /* \"#utility.yul\":20261:20264   */\n      dup3\n        /* \"#utility.yul\":20257:20269   */\n      add\n        /* \"#utility.yul\":20250:20269   */\n      swap1\n      pop\n        /* \"#utility.yul\":19909:20275   */\n      swap2\n      swap1\n      pop\n      jump\t// out\n        /* \"#utility.yul\":20281:20700   */\n    tag_107:\n        /* \"#utility.yul\":20447:20451   */\n      0x00\n        /* \"#utility.yul\":20485:20487   */\n      0x20\n        /* \"#utility.yul\":20474:20483   */\n      dup3\n        /* \"#utility.yul\":20470:20488   */\n      add\n        /* \"#utility.yul\":20462:20488   */\n      swap1\n      pop\n        /* \"#utility.yul\":20534:20543   */\n      dup2\n        /* \"#utility.yul\":20528:20532   */\n      dup2\n        /* \"#utility.yul\":20524:20544   */\n      sub\n        /* \"#utility.yul\":20520:20521   */\n      0x00\n        /* \"#utility.yul\":20509:20518   */\n      dup4\n        /* \"#utility.yul\":20505:20522   */\n      add\n        /* \"#utility.yul\":20498:20545   */\n      mstore\n        /* \"#utility.yul\":20562:20693   */\n      tag_427\n        /* \"#utility.yul\":20688:20692   */\n      dup2\n        /* \"#utility.yul\":20562:20693   */\n      tag_210\n      jump\t// in\n    tag_427:\n        /* \"#utility.yul\":20554:20693   */\n      swap1\n      pop\n        /* \"#utility.yul\":20281:20700   */\n      swap2\n      swap1\n      pop\n      jump\t// out\n        /* \"#utility.yul\":20706:22101   */\n    tag_119:\n        /* \"#utility.yul\":20823:20860   */\n      tag_429\n        /* \"#utility.yul\":20856:20859   */\n      dup3\n        /* \"#utility.yul\":20823:20860   */\n      tag_174\n      jump\t// in\n    tag_429:\n        /* \"#utility.yul\":20925:20943   */\n      0xffffffffffffffff\n        /* \"#utility.yul\":20917:20923   */\n      dup2\n        /* \"#utility.yul\":20914:20944   */\n      gt\n        /* \"#utility.yul\":20911:20967   */\n      iszero\n      tag_430\n      jumpi\n        /* \"#utility.yul\":20947:20965   */\n      tag_431\n      tag_161\n      jump\t// in\n    tag_431:\n        /* \"#utility.yul\":20911:20967   */\n    tag_430:\n        /* \"#utility.yul\":20991:21029   */\n      tag_432\n        /* \"#utility.yul\":21023:21027   */\n      dup3\n        /* \"#utility.yul\":21017:21028   */\n      sload\n        /* \"#utility.yul\":20991:21029   */\n      tag_125\n      jump\t// in\n    tag_432:\n        /* \"#utility.yul\":21076:21143   */\n      tag_433\n        /* \"#utility.yul\":21136:21142   */\n      dup3\n        /* \"#utility.yul\":21128:21134   */\n      dup3\n        /* \"#utility.yul\":21122:21126   */\n      dup6\n        /* \"#utility.yul\":21076:21143   */\n      tag_200\n      jump\t// in\n    tag_433:\n        /* \"#utility.yul\":21170:21171   */\n      0x00\n        /* \"#utility.yul\":21194:21198   */\n      0x20\n        /* \"#utility.yul\":21181:21198   */\n      swap1\n      pop\n        /* \"#utility.yul\":21226:21228   */\n      0x1f\n        /* \"#utility.yul\":21218:21224   */\n      dup4\n        /* \"#utility.yul\":21215:21229   */\n      gt\n        /* \"#utility.yul\":21243:21244   */\n      0x01\n        /* \"#utility.yul\":21238:21856   */\n      dup2\n      eq\n      tag_435\n      jumpi\n        /* \"#utility.yul\":21900:21901   */\n      0x00\n        /* \"#utility.yul\":21917:21923   */\n      dup5\n        /* \"#utility.yul\":21914:21991   */\n      iszero\n      tag_436\n      jumpi\n        /* \"#utility.yul\":21966:21975   */\n      dup3\n        /* \"#utility.yul\":21961:21964   */\n      dup8\n        /* \"#utility.yul\":21957:21976   */\n      add\n        /* \"#utility.yul\":21951:21977   */\n      mload\n        /* \"#utility.yul\":21942:21977   */\n      swap1\n      pop\n        /* \"#utility.yul\":21914:21991   */\n    tag_436:\n        /* \"#utility.yul\":22017:22084   */\n      tag_437\n        /* \"#utility.yul\":22077:22083   */\n      dup6\n        /* \"#utility.yul\":22070:22075   */\n      dup3\n        /* \"#utility.yul\":22017:22084   */\n      tag_203\n      jump\t// in\n    tag_437:\n        /* \"#utility.yul\":22011:22015   */\n      dup7\n        /* \"#utility.yul\":22004:22085   */\n      sstore\n        /* \"#utility.yul\":21873:22095   */\n      pop\n        /* \"#utility.yul\":21208:22095   */\n      jump(tag_434)\n        /* \"#utility.yul\":21238:21856   */\n    tag_435:\n        /* \"#utility.yul\":21290:21294   */\n      0x1f\n        /* \"#utility.yul\":21286:21295   */\n      not\n        /* \"#utility.yul\":21278:21284   */\n      dup5\n        /* \"#utility.yul\":21274:21296   */\n      and\n        /* \"#utility.yul\":21324:21361   */\n      tag_438\n        /* \"#utility.yul\":21356:21360   */\n      dup7\n        /* \"#utility.yul\":21324:21361   */\n      tag_189\n      jump\t// in\n    tag_438:\n        /* \"#utility.yul\":21383:21384   */\n      0x00\n        /* \"#utility.yul\":21397:21605   */\n    tag_439:\n        /* \"#utility.yul\":21411:21418   */\n      dup3\n        /* \"#utility.yul\":21408:21409   */\n      dup2\n        /* \"#utility.yul\":21405:21419   */\n      lt\n        /* \"#utility.yul\":21397:21605   */\n      iszero\n      tag_441\n      jumpi\n        /* \"#utility.yul\":21490:21499   */\n      dup5\n        /* \"#utility.yul\":21485:21488   */\n      dup10\n        /* \"#utility.yul\":21481:21500   */\n      add\n        /* \"#utility.yul\":21475:21501   */\n      mload\n        /* \"#utility.yul\":21467:21473   */\n      dup3\n        /* \"#utility.yul\":21460:21502   */\n      sstore\n        /* \"#utility.yul\":21541:21542   */\n      0x01\n        /* \"#utility.yul\":21533:21539   */\n      dup3\n        /* \"#utility.yul\":21529:21543   */\n      add\n        /* \"#utility.yul\":21519:21543   */\n      swap2\n      pop\n        /* \"#utility.yul\":21588:21590   */\n      0x20\n        /* \"#utility.yul\":21577:21586   */\n      dup6\n        /* \"#utility.yul\":21573:21591   */\n      add\n        /* \"#utility.yul\":21560:21591   */\n      swap5\n      pop\n        /* \"#utility.yul\":21434:21438   */\n      0x20\n        /* \"#utility.yul\":21431:21432   */\n      dup2\n        /* \"#utility.yul\":21427:21439   */\n      add\n        /* \"#utility.yul\":21422:21439   */\n      swap1\n      pop\n        /* \"#utility.yul\":21397:21605   */\n      jump(tag_439)\n    tag_441:\n        /* \"#utility.yul\":21633:21639   */\n      dup7\n        /* \"#utility.yul\":21624:21631   */\n      dup4\n        /* \"#utility.yul\":21621:21640   */\n      lt\n        /* \"#utility.yul\":21618:21797   */\n      iszero\n      tag_442\n      jumpi\n        /* \"#utility.yul\":21691:21700   */\n      dup5\n        /* \"#utility.yul\":21686:21689   */\n      dup10\n        /* \"#utility.yul\":21682:21701   */\n      add\n        /* \"#utility.yul\":21676:21702   */\n      mload\n        /* \"#utility.yul\":21734:21782   */\n      tag_443\n        /* \"#utility.yul\":21776:21780   */\n      0x1f\n        /* \"#utility.yul\":21768:21774   */\n      dup10\n        /* \"#utility.yul\":21764:21781   */\n      and\n        /* \"#utility.yul\":21753:21762   */\n      dup3\n        /* \"#utility.yul\":21734:21782   */\n      tag_202\n      jump\t// in\n    tag_443:\n        /* \"#utility.yul\":21726:21732   */\n      dup4\n        /* \"#utility.yul\":21719:21783   */\n      sstore\n        /* \"#utility.yul\":21641:21797   */\n      pop\n        /* \"#utility.yul\":21618:21797   */\n    tag_442:\n        /* \"#utility.yul\":21843:21844   */\n      0x01\n        /* \"#utility.yul\":21839:21840   */\n      0x02\n        /* \"#utility.yul\":21831:21837   */\n      dup9\n        /* \"#utility.yul\":21827:21841   */\n      mul\n        /* \"#utility.yul\":21823:21845   */\n      add\n        /* \"#utility.yul\":21817:21821   */\n      dup9\n        /* \"#utility.yul\":21810:21846   */\n      sstore\n        /* \"#utility.yul\":21245:21856   */\n      pop\n      pop\n      pop\n        /* \"#utility.yul\":21208:22095   */\n    tag_434:\n      pop\n        /* \"#utility.yul\":20798:22101   */\n      pop\n      pop\n      pop\n        /* \"#utility.yul\":20706:22101   */\n      pop\n      pop\n      jump\t// out\n        /* \"#utility.yul\":22107:22254   */\n    tag_211:\n        /* \"#utility.yul\":22208:22219   */\n      0x00\n        /* \"#utility.yul\":22245:22248   */\n      dup2\n        /* \"#utility.yul\":22230:22248   */\n      swap1\n      pop\n        /* \"#utility.yul\":22107:22254   */\n      swap3\n      swap2\n      pop\n      pop\n      jump\t// out\n        /* \"#utility.yul\":22260:22374   */\n    tag_212:\n      pop\n      jump\t// out\n        /* \"#utility.yul\":22380:22778   */\n    tag_213:\n        /* \"#utility.yul\":22539:22542   */\n      0x00\n        /* \"#utility.yul\":22560:22643   */\n      tag_447\n        /* \"#utility.yul\":22641:22642   */\n      0x00\n        /* \"#utility.yul\":22636:22639   */\n      dup4\n        /* \"#utility.yul\":22560:22643   */\n      tag_211\n      jump\t// in\n    tag_447:\n        /* \"#utility.yul\":22553:22643   */\n      swap2\n      pop\n        /* \"#utility.yul\":22652:22745   */\n      tag_448\n        /* \"#utility.yul\":22741:22744   */\n      dup3\n        /* \"#utility.yul\":22652:22745   */\n      tag_212\n      jump\t// in\n    tag_448:\n        /* \"#utility.yul\":22770:22771   */\n      0x00\n        /* \"#utility.yul\":22765:22768   */\n      dup3\n        /* \"#utility.yul\":22761:22772   */\n      add\n        /* \"#utility.yul\":22754:22772   */\n      swap1\n      pop\n        /* \"#utility.yul\":22380:22778   */\n      swap2\n      swap1\n      pop\n      jump\t// out\n        /* \"#utility.yul\":22784:23163   */\n    tag_132:\n        /* \"#utility.yul\":22968:22971   */\n      0x00\n        /* \"#utility.yul\":22990:23137   */\n      tag_450\n        /* \"#utility.yul\":23133:23136   */\n      dup3\n        /* \"#utility.yul\":22990:23137   */\n      tag_213\n      jump\t// in\n    tag_450:\n        /* \"#utility.yul\":22983:23137   */\n      swap2\n      pop\n        /* \"#utility.yul\":23154:23157   */\n      dup2\n        /* \"#utility.yul\":23147:23157   */\n      swap1\n      pop\n        /* \"#utility.yul\":22784:23163   */\n      swap2\n      swap1\n      pop\n      jump\t// out\n        /* \"#utility.yul\":23169:23335   */\n    tag_214:\n        /* \"#utility.yul\":23309:23327   */\n      0x5472616e73666572206661696c65642e00000000000000000000000000000000\n        /* \"#utility.yul\":23305:23306   */\n      0x00\n        /* \"#utility.yul\":23297:23303   */\n      dup3\n        /* \"#utility.yul\":23293:23307   */\n      add\n        /* \"#utility.yul\":23286:23328   */\n      mstore\n        /* \"#utility.yul\":23169:23335   */\n      pop\n      jump\t// out\n        /* \"#utility.yul\":23341:23707   */\n    tag_215:\n        /* \"#utility.yul\":23483:23486   */\n      0x00\n        /* \"#utility.yul\":23504:23571   */\n      tag_453\n        /* \"#utility.yul\":23568:23570   */\n      0x10\n        /* \"#utility.yul\":23563:23566   */\n      dup4\n        /* \"#utility.yul\":23504:23571   */\n      tag_183\n      jump\t// in\n    tag_453:\n        /* \"#utility.yul\":23497:23571   */\n      swap2\n      pop\n        /* \"#utility.yul\":23580:23673   */\n      tag_454\n        /* \"#utility.yul\":23669:23672   */\n      dup3\n        /* \"#utility.yul\":23580:23673   */\n      tag_214\n      jump\t// in\n    tag_454:\n        /* \"#utility.yul\":23698:23700   */\n      0x20\n        /* \"#utility.yul\":23693:23696   */\n      dup3\n        /* \"#utility.yul\":23689:23701   */\n      add\n        /* \"#utility.yul\":23682:23701   */\n      swap1\n      pop\n        /* \"#utility.yul\":23341:23707   */\n      swap2\n      swap1\n      pop\n      jump\t// out\n        /* \"#utility.yul\":23713:24132   */\n    tag_138:\n        /* \"#utility.yul\":23879:23883   */\n      0x00\n        /* \"#utility.yul\":23917:23919   */\n      0x20\n        /* \"#utility.yul\":23906:23915   */\n      dup3\n        /* \"#utility.yul\":23902:23920   */\n      add\n        /* \"#utility.yul\":23894:23920   */\n      swap1\n      pop\n        /* \"#utility.yul\":23966:23975   */\n      dup2\n        /* \"#utility.yul\":23960:23964   */\n      dup2\n        /* \"#utility.yul\":23956:23976   */\n      sub\n        /* \"#utility.yul\":23952:23953   */\n      0x00\n        /* \"#utility.yul\":23941:23950   */\n      dup4\n        /* \"#utility.yul\":23937:23954   */\n      add\n        /* \"#utility.yul\":23930:23977   */\n      mstore\n        /* \"#utility.yul\":23994:24125   */\n      tag_456\n        /* \"#utility.yul\":24120:24124   */\n      dup2\n        /* \"#utility.yul\":23994:24125   */\n      tag_215\n      jump\t// in\n    tag_456:\n        /* \"#utility.yul\":23986:24125   */\n      swap1\n      pop\n        /* \"#utility.yul\":23713:24132   */\n      swap2\n      swap1\n      pop\n      jump\t// out\n\n    auxdata: 0xa2646970667358221220e49713fde792c31c996b0e2fca7581b8da704db584a13161c7b53508fd2a229364736f6c634300081f0033\n}\n",
				"bytecode": {
					"linkReferences": {},
					"object": "6080604052348015600e575f5ffd5b50335f5f6101000a81548173ffffffffffffffffffffffffffffffffffffffff021916908373ffffffffffffffffffffffffffffffffffffffff16021790555061167c8061005b5f395ff3fe608060405260043610610054575f3560e01c80632a08deda14610058578063369a489d146100825780636e7301fd146100aa5780637943da69146100b4578063b499b79a146100ca578063e83a1b00146100f2575b5f5ffd5b348015610063575f5ffd5b5061006c61011c565b6040516100799190610a14565b60405180910390f35b34801561008d575f5ffd5b506100a860048036038101906100a39190610a98565b610123565b005b6100b26103b9565b005b3480156100bf575f5ffd5b506100c86103bb565b005b3480156100d5575f5ffd5b506100f060048036038101906100eb9190610c64565b6104bb565b005b3480156100fd575f5ffd5b506101066107ad565b6040516101139190610e56565b60405180910390f35b5f47905090565b5f5f9054906101000a900473ffffffffffffffffffffffffffffffffffffffff1673ffffffffffffffffffffffffffffffffffffffff163373ffffffffffffffffffffffffffffffffffffffff16146101b1576040517f08c379a00000000000000000000000000000000000000000000000000000000081526004016101a890610ed0565b60405180910390fd5b60018080549050106103b6575f5f90505b6001805490508110156103b4578173ffffffffffffffffffffffffffffffffffffffff16600182815481106101fa576101f9610eee565b5b905f5260205f2090600302015f015f9054906101000a900473ffffffffffffffffffffffffffffffffffffffff1673ffffffffffffffffffffffffffffffffffffffff16036103a7575f8190505b600180805490506102599190610f48565b81101561033d576001808261026e9190610f7b565b8154811061027f5761027e610eee565b5b905f5260205f2090600302016001828154811061029f5761029e610eee565b5b905f5260205f2090600302015f82015f9054906101000a900473ffffffffffffffffffffffffffffffffffffffff16815f015f6101000a81548173ffffffffffffffffffffffffffffffffffffffff021916908373ffffffffffffffffffffffffffffffffffffffff1602179055506001820181600101908161032291906111c0565b50600282015481600201559050508080600101915050610248565b5060018054806103505761034f6112a5565b5b600190038181905f5260205f2090600302015f5f82015f6101000a81549073ffffffffffffffffffffffffffffffffffffffff0219169055600182015f61039791906109a4565b600282015f9055505090556103b4565b80806001019150506101c2565b505b50565b565b5f47116103fd576040517f08c379a00000000000000000000000000000000000000000000000000000000081526004016103f49061131c565b60405180910390fd5b60018080549050106104b9575f4790505f5f90505b6001805490508110156104b6575f60646001838154811061043657610435610eee565b5b905f5260205f2090600302016002015484610451919061133a565b61045b91906113a8565b90506104a86001838154811061047457610473610eee565b5b905f5260205f2090600302015f015f9054906101000a900473ffffffffffffffffffffffffffffffffffffffff16826108f7565b508080600101915050610412565b50505b565b5f5f9054906101000a900473ffffffffffffffffffffffffffffffffffffffff1673ffffffffffffffffffffffffffffffffffffffff163373ffffffffffffffffffffffffffffffffffffffff1614610549576040517f08c379a000000000000000000000000000000000000000000000000000000000815260040161054090610ed0565b60405180910390fd5b606481111561058d576040517f08c379a000000000000000000000000000000000000000000000000000000000815260040161058490611448565b60405180910390fd5b5f5f90505f5f90505b6001805490508110156105e157600181815481106105b7576105b6610eee565b5b905f5260205f20906003020160020154826105d29190610f7b565b91508080600101915050610596565b50606482826105f09190610f7b565b1115610631576040517f08c379a0000000000000000000000000000000000000000000000000000000008152600401610628906114b0565b60405180910390fd5b5f5f905060018080549050106106db575f5f90505b6001805490508110156106d9578573ffffffffffffffffffffffffffffffffffffffff166001828154811061067e5761067d610eee565b5b905f5260205f2090600302015f015f9054906101000a900473ffffffffffffffffffffffffffffffffffffffff1673ffffffffffffffffffffffffffffffffffffffff16036106cc57600191505b8080600101915050610646565b505b5f1515811515036107a657600160405180606001604052808773ffffffffffffffffffffffffffffffffffffffff16815260200186815260200185815250908060018154018082558091505060019003905f5260205f2090600302015f909190919091505f820151815f015f6101000a81548173ffffffffffffffffffffffffffffffffffffffff021916908373ffffffffffffffffffffffffffffffffffffffff160217905550602082015181600101908161079891906114ce565b506040820151816002015550505b5050505050565b60606001805480602002602001604051908101604052809291908181526020015f905b828210156108ee578382905f5260205f2090600302016040518060600160405290815f82015f9054906101000a900473ffffffffffffffffffffffffffffffffffffffff1673ffffffffffffffffffffffffffffffffffffffff1673ffffffffffffffffffffffffffffffffffffffff16815260200160018201805461085590610fdb565b80601f016020809104026020016040519081016040528092919081815260200182805461088190610fdb565b80156108cc5780601f106108a3576101008083540402835291602001916108cc565b820191905f5260205f20905b8154815290600101906020018083116108af57829003601f168201915b50505050508152602001600282015481525050815260200190600101906107d0565b50505050905090565b5f8273ffffffffffffffffffffffffffffffffffffffff168260405161091c906115ca565b5f6040518083038185875af1925050503d805f8114610956576040519150601f19603f3d011682016040523d82523d5f602084013e61095b565b606091505b505090508061099f576040517f08c379a000000000000000000000000000000000000000000000000000000000815260040161099690611628565b60405180910390fd5b505050565b5080546109b090610fdb565b5f825580601f106109c157506109de565b601f0160209004905f5260205f20908101906109dd91906109e1565b5b50565b5b808211156109f8575f815f9055506001016109e2565b5090565b5f819050919050565b610a0e816109fc565b82525050565b5f602082019050610a275f830184610a05565b92915050565b5f604051905090565b5f5ffd5b5f5ffd5b5f73ffffffffffffffffffffffffffffffffffffffff82169050919050565b5f610a6782610a3e565b9050919050565b610a7781610a5d565b8114610a81575f5ffd5b50565b5f81359050610a9281610a6e565b92915050565b5f60208284031215610aad57610aac610a36565b5b5f610aba84828501610a84565b91505092915050565b5f610acd82610a3e565b9050919050565b610add81610ac3565b8114610ae7575f5ffd5b50565b5f81359050610af881610ad4565b92915050565b5f5ffd5b5f5ffd5b5f601f19601f8301169050919050565b7f4e487b71000000000000000000000000000000000000000000000000000000005f52604160045260245ffd5b610b4c82610b06565b810181811067ffffffffffffffff82111715610b6b57610b6a610b16565b5b80604052505050565b5f610b7d610a2d565b9050610b898282610b43565b919050565b5f67ffffffffffffffff821115610ba857610ba7610b16565b5b610bb182610b06565b9050602081019050919050565b828183375f83830152505050565b5f610bde610bd984610b8e565b610b74565b905082815260208101848484011115610bfa57610bf9610b02565b5b610c05848285610bbe565b509392505050565b5f82601f830112610c2157610c20610afe565b5b8135610c31848260208601610bcc565b91505092915050565b610c43816109fc565b8114610c4d575f5ffd5b50565b5f81359050610c5e81610c3a565b92915050565b5f5f5f60608486031215610c7b57610c7a610a36565b5b5f610c8886828701610aea565b935050602084013567ffffffffffffffff811115610ca957610ca8610a3a565b5b610cb586828701610c0d565b9250506040610cc686828701610c50565b9150509250925092565b5f81519050919050565b5f82825260208201905092915050565b5f819050602082019050919050565b610d0281610ac3565b82525050565b5f81519050919050565b5f82825260208201905092915050565b8281835e5f83830152505050565b5f610d3a82610d08565b610d448185610d12565b9350610d54818560208601610d22565b610d5d81610b06565b840191505092915050565b610d71816109fc565b82525050565b5f606083015f830151610d8c5f860182610cf9565b5060208301518482036020860152610da48282610d30565b9150506040830151610db96040860182610d68565b508091505092915050565b5f610dcf8383610d77565b905092915050565b5f602082019050919050565b5f610ded82610cd0565b610df78185610cda565b935083602082028501610e0985610cea565b805f5b85811015610e445784840389528151610e258582610dc4565b9450610e3083610dd7565b925060208a01995050600181019050610e0c565b50829750879550505050505092915050565b5f6020820190508181035f830152610e6e8184610de3565b905092915050565b5f82825260208201905092915050565b7f4f6e6c79206f776e65722063616e2063616c6c000000000000000000000000005f82015250565b5f610eba601383610e76565b9150610ec582610e86565b602082019050919050565b5f6020820190508181035f830152610ee781610eae565b9050919050565b7f4e487b71000000000000000000000000000000000000000000000000000000005f52603260045260245ffd5b7f4e487b71000000000000000000000000000000000000000000000000000000005f52601160045260245ffd5b5f610f52826109fc565b9150610f5d836109fc565b9250828203905081811115610f7557610f74610f1b565b5b92915050565b5f610f85826109fc565b9150610f90836109fc565b9250828201905080821115610fa857610fa7610f1b565b5b92915050565b7f4e487b71000000000000000000000000000000000000000000000000000000005f52602260045260245ffd5b5f6002820490506001821680610ff257607f821691505b60208210810361100557611004610fae565b5b50919050565b5f8154905061101981610fdb565b9050919050565b5f819050815f5260205f209050919050565b5f6020601f8301049050919050565b5f82821b905092915050565b5f6008830261107c7fffffffffffffffffffffffffffffffffffffffffffffffffffffffffffffffff82611041565b6110868683611041565b95508019841693508086168417925050509392505050565b5f819050919050565b5f6110c16110bc6110b7846109fc565b61109e565b6109fc565b9050919050565b5f819050919050565b6110da836110a7565b6110ee6110e6826110c8565b84845461104d565b825550505050565b5f5f905090565b6111056110f6565b6111108184846110d1565b505050565b5b81811015611133576111285f826110fd565b600181019050611116565b5050565b601f8211156111785761114981611020565b61115284611032565b81016020851015611161578190505b61117561116d85611032565b830182611115565b50505b505050565b5f82821c905092915050565b5f6111985f198460080261117d565b1980831691505092915050565b5f6111b08383611189565b9150826002028217905092915050565b8181036111ce5750506112a3565b6111d78261100b565b67ffffffffffffffff8111156111f0576111ef610b16565b5b6111fa8254610fdb565b611205828285611137565b5f601f831160018114611232575f8415611220578287015490505b61122a85826111a5565b86555061129c565b601f19841661124087611020565b965061124b86611020565b5f5b828110156112725784890154825560018201915060018501945060208101905061124d565b8683101561128f578489015461128b601f891682611189565b8355505b6001600288020188555050505b5050505050505b565b7f4e487b71000000000000000000000000000000000000000000000000000000005f52603160045260245ffd5b7f4e6f204d6f6e65790000000000000000000000000000000000000000000000005f82015250565b5f611306600883610e76565b9150611311826112d2565b602082019050919050565b5f6020820190508181035f830152611333816112fa565b9050919050565b5f611344826109fc565b915061134f836109fc565b925082820261135d816109fc565b9150828204841483151761137457611373610f1b565b5b5092915050565b7f4e487b71000000000000000000000000000000000000000000000000000000005f52601260045260245ffd5b5f6113b2826109fc565b91506113bd836109fc565b9250826113cd576113cc61137b565b5b828204905092915050565b7f50657263656e742063616e27742062652067726561746572207468616e2031305f8201527f3000000000000000000000000000000000000000000000000000000000000000602082015250565b5f611432602183610e76565b915061143d826113d8565b604082019050919050565b5f6020820190508181035f83015261145f81611426565b9050919050565b7f546f74616c2070657263656e74206578636565647320313030000000000000005f82015250565b5f61149a601983610e76565b91506114a582611466565b602082019050919050565b5f6020820190508181035f8301526114c78161148e565b9050919050565b6114d782610d08565b67ffffffffffffffff8111156114f0576114ef610b16565b5b6114fa8254610fdb565b611505828285611137565b5f60209050601f831160018114611536575f8415611524578287015190505b61152e85826111a5565b865550611595565b601f19841661154486611020565b5f5b8281101561156b57848901518255600182019150602085019450602081019050611546565b868310156115885784890151611584601f891682611189565b8355505b6001600288020188555050505b505050505050565b5f81905092915050565b50565b5f6115b55f8361159d565b91506115c0826115a7565b5f82019050919050565b5f6115d4826115aa565b9150819050919050565b7f5472616e73666572206661696c65642e000000000000000000000000000000005f82015250565b5f611612601083610e76565b915061161d826115de565b602082019050919050565b5f6020820190508181035f83015261163f81611606565b905091905056fea2646970667358221220e49713fde792c31c996b0e2fca7581b8da704db584a13161c7b53508fd2a229364736f6c634300081f0033",
					"opcodes": "PUSH1 0x80 PUSH1 0x40 MSTORE CALLVALUE DUP1 ISZERO PUSH1 0xE JUMPI PUSH0 PUSH0 REVERT JUMPDEST POP CALLER PUSH0 PUSH0 PUSH2 0x100 EXP DUP2 SLOAD DUP2 PUSH20 0xFFFFFFFFFFFFFFFFFFFFFFFFFFFFFFFFFFFFFFFF MUL NOT AND SWAP1 DUP4 PUSH20 0xFFFFFFFFFFFFFFFFFFFFFFFFFFFFFFFFFFFFFFFF AND MUL OR SWAP1 SSTORE POP PUSH2 0x167C DUP1 PUSH2 0x5B PUSH0 CODECOPY PUSH0 RETURN INVALID PUSH1 0x80 PUSH1 0x40 MSTORE PUSH1 0x4 CALLDATASIZE LT PUSH2 0x54 JUMPI PUSH0 CALLDATALOAD PUSH1 0xE0 SHR DUP1 PUSH4 0x2A08DEDA EQ PUSH2 0x58 JUMPI DUP1 PUSH4 0x369A489D EQ PUSH2 0x82 JUMPI DUP1 PUSH4 0x6E7301FD EQ PUSH2 0xAA JUMPI DUP1 PUSH4 0x7943DA69 EQ PUSH2 0xB4 JUMPI DUP1 PUSH4 0xB499B79A EQ PUSH2 0xCA JUMPI DUP1 PUSH4 0xE83A1B00 EQ PUSH2 0xF2 JUMPI JUMPDEST PUSH0 PUSH0 REVERT JUMPDEST CALLVALUE DUP1 ISZERO PUSH2 0x63 JUMPI PUSH0 PUSH0 REVERT JUMPDEST POP PUSH2 0x6C PUSH2 0x11C JUMP JUMPDEST PUSH1 0x40 MLOAD PUSH2 0x79 SWAP2 SWAP1 PUSH2 0xA14 JUMP JUMPDEST PUSH1 0x40 MLOAD DUP1 SWAP2 SUB SWAP1 RETURN JUMPDEST CALLVALUE DUP1 ISZERO PUSH2 0x8D JUMPI PUSH0 PUSH0 REVERT JUMPDEST POP PUSH2 0xA8 PUSH1 0x4 DUP1 CALLDATASIZE SUB DUP2 ADD SWAP1 PUSH2 0xA3 SWAP2 SWAP1 PUSH2 0xA98 JUMP JUMPDEST PUSH2 0x123 JUMP JUMPDEST STOP JUMPDEST PUSH2 0xB2 PUSH2 0x3B9 JUMP JUMPDEST STOP JUMPDEST CALLVALUE DUP1 ISZERO PUSH2 0xBF JUMPI PUSH0 PUSH0 REVERT JUMPDEST POP PUSH2 0xC8 PUSH2 0x3BB JUMP JUMPDEST STOP JUMPDEST CALLVALUE DUP1 ISZERO PUSH2 0xD5 JUMPI PUSH0 PUSH0 REVERT JUMPDEST POP PUSH2 0xF0 PUSH1 0x4 DUP1 CALLDATASIZE SUB DUP2 ADD SWAP1 PUSH2 0xEB SWAP2 SWAP1 PUSH2 0xC64 JUMP JUMPDEST PUSH2 0x4BB JUMP JUMPDEST STOP JUMPDEST CALLVALUE DUP1 ISZERO PUSH2 0xFD JUMPI PUSH0 PUSH0 REVERT JUMPDEST POP PUSH2 0x106 PUSH2 0x7AD JUMP JUMPDEST PUSH1 0x40 MLOAD PUSH2 0x113 SWAP2 SWAP1 PUSH2 0xE56 JUMP JUMPDEST PUSH1 0x40 MLOAD DUP1 SWAP2 SUB SWAP1 RETURN JUMPDEST PUSH0 SELFBALANCE SWAP1 POP SWAP1 JUMP JUMPDEST PUSH0 PUSH0 SWAP1 SLOAD SWAP1 PUSH2 0x100 EXP SWAP1 DIV PUSH20 0xFFFFFFFFFFFFFFFFFFFFFFFFFFFFFFFFFFFFFFFF AND PUSH20 0xFFFFFFFFFFFFFFFFFFFFFFFFFFFFFFFFFFFFFFFF AND CALLER PUSH20 0xFFFFFFFFFFFFFFFFFFFFFFFFFFFFFFFFFFFFFFFF AND EQ PUSH2 0x1B1 JUMPI PUSH1 0x40 MLOAD PUSH32 0x8C379A000000000000000000000000000000000000000000000000000000000 DUP2 MSTORE PUSH1 0x4 ADD PUSH2 0x1A8 SWAP1 PUSH2 0xED0 JUMP JUMPDEST PUSH1 0x40 MLOAD DUP1 SWAP2 SUB SWAP1 REVERT JUMPDEST PUSH1 0x1 DUP1 DUP1 SLOAD SWAP1 POP LT PUSH2 0x3B6 JUMPI PUSH0 PUSH0 SWAP1 POP JUMPDEST PUSH1 0x1 DUP1 SLOAD SWAP1 POP DUP2 LT ISZERO PUSH2 0x3B4 JUMPI DUP2 PUSH20 0xFFFFFFFFFFFFFFFFFFFFFFFFFFFFFFFFFFFFFFFF AND PUSH1 0x1 DUP3 DUP2 SLOAD DUP2 LT PUSH2 0x1FA JUMPI PUSH2 0x1F9 PUSH2 0xEEE JUMP JUMPDEST JUMPDEST SWAP1 PUSH0 MSTORE PUSH1 0x20 PUSH0 KECCAK256 SWAP1 PUSH1 0x3 MUL ADD PUSH0 ADD PUSH0 SWAP1 SLOAD SWAP1 PUSH2 0x100 EXP SWAP1 DIV PUSH20 0xFFFFFFFFFFFFFFFFFFFFFFFFFFFFFFFFFFFFFFFF AND PUSH20 0xFFFFFFFFFFFFFFFFFFFFFFFFFFFFFFFFFFFFFFFF AND SUB PUSH2 0x3A7 JUMPI PUSH0 DUP2 SWAP1 POP JUMPDEST PUSH1 0x1 DUP1 DUP1 SLOAD SWAP1 POP PUSH2 0x259 SWAP2 SWAP1 PUSH2 0xF48 JUMP JUMPDEST DUP2 LT ISZERO PUSH2 0x33D JUMPI PUSH1 0x1 DUP1 DUP3 PUSH2 0x26E SWAP2 SWAP1 PUSH2 0xF7B JUMP JUMPDEST DUP2 SLOAD DUP2 LT PUSH2 0x27F JUMPI PUSH2 0x27E PUSH2 0xEEE JUMP JUMPDEST JUMPDEST SWAP1 PUSH0 MSTORE PUSH1 0x20 PUSH0 KECCAK256 SWAP1 PUSH1 0x3 MUL ADD PUSH1 0x1 DUP3 DUP2 SLOAD DUP2 LT PUSH2 0x29F JUMPI PUSH2 0x29E PUSH2 0xEEE JUMP JUMPDEST JUMPDEST SWAP1 PUSH0 MSTORE PUSH1 0x20 PUSH0 KECCAK256 SWAP1 PUSH1 0x3 MUL ADD PUSH0 DUP3 ADD PUSH0 SWAP1 SLOAD SWAP1 PUSH2 0x100 EXP SWAP1 DIV PUSH20 0xFFFFFFFFFFFFFFFFFFFFFFFFFFFFFFFFFFFFFFFF AND DUP2 PUSH0 ADD PUSH0 PUSH2 0x100 EXP DUP2 SLOAD DUP2 PUSH20 0xFFFFFFFFFFFFFFFFFFFFFFFFFFFFFFFFFFFFFFFF MUL NOT AND SWAP1 DUP4 PUSH20 0xFFFFFFFFFFFFFFFFFFFFFFFFFFFFFFFFFFFFFFFF AND MUL OR SWAP1 SSTORE POP PUSH1 0x1 DUP3 ADD DUP2 PUSH1 0x1 ADD SWAP1 DUP2 PUSH2 0x322 SWAP2 SWAP1 PUSH2 0x11C0 JUMP JUMPDEST POP PUSH1 0x2 DUP3 ADD SLOAD DUP2 PUSH1 0x2 ADD SSTORE SWAP1 POP POP DUP1 DUP1 PUSH1 0x1 ADD SWAP2 POP POP PUSH2 0x248 JUMP JUMPDEST POP PUSH1 0x1 DUP1 SLOAD DUP1 PUSH2 0x350 JUMPI PUSH2 0x34F PUSH2 0x12A5 JUMP JUMPDEST JUMPDEST PUSH1 0x1 SWAP1 SUB DUP2 DUP2 SWAP1 PUSH0 MSTORE PUSH1 0x20 PUSH0 KECCAK256 SWAP1 PUSH1 0x3 MUL ADD PUSH0 PUSH0 DUP3 ADD PUSH0 PUSH2 0x100 EXP DUP2 SLOAD SWAP1 PUSH20 0xFFFFFFFFFFFFFFFFFFFFFFFFFFFFFFFFFFFFFFFF MUL NOT AND SWAP1 SSTORE PUSH1 0x1 DUP3 ADD PUSH0 PUSH2 0x397 SWAP2 SWAP1 PUSH2 0x9A4 JUMP JUMPDEST PUSH1 0x2 DUP3 ADD PUSH0 SWAP1 SSTORE POP POP SWAP1 SSTORE PUSH2 0x3B4 JUMP JUMPDEST DUP1 DUP1 PUSH1 0x1 ADD SWAP2 POP POP PUSH2 0x1C2 JUMP JUMPDEST POP JUMPDEST POP JUMP JUMPDEST JUMP JUMPDEST PUSH0 SELFBALANCE GT PUSH2 0x3FD JUMPI PUSH1 0x40 MLOAD PUSH32 0x8C379A000000000000000000000000000000000000000000000000000000000 DUP2 MSTORE PUSH1 0x4 ADD PUSH2 0x3F4 SWAP1 PUSH2 0x131C JUMP JUMPDEST PUSH1 0x40 MLOAD DUP1 SWAP2 SUB SWAP1 REVERT JUMPDEST PUSH1 0x1 DUP1 DUP1 SLOAD SWAP1 POP LT PUSH2 0x4B9 JUMPI PUSH0 SELFBALANCE SWAP1 POP PUSH0 PUSH0 SWAP1 POP JUMPDEST PUSH1 0x1 DUP1 SLOAD SWAP1 POP DUP2 LT ISZERO PUSH2 0x4B6 JUMPI PUSH0 PUSH1 0x64 PUSH1 0x1 DUP4 DUP2 SLOAD DUP2 LT PUSH2 0x436 JUMPI PUSH2 0x435 PUSH2 0xEEE JUMP JUMPDEST JUMPDEST SWAP1 PUSH0 MSTORE PUSH1 0x20 PUSH0 KECCAK256 SWAP1 PUSH1 0x3 MUL ADD PUSH1 0x2 ADD SLOAD DUP5 PUSH2 0x451 SWAP2 SWAP1 PUSH2 0x133A JUMP JUMPDEST PUSH2 0x45B SWAP2 SWAP1 PUSH2 0x13A8 JUMP JUMPDEST SWAP1 POP PUSH2 0x4A8 PUSH1 0x1 DUP4 DUP2 SLOAD DUP2 LT PUSH2 0x474 JUMPI PUSH2 0x473 PUSH2 0xEEE JUMP JUMPDEST JUMPDEST SWAP1 PUSH0 MSTORE PUSH1 0x20 PUSH0 KECCAK256 SWAP1 PUSH1 0x3 MUL ADD PUSH0 ADD PUSH0 SWAP1 SLOAD SWAP1 PUSH2 0x100 EXP SWAP1 DIV PUSH20 0xFFFFFFFFFFFFFFFFFFFFFFFFFFFFFFFFFFFFFFFF AND DUP3 PUSH2 0x8F7 JUMP JUMPDEST POP DUP1 DUP1 PUSH1 0x1 ADD SWAP2 POP POP PUSH2 0x412 JUMP JUMPDEST POP POP JUMPDEST JUMP JUMPDEST PUSH0 PUSH0 SWAP1 SLOAD SWAP1 PUSH2 0x100 EXP SWAP1 DIV PUSH20 0xFFFFFFFFFFFFFFFFFFFFFFFFFFFFFFFFFFFFFFFF AND PUSH20 0xFFFFFFFFFFFFFFFFFFFFFFFFFFFFFFFFFFFFFFFF AND CALLER PUSH20 0xFFFFFFFFFFFFFFFFFFFFFFFFFFFFFFFFFFFFFFFF AND EQ PUSH2 0x549 JUMPI PUSH1 0x40 MLOAD PUSH32 0x8C379A000000000000000000000000000000000000000000000000000000000 DUP2 MSTORE PUSH1 0x4 ADD PUSH2 0x540 SWAP1 PUSH2 0xED0 JUMP JUMPDEST PUSH1 0x40 MLOAD DUP1 SWAP2 SUB SWAP1 REVERT JUMPDEST PUSH1 0x64 DUP2 GT ISZERO PUSH2 0x58D JUMPI PUSH1 0x40 MLOAD PUSH32 0x8C379A000000000000000000000000000000000000000000000000000000000 DUP2 MSTORE PUSH1 0x4 ADD PUSH2 0x584 SWAP1 PUSH2 0x1448 JUMP JUMPDEST PUSH1 0x40 MLOAD DUP1 SWAP2 SUB SWAP1 REVERT JUMPDEST PUSH0 PUSH0 SWAP1 POP PUSH0 PUSH0 SWAP1 POP JUMPDEST PUSH1 0x1 DUP1 SLOAD SWAP1 POP DUP2 LT ISZERO PUSH2 0x5E1 JUMPI PUSH1 0x1 DUP2 DUP2 SLOAD DUP2 LT PUSH2 0x5B7 JUMPI PUSH2 0x5B6 PUSH2 0xEEE JUMP JUMPDEST JUMPDEST SWAP1 PUSH0 MSTORE PUSH1 0x20 PUSH0 KECCAK256 SWAP1 PUSH1 0x3 MUL ADD PUSH1 0x2 ADD SLOAD DUP3 PUSH2 0x5D2 SWAP2 SWAP1 PUSH2 0xF7B JUMP JUMPDEST SWAP2 POP DUP1 DUP1 PUSH1 0x1 ADD SWAP2 POP POP PUSH2 0x596 JUMP JUMPDEST POP PUSH1 0x64 DUP3 DUP3 PUSH2 0x5F0 SWAP2 SWAP1 PUSH2 0xF7B JUMP JUMPDEST GT ISZERO PUSH2 0x631 JUMPI PUSH1 0x40 MLOAD PUSH32 0x8C379A000000000000000000000000000000000000000000000000000000000 DUP2 MSTORE PUSH1 0x4 ADD PUSH2 0x628 SWAP1 PUSH2 0x14B0 JUMP JUMPDEST PUSH1 0x40 MLOAD DUP1 SWAP2 SUB SWAP1 REVERT JUMPDEST PUSH0 PUSH0 SWAP1 POP PUSH1 0x1 DUP1 DUP1 SLOAD SWAP1 POP LT PUSH2 0x6DB JUMPI PUSH0 PUSH0 SWAP1 POP JUMPDEST PUSH1 0x1 DUP1 SLOAD SWAP1 POP DUP2 LT ISZERO PUSH2 0x6D9 JUMPI DUP6 PUSH20 0xFFFFFFFFFFFFFFFFFFFFFFFFFFFFFFFFFFFFFFFF AND PUSH1 0x1 DUP3 DUP2 SLOAD DUP2 LT PUSH2 0x67E JUMPI PUSH2 0x67D PUSH2 0xEEE JUMP JUMPDEST JUMPDEST SWAP1 PUSH0 MSTORE PUSH1 0x20 PUSH0 KECCAK256 SWAP1 PUSH1 0x3 MUL ADD PUSH0 ADD PUSH0 SWAP1 SLOAD SWAP1 PUSH2 0x100 EXP SWAP1 DIV PUSH20 0xFFFFFFFFFFFFFFFFFFFFFFFFFFFFFFFFFFFFFFFF AND PUSH20 0xFFFFFFFFFFFFFFFFFFFFFFFFFFFFFFFFFFFFFFFF AND SUB PUSH2 0x6CC JUMPI PUSH1 0x1 SWAP2 POP JUMPDEST DUP1 DUP1 PUSH1 0x1 ADD SWAP2 POP POP PUSH2 0x646 JUMP JUMPDEST POP JUMPDEST PUSH0 ISZERO ISZERO DUP2 ISZERO ISZERO SUB PUSH2 0x7A6 JUMPI PUSH1 0x1 PUSH1 0x40 MLOAD DUP1 PUSH1 0x60 ADD PUSH1 0x40 MSTORE DUP1 DUP8 PUSH20 0xFFFFFFFFFFFFFFFFFFFFFFFFFFFFFFFFFFFFFFFF AND DUP2 MSTORE PUSH1 0x20 ADD DUP7 DUP2 MSTORE PUSH1 0x20 ADD DUP6 DUP2 MSTORE POP SWAP1 DUP1 PUSH1 0x1 DUP2 SLOAD ADD DUP1 DUP3 SSTORE DUP1 SWAP2 POP POP PUSH1 0x1 SWAP1 SUB SWAP1 PUSH0 MSTORE PUSH1 0x20 PUSH0 KECCAK256 SWAP1 PUSH1 0x3 MUL ADD PUSH0 SWAP1 SWAP2 SWAP1 SWAP2 SWAP1 SWAP2 POP PUSH0 DUP3 ADD MLOAD DUP2 PUSH0 ADD PUSH0 PUSH2 0x100 EXP DUP2 SLOAD DUP2 PUSH20 0xFFFFFFFFFFFFFFFFFFFFFFFFFFFFFFFFFFFFFFFF MUL NOT AND SWAP1 DUP4 PUSH20 0xFFFFFFFFFFFFFFFFFFFFFFFFFFFFFFFFFFFFFFFF AND MUL OR SWAP1 SSTORE POP PUSH1 0x20 DUP3 ADD MLOAD DUP2 PUSH1 0x1 ADD SWAP1 DUP2 PUSH2 0x798 SWAP2 SWAP1 PUSH2 0x14CE JUMP JUMPDEST POP PUSH1 0x40 DUP3 ADD MLOAD DUP2 PUSH1 0x2 ADD SSTORE POP POP JUMPDEST POP POP POP POP POP JUMP JUMPDEST PUSH1 0x60 PUSH1 0x1 DUP1 SLOAD DUP1 PUSH1 0x20 MUL PUSH1 0x20 ADD PUSH1 0x40 MLOAD SWAP1 DUP2 ADD PUSH1 0x40 MSTORE DUP1 SWAP3 SWAP2 SWAP1 DUP2 DUP2 MSTORE PUSH1 0x20 ADD PUSH0 SWAP1 JUMPDEST DUP3 DUP3 LT ISZERO PUSH2 0x8EE JUMPI DUP4 DUP3 SWAP1 PUSH0 MSTORE PUSH1 0x20 PUSH0 KECCAK256 SWAP1 PUSH1 0x3 MUL ADD PUSH1 0x40 MLOAD DUP1 PUSH1 0x60 ADD PUSH1 0x40 MSTORE SWAP1 DUP2 PUSH0 DUP3 ADD PUSH0 SWAP1 SLOAD SWAP1 PUSH2 0x100 EXP SWAP1 DIV PUSH20 0xFFFFFFFFFFFFFFFFFFFFFFFFFFFFFFFFFFFFFFFF AND PUSH20 0xFFFFFFFFFFFFFFFFFFFFFFFFFFFFFFFFFFFFFFFF AND PUSH20 0xFFFFFFFFFFFFFFFFFFFFFFFFFFFFFFFFFFFFFFFF AND DUP2 MSTORE PUSH1 0x20 ADD PUSH1 0x1 DUP3 ADD DUP1 SLOAD PUSH2 0x855 SWAP1 PUSH2 0xFDB JUMP JUMPDEST DUP1 PUSH1 0x1F ADD PUSH1 0x20 DUP1 SWAP2 DIV MUL PUSH1 0x20 ADD PUSH1 0x40 MLOAD SWAP1 DUP2 ADD PUSH1 0x40 MSTORE DUP1 SWAP3 SWAP2 SWAP1 DUP2 DUP2 MSTORE PUSH1 0x20 ADD DUP3 DUP1 SLOAD PUSH2 0x881 SWAP1 PUSH2 0xFDB JUMP JUMPDEST DUP1 ISZERO PUSH2 0x8CC JUMPI DUP1 PUSH1 0x1F LT PUSH2 0x8A3 JUMPI PUSH2 0x100 DUP1 DUP4 SLOAD DIV MUL DUP4 MSTORE SWAP2 PUSH1 0x20 ADD SWAP2 PUSH2 0x8CC JUMP JUMPDEST DUP3 ADD SWAP2 SWAP1 PUSH0 MSTORE PUSH1 0x20 PUSH0 KECCAK256 SWAP1 JUMPDEST DUP2 SLOAD DUP2 MSTORE SWAP1 PUSH1 0x1 ADD SWAP1 PUSH1 0x20 ADD DUP1 DUP4 GT PUSH2 0x8AF JUMPI DUP3 SWAP1 SUB PUSH1 0x1F AND DUP3 ADD SWAP2 JUMPDEST POP POP POP POP POP DUP2 MSTORE PUSH1 0x20 ADD PUSH1 0x2 DUP3 ADD SLOAD DUP2 MSTORE POP POP DUP2 MSTORE PUSH1 0x20 ADD SWAP1 PUSH1 0x1 ADD SWAP1 PUSH2 0x7D0 JUMP JUMPDEST POP POP POP POP SWAP1 POP SWAP1 JUMP JUMPDEST PUSH0 DUP3 PUSH20 0xFFFFFFFFFFFFFFFFFFFFFFFFFFFFFFFFFFFFFFFF AND DUP3 PUSH1 0x40 MLOAD PUSH2 0x91C SWAP1 PUSH2 0x15CA JUMP JUMPDEST PUSH0 PUSH1 0x40 MLOAD DUP1 DUP4 SUB DUP2 DUP6 DUP8 GAS CALL SWAP3 POP POP POP RETURNDATASIZE DUP1 PUSH0 DUP2 EQ PUSH2 0x956 JUMPI PUSH1 0x40 MLOAD SWAP2 POP PUSH1 0x1F NOT PUSH1 0x3F RETURNDATASIZE ADD AND DUP3 ADD PUSH1 0x40 MSTORE RETURNDATASIZE DUP3 MSTORE RETURNDATASIZE PUSH0 PUSH1 0x20 DUP5 ADD RETURNDATACOPY PUSH2 0x95B JUMP JUMPDEST PUSH1 0x60 SWAP2 POP JUMPDEST POP POP SWAP1 POP DUP1 PUSH2 0x99F JUMPI PUSH1 0x40 MLOAD PUSH32 0x8C379A000000000000000000000000000000000000000000000000000000000 DUP2 MSTORE PUSH1 0x4 ADD PUSH2 0x996 SWAP1 PUSH2 0x1628 JUMP JUMPDEST PUSH1 0x40 MLOAD DUP1 SWAP2 SUB SWAP1 REVERT JUMPDEST POP POP POP JUMP JUMPDEST POP DUP1 SLOAD PUSH2 0x9B0 SWAP1 PUSH2 0xFDB JUMP JUMPDEST PUSH0 DUP3 SSTORE DUP1 PUSH1 0x1F LT PUSH2 0x9C1 JUMPI POP PUSH2 0x9DE JUMP JUMPDEST PUSH1 0x1F ADD PUSH1 0x20 SWAP1 DIV SWAP1 PUSH0 MSTORE PUSH1 0x20 PUSH0 KECCAK256 SWAP1 DUP2 ADD SWAP1 PUSH2 0x9DD SWAP2 SWAP1 PUSH2 0x9E1 JUMP JUMPDEST JUMPDEST POP JUMP JUMPDEST JUMPDEST DUP1 DUP3 GT ISZERO PUSH2 0x9F8 JUMPI PUSH0 DUP2 PUSH0 SWAP1 SSTORE POP PUSH1 0x1 ADD PUSH2 0x9E2 JUMP JUMPDEST POP SWAP1 JUMP JUMPDEST PUSH0 DUP2 SWAP1 POP SWAP2 SWAP1 POP JUMP JUMPDEST PUSH2 0xA0E DUP2 PUSH2 0x9FC JUMP JUMPDEST DUP3 MSTORE POP POP JUMP JUMPDEST PUSH0 PUSH1 0x20 DUP3 ADD SWAP1 POP PUSH2 0xA27 PUSH0 DUP4 ADD DUP5 PUSH2 0xA05 JUMP JUMPDEST SWAP3 SWAP2 POP POP JUMP JUMPDEST PUSH0 PUSH1 0x40 MLOAD SWAP1 POP SWAP1 JUMP JUMPDEST PUSH0 PUSH0 REVERT JUMPDEST PUSH0 PUSH0 REVERT JUMPDEST PUSH0 PUSH20 0xFFFFFFFFFFFFFFFFFFFFFFFFFFFFFFFFFFFFFFFF DUP3 AND SWAP1 POP SWAP2 SWAP1 POP JUMP JUMPDEST PUSH0 PUSH2 0xA67 DUP3 PUSH2 0xA3E JUMP JUMPDEST SWAP1 POP SWAP2 SWAP1 POP JUMP JUMPDEST PUSH2 0xA77 DUP2 PUSH2 0xA5D JUMP JUMPDEST DUP2 EQ PUSH2 0xA81 JUMPI PUSH0 PUSH0 REVERT JUMPDEST POP JUMP JUMPDEST PUSH0 DUP2 CALLDATALOAD SWAP1 POP PUSH2 0xA92 DUP2 PUSH2 0xA6E JUMP JUMPDEST SWAP3 SWAP2 POP POP JUMP JUMPDEST PUSH0 PUSH1 0x20 DUP3 DUP5 SUB SLT ISZERO PUSH2 0xAAD JUMPI PUSH2 0xAAC PUSH2 0xA36 JUMP JUMPDEST JUMPDEST PUSH0 PUSH2 0xABA DUP5 DUP3 DUP6 ADD PUSH2 0xA84 JUMP JUMPDEST SWAP2 POP POP SWAP3 SWAP2 POP POP JUMP JUMPDEST PUSH0 PUSH2 0xACD DUP3 PUSH2 0xA3E JUMP JUMPDEST SWAP1 POP SWAP2 SWAP1 POP JUMP JUMPDEST PUSH2 0xADD DUP2 PUSH2 0xAC3 JUMP JUMPDEST DUP2 EQ PUSH2 0xAE7 JUMPI PUSH0 PUSH0 REVERT JUMPDEST POP JUMP JUMPDEST PUSH0 DUP2 CALLDATALOAD SWAP1 POP PUSH2 0xAF8 DUP2 PUSH2 0xAD4 JUMP JUMPDEST SWAP3 SWAP2 POP POP JUMP JUMPDEST PUSH0 PUSH0 REVERT JUMPDEST PUSH0 PUSH0 REVERT JUMPDEST PUSH0 PUSH1 0x1F NOT PUSH1 0x1F DUP4 ADD AND SWAP1 POP SWAP2 SWAP1 POP JUMP JUMPDEST PUSH32 0x4E487B7100000000000000000000000000000000000000000000000000000000 PUSH0 MSTORE PUSH1 0x41 PUSH1 0x4 MSTORE PUSH1 0x24 PUSH0 REVERT JUMPDEST PUSH2 0xB4C DUP3 PUSH2 0xB06 JUMP JUMPDEST DUP2 ADD DUP2 DUP2 LT PUSH8 0xFFFFFFFFFFFFFFFF DUP3 GT OR ISZERO PUSH2 0xB6B JUMPI PUSH2 0xB6A PUSH2 0xB16 JUMP JUMPDEST JUMPDEST DUP1 PUSH1 0x40 MSTORE POP POP POP JUMP JUMPDEST PUSH0 PUSH2 0xB7D PUSH2 0xA2D JUMP JUMPDEST SWAP1 POP PUSH2 0xB89 DUP3 DUP3 PUSH2 0xB43 JUMP JUMPDEST SWAP2 SWAP1 POP JUMP JUMPDEST PUSH0 PUSH8 0xFFFFFFFFFFFFFFFF DUP3 GT ISZERO PUSH2 0xBA8 JUMPI PUSH2 0xBA7 PUSH2 0xB16 JUMP JUMPDEST JUMPDEST PUSH2 0xBB1 DUP3 PUSH2 0xB06 JUMP JUMPDEST SWAP1 POP PUSH1 0x20 DUP2 ADD SWAP1 POP SWAP2 SWAP1 POP JUMP JUMPDEST DUP3 DUP2 DUP4 CALLDATACOPY PUSH0 DUP4 DUP4 ADD MSTORE POP POP POP JUMP JUMPDEST PUSH0 PUSH2 0xBDE PUSH2 0xBD9 DUP5 PUSH2 0xB8E JUMP JUMPDEST PUSH2 0xB74 JUMP JUMPDEST SWAP1 POP DUP3 DUP2 MSTORE PUSH1 0x20 DUP2 ADD DUP5 DUP5 DUP5 ADD GT ISZERO PUSH2 0xBFA JUMPI PUSH2 0xBF9 PUSH2 0xB02 JUMP JUMPDEST JUMPDEST PUSH2 0xC05 DUP5 DUP3 DUP6 PUSH2 0xBBE JUMP JUMPDEST POP SWAP4 SWAP3 POP POP POP JUMP JUMPDEST PUSH0 DUP3 PUSH1 0x1F DUP4 ADD SLT PUSH2 0xC21 JUMPI PUSH2 0xC20 PUSH2 0xAFE JUMP JUMPDEST JUMPDEST DUP2 CALLDATALOAD PUSH2 0xC31 DUP5 DUP3 PUSH1 0x20 DUP7 ADD PUSH2 0xBCC JUMP JUMPDEST SWAP2 POP POP SWAP3 SWAP2 POP POP JUMP JUMPDEST PUSH2 0xC43 DUP2 PUSH2 0x9FC JUMP JUMPDEST DUP2 EQ PUSH2 0xC4D JUMPI PUSH0 PUSH0 REVERT JUMPDEST POP JUMP JUMPDEST PUSH0 DUP2 CALLDATALOAD SWAP1 POP PUSH2 0xC5E DUP2 PUSH2 0xC3A JUMP JUMPDEST SWAP3 SWAP2 POP POP JUMP JUMPDEST PUSH0 PUSH0 PUSH0 PUSH1 0x60 DUP5 DUP7 SUB SLT ISZERO PUSH2 0xC7B JUMPI PUSH2 0xC7A PUSH2 0xA36 JUMP JUMPDEST JUMPDEST PUSH0 PUSH2 0xC88 DUP7 DUP3 DUP8 ADD PUSH2 0xAEA JUMP JUMPDEST SWAP4 POP POP PUSH1 0x20 DUP5 ADD CALLDATALOAD PUSH8 0xFFFFFFFFFFFFFFFF DUP2 GT ISZERO PUSH2 0xCA9 JUMPI PUSH2 0xCA8 PUSH2 0xA3A JUMP JUMPDEST JUMPDEST PUSH2 0xCB5 DUP7 DUP3 DUP8 ADD PUSH2 0xC0D JUMP JUMPDEST SWAP3 POP POP PUSH1 0x40 PUSH2 0xCC6 DUP7 DUP3 DUP8 ADD PUSH2 0xC50 JUMP JUMPDEST SWAP2 POP POP SWAP3 POP SWAP3 POP SWAP3 JUMP JUMPDEST PUSH0 DUP2 MLOAD SWAP1 POP SWAP2 SWAP1 POP JUMP JUMPDEST PUSH0 DUP3 DUP3 MSTORE PUSH1 0x20 DUP3 ADD SWAP1 POP SWAP3 SWAP2 POP POP JUMP JUMPDEST PUSH0 DUP2 SWAP1 POP PUSH1 0x20 DUP3 ADD SWAP1 POP SWAP2 SWAP1 POP JUMP JUMPDEST PUSH2 0xD02 DUP2 PUSH2 0xAC3 JUMP JUMPDEST DUP3 MSTORE POP POP JUMP JUMPDEST PUSH0 DUP2 MLOAD SWAP1 POP SWAP2 SWAP1 POP JUMP JUMPDEST PUSH0 DUP3 DUP3 MSTORE PUSH1 0x20 DUP3 ADD SWAP1 POP SWAP3 SWAP2 POP POP JUMP JUMPDEST DUP3 DUP2 DUP4 MCOPY PUSH0 DUP4 DUP4 ADD MSTORE POP POP POP JUMP JUMPDEST PUSH0 PUSH2 0xD3A DUP3 PUSH2 0xD08 JUMP JUMPDEST PUSH2 0xD44 DUP2 DUP6 PUSH2 0xD12 JUMP JUMPDEST SWAP4 POP PUSH2 0xD54 DUP2 DUP6 PUSH1 0x20 DUP7 ADD PUSH2 0xD22 JUMP JUMPDEST PUSH2 0xD5D DUP2 PUSH2 0xB06 JUMP JUMPDEST DUP5 ADD SWAP2 POP POP SWAP3 SWAP2 POP POP JUMP JUMPDEST PUSH2 0xD71 DUP2 PUSH2 0x9FC JUMP JUMPDEST DUP3 MSTORE POP POP JUMP JUMPDEST PUSH0 PUSH1 0x60 DUP4 ADD PUSH0 DUP4 ADD MLOAD PUSH2 0xD8C PUSH0 DUP7 ADD DUP3 PUSH2 0xCF9 JUMP JUMPDEST POP PUSH1 0x20 DUP4 ADD MLOAD DUP5 DUP3 SUB PUSH1 0x20 DUP7 ADD MSTORE PUSH2 0xDA4 DUP3 DUP3 PUSH2 0xD30 JUMP JUMPDEST SWAP2 POP POP PUSH1 0x40 DUP4 ADD MLOAD PUSH2 0xDB9 PUSH1 0x40 DUP7 ADD DUP3 PUSH2 0xD68 JUMP JUMPDEST POP DUP1 SWAP2 POP POP SWAP3 SWAP2 POP POP JUMP JUMPDEST PUSH0 PUSH2 0xDCF DUP4 DUP4 PUSH2 0xD77 JUMP JUMPDEST SWAP1 POP SWAP3 SWAP2 POP POP JUMP JUMPDEST PUSH0 PUSH1 0x20 DUP3 ADD SWAP1 POP SWAP2 SWAP1 POP JUMP JUMPDEST PUSH0 PUSH2 0xDED DUP3 PUSH2 0xCD0 JUMP JUMPDEST PUSH2 0xDF7 DUP2 DUP6 PUSH2 0xCDA JUMP JUMPDEST SWAP4 POP DUP4 PUSH1 0x20 DUP3 MUL DUP6 ADD PUSH2 0xE09 DUP6 PUSH2 0xCEA JUMP JUMPDEST DUP1 PUSH0 JUMPDEST DUP6 DUP2 LT ISZERO PUSH2 0xE44 JUMPI DUP5 DUP5 SUB DUP10 MSTORE DUP2 MLOAD PUSH2 0xE25 DUP6 DUP3 PUSH2 0xDC4 JUMP JUMPDEST SWAP5 POP PUSH2 0xE30 DUP4 PUSH2 0xDD7 JUMP JUMPDEST SWAP3 POP PUSH1 0x20 DUP11 ADD SWAP10 POP POP PUSH1 0x1 DUP2 ADD SWAP1 POP PUSH2 0xE0C JUMP JUMPDEST POP DUP3 SWAP8 POP DUP8 SWAP6 POP POP POP POP POP POP SWAP3 SWAP2 POP POP JUMP JUMPDEST PUSH0 PUSH1 0x20 DUP3 ADD SWAP1 POP DUP2 DUP2 SUB PUSH0 DUP4 ADD MSTORE PUSH2 0xE6E DUP2 DUP5 PUSH2 0xDE3 JUMP JUMPDEST SWAP1 POP SWAP3 SWAP2 POP POP JUMP JUMPDEST PUSH0 DUP3 DUP3 MSTORE PUSH1 0x20 DUP3 ADD SWAP1 POP SWAP3 SWAP2 POP POP JUMP JUMPDEST PUSH32 0x4F6E6C79206F776E65722063616E2063616C6C00000000000000000000000000 PUSH0 DUP3 ADD MSTORE POP JUMP JUMPDEST PUSH0 PUSH2 0xEBA PUSH1 0x13 DUP4 PUSH2 0xE76 JUMP JUMPDEST SWAP2 POP PUSH2 0xEC5 DUP3 PUSH2 0xE86 JUMP JUMPDEST PUSH1 0x20 DUP3 ADD SWAP1 POP SWAP2 SWAP1 POP JUMP JUMPDEST PUSH0 PUSH1 0x20 DUP3 ADD SWAP1 POP DUP2 DUP2 SUB PUSH0 DUP4 ADD MSTORE PUSH2 0xEE7 DUP2 PUSH2 0xEAE JUMP JUMPDEST SWAP1 POP SWAP2 SWAP1 POP JUMP JUMPDEST PUSH32 0x4E487B7100000000000000000000000000000000000000000000000000000000 PUSH0 MSTORE PUSH1 0x32 PUSH1 0x4 MSTORE PUSH1 0x24 PUSH0 REVERT JUMPDEST PUSH32 0x4E487B7100000000000000000000000000000000000000000000000000000000 PUSH0 MSTORE PUSH1 0x11 PUSH1 0x4 MSTORE PUSH1 0x24 PUSH0 REVERT JUMPDEST PUSH0 PUSH2 0xF52 DUP3 PUSH2 0x9FC JUMP JUMPDEST SWAP2 POP PUSH2 0xF5D DUP4 PUSH2 0x9FC JUMP JUMPDEST SWAP3 POP DUP3 DUP3 SUB SWAP1 POP DUP2 DUP2 GT ISZERO PUSH2 0xF75 JUMPI PUSH2 0xF74 PUSH2 0xF1B JUMP JUMPDEST JUMPDEST SWAP3 SWAP2 POP POP JUMP JUMPDEST PUSH0 PUSH2 0xF85 DUP3 PUSH2 0x9FC JUMP JUMPDEST SWAP2 POP PUSH2 0xF90 DUP4 PUSH2 0x9FC JUMP JUMPDEST SWAP3 POP DUP3 DUP3 ADD SWAP1 POP DUP1 DUP3 GT ISZERO PUSH2 0xFA8 JUMPI PUSH2 0xFA7 PUSH2 0xF1B JUMP JUMPDEST JUMPDEST SWAP3 SWAP2 POP POP JUMP JUMPDEST PUSH32 0x4E487B7100000000000000000000000000000000000000000000000000000000 PUSH0 MSTORE PUSH1 0x22 PUSH1 0x4 MSTORE PUSH1 0x24 PUSH0 REVERT JUMPDEST PUSH0 PUSH1 0x2 DUP3 DIV SWAP1 POP PUSH1 0x1 DUP3 AND DUP1 PUSH2 0xFF2 JUMPI PUSH1 0x7F DUP3 AND SWAP2 POP JUMPDEST PUSH1 0x20 DUP3 LT DUP2 SUB PUSH2 0x1005 JUMPI PUSH2 0x1004 PUSH2 0xFAE JUMP JUMPDEST JUMPDEST POP SWAP2 SWAP1 POP JUMP JUMPDEST PUSH0 DUP2 SLOAD SWAP1 POP PUSH2 0x1019 DUP2 PUSH2 0xFDB JUMP JUMPDEST SWAP1 POP SWAP2 SWAP1 POP JUMP JUMPDEST PUSH0 DUP2 SWAP1 POP DUP2 PUSH0 MSTORE PUSH1 0x20 PUSH0 KECCAK256 SWAP1 POP SWAP2 SWAP1 POP JUMP JUMPDEST PUSH0 PUSH1 0x20 PUSH1 0x1F DUP4 ADD DIV SWAP1 POP SWAP2 SWAP1 POP JUMP JUMPDEST PUSH0 DUP3 DUP3 SHL SWAP1 POP SWAP3 SWAP2 POP POP JUMP JUMPDEST PUSH0 PUSH1 0x8 DUP4 MUL PUSH2 0x107C PUSH32 0xFFFFFFFFFFFFFFFFFFFFFFFFFFFFFFFFFFFFFFFFFFFFFFFFFFFFFFFFFFFFFFFF DUP3 PUSH2 0x1041 JUMP JUMPDEST PUSH2 0x1086 DUP7 DUP4 PUSH2 0x1041 JUMP JUMPDEST SWAP6 POP DUP1 NOT DUP5 AND SWAP4 POP DUP1 DUP7 AND DUP5 OR SWAP3 POP POP POP SWAP4 SWAP3 POP POP POP JUMP JUMPDEST PUSH0 DUP2 SWAP1 POP SWAP2 SWAP1 POP JUMP JUMPDEST PUSH0 PUSH2 0x10C1 PUSH2 0x10BC PUSH2 0x10B7 DUP5 PUSH2 0x9FC JUMP JUMPDEST PUSH2 0x109E JUMP JUMPDEST PUSH2 0x9FC JUMP JUMPDEST SWAP1 POP SWAP2 SWAP1 POP JUMP JUMPDEST PUSH0 DUP2 SWAP1 POP SWAP2 SWAP1 POP JUMP JUMPDEST PUSH2 0x10DA DUP4 PUSH2 0x10A7 JUMP JUMPDEST PUSH2 0x10EE PUSH2 0x10E6 DUP3 PUSH2 0x10C8 JUMP JUMPDEST DUP5 DUP5 SLOAD PUSH2 0x104D JUMP JUMPDEST DUP3 SSTORE POP POP POP POP JUMP JUMPDEST PUSH0 PUSH0 SWAP1 POP SWAP1 JUMP JUMPDEST PUSH2 0x1105 PUSH2 0x10F6 JUMP JUMPDEST PUSH2 0x1110 DUP2 DUP5 DUP5 PUSH2 0x10D1 JUMP JUMPDEST POP POP POP JUMP JUMPDEST JUMPDEST DUP2 DUP2 LT ISZERO PUSH2 0x1133 JUMPI PUSH2 0x1128 PUSH0 DUP3 PUSH2 0x10FD JUMP JUMPDEST PUSH1 0x1 DUP2 ADD SWAP1 POP PUSH2 0x1116 JUMP JUMPDEST POP POP JUMP JUMPDEST PUSH1 0x1F DUP3 GT ISZERO PUSH2 0x1178 JUMPI PUSH2 0x1149 DUP2 PUSH2 0x1020 JUMP JUMPDEST PUSH2 0x1152 DUP5 PUSH2 0x1032 JUMP JUMPDEST DUP2 ADD PUSH1 0x20 DUP6 LT ISZERO PUSH2 0x1161 JUMPI DUP2 SWAP1 POP JUMPDEST PUSH2 0x1175 PUSH2 0x116D DUP6 PUSH2 0x1032 JUMP JUMPDEST DUP4 ADD DUP3 PUSH2 0x1115 JUMP JUMPDEST POP POP JUMPDEST POP POP POP JUMP JUMPDEST PUSH0 DUP3 DUP3 SHR SWAP1 POP SWAP3 SWAP2 POP POP JUMP JUMPDEST PUSH0 PUSH2 0x1198 PUSH0 NOT DUP5 PUSH1 0x8 MUL PUSH2 0x117D JUMP JUMPDEST NOT DUP1 DUP4 AND SWAP2 POP POP SWAP3 SWAP2 POP POP JUMP JUMPDEST PUSH0 PUSH2 0x11B0 DUP4 DUP4 PUSH2 0x1189 JUMP JUMPDEST SWAP2 POP DUP3 PUSH1 0x2 MUL DUP3 OR SWAP1 POP SWAP3 SWAP2 POP POP JUMP JUMPDEST DUP2 DUP2 SUB PUSH2 0x11CE JUMPI POP POP PUSH2 0x12A3 JUMP JUMPDEST PUSH2 0x11D7 DUP3 PUSH2 0x100B JUMP JUMPDEST PUSH8 0xFFFFFFFFFFFFFFFF DUP2 GT ISZERO PUSH2 0x11F0 JUMPI PUSH2 0x11EF PUSH2 0xB16 JUMP JUMPDEST JUMPDEST PUSH2 0x11FA DUP3 SLOAD PUSH2 0xFDB JUMP JUMPDEST PUSH2 0x1205 DUP3 DUP3 DUP6 PUSH2 0x1137 JUMP JUMPDEST PUSH0 PUSH1 0x1F DUP4 GT PUSH1 0x1 DUP2 EQ PUSH2 0x1232 JUMPI PUSH0 DUP5 ISZERO PUSH2 0x1220 JUMPI DUP3 DUP8 ADD SLOAD SWAP1 POP JUMPDEST PUSH2 0x122A DUP6 DUP3 PUSH2 0x11A5 JUMP JUMPDEST DUP7 SSTORE POP PUSH2 0x129C JUMP JUMPDEST PUSH1 0x1F NOT DUP5 AND PUSH2 0x1240 DUP8 PUSH2 0x1020 JUMP JUMPDEST SWAP7 POP PUSH2 0x124B DUP7 PUSH2 0x1020 JUMP JUMPDEST PUSH0 JUMPDEST DUP3 DUP2 LT ISZERO PUSH2 0x1272 JUMPI DUP5 DUP10 ADD SLOAD DUP3 SSTORE PUSH1 0x1 DUP3 ADD SWAP2 POP PUSH1 0x1 DUP6 ADD SWAP5 POP PUSH1 0x20 DUP2 ADD SWAP1 POP PUSH2 0x124D JUMP JUMPDEST DUP7 DUP4 LT ISZERO PUSH2 0x128F JUMPI DUP5 DUP10 ADD SLOAD PUSH2 0x128B PUSH1 0x1F DUP10 AND DUP3 PUSH2 0x1189 JUMP JUMPDEST DUP4 SSTORE POP JUMPDEST PUSH1 0x1 PUSH1 0x2 DUP9 MUL ADD DUP9 SSTORE POP POP POP JUMPDEST POP POP POP POP POP POP JUMPDEST JUMP JUMPDEST PUSH32 0x4E487B7100000000000000000000000000000000000000000000000000000000 PUSH0 MSTORE PUSH1 0x31 PUSH1 0x4 MSTORE PUSH1 0x24 PUSH0 REVERT JUMPDEST PUSH32 0x4E6F204D6F6E6579000000000000000000000000000000000000000000000000 PUSH0 DUP3 ADD MSTORE POP JUMP JUMPDEST PUSH0 PUSH2 0x1306 PUSH1 0x8 DUP4 PUSH2 0xE76 JUMP JUMPDEST SWAP2 POP PUSH2 0x1311 DUP3 PUSH2 0x12D2 JUMP JUMPDEST PUSH1 0x20 DUP3 ADD SWAP1 POP SWAP2 SWAP1 POP JUMP JUMPDEST PUSH0 PUSH1 0x20 DUP3 ADD SWAP1 POP DUP2 DUP2 SUB PUSH0 DUP4 ADD MSTORE PUSH2 0x1333 DUP2 PUSH2 0x12FA JUMP JUMPDEST SWAP1 POP SWAP2 SWAP1 POP JUMP JUMPDEST PUSH0 PUSH2 0x1344 DUP3 PUSH2 0x9FC JUMP JUMPDEST SWAP2 POP PUSH2 0x134F DUP4 PUSH2 0x9FC JUMP JUMPDEST SWAP3 POP DUP3 DUP3 MUL PUSH2 0x135D DUP2 PUSH2 0x9FC JUMP JUMPDEST SWAP2 POP DUP3 DUP3 DIV DUP5 EQ DUP4 ISZERO OR PUSH2 0x1374 JUMPI PUSH2 0x1373 PUSH2 0xF1B JUMP JUMPDEST JUMPDEST POP SWAP3 SWAP2 POP POP JUMP JUMPDEST PUSH32 0x4E487B7100000000000000000000000000000000000000000000000000000000 PUSH0 MSTORE PUSH1 0x12 PUSH1 0x4 MSTORE PUSH1 0x24 PUSH0 REVERT JUMPDEST PUSH0 PUSH2 0x13B2 DUP3 PUSH2 0x9FC JUMP JUMPDEST SWAP2 POP PUSH2 0x13BD DUP4 PUSH2 0x9FC JUMP JUMPDEST SWAP3 POP DUP3 PUSH2 0x13CD JUMPI PUSH2 0x13CC PUSH2 0x137B JUMP JUMPDEST JUMPDEST DUP3 DUP3 DIV SWAP1 POP SWAP3 SWAP2 POP POP JUMP JUMPDEST PUSH32 0x50657263656E742063616E27742062652067726561746572207468616E203130 PUSH0 DUP3 ADD MSTORE PUSH32 0x3000000000000000000000000000000000000000000000000000000000000000 PUSH1 0x20 DUP3 ADD MSTORE POP JUMP JUMPDEST PUSH0 PUSH2 0x1432 PUSH1 0x21 DUP4 PUSH2 0xE76 JUMP JUMPDEST SWAP2 POP PUSH2 0x143D DUP3 PUSH2 0x13D8 JUMP JUMPDEST PUSH1 0x40 DUP3 ADD SWAP1 POP SWAP2 SWAP1 POP JUMP JUMPDEST PUSH0 PUSH1 0x20 DUP3 ADD SWAP1 POP DUP2 DUP2 SUB PUSH0 DUP4 ADD MSTORE PUSH2 0x145F DUP2 PUSH2 0x1426 JUMP JUMPDEST SWAP1 POP SWAP2 SWAP1 POP JUMP JUMPDEST PUSH32 0x546F74616C2070657263656E7420657863656564732031303000000000000000 PUSH0 DUP3 ADD MSTORE POP JUMP JUMPDEST PUSH0 PUSH2 0x149A PUSH1 0x19 DUP4 PUSH2 0xE76 JUMP JUMPDEST SWAP2 POP PUSH2 0x14A5 DUP3 PUSH2 0x1466 JUMP JUMPDEST PUSH1 0x20 DUP3 ADD SWAP1 POP SWAP2 SWAP1 POP JUMP JUMPDEST PUSH0 PUSH1 0x20 DUP3 ADD SWAP1 POP DUP2 DUP2 SUB PUSH0 DUP4 ADD MSTORE PUSH2 0x14C7 DUP2 PUSH2 0x148E JUMP JUMPDEST SWAP1 POP SWAP2 SWAP1 POP JUMP JUMPDEST PUSH2 0x14D7 DUP3 PUSH2 0xD08 JUMP JUMPDEST PUSH8 0xFFFFFFFFFFFFFFFF DUP2 GT ISZERO PUSH2 0x14F0 JUMPI PUSH2 0x14EF PUSH2 0xB16 JUMP JUMPDEST JUMPDEST PUSH2 0x14FA DUP3 SLOAD PUSH2 0xFDB JUMP JUMPDEST PUSH2 0x1505 DUP3 DUP3 DUP6 PUSH2 0x1137 JUMP JUMPDEST PUSH0 PUSH1 0x20 SWAP1 POP PUSH1 0x1F DUP4 GT PUSH1 0x1 DUP2 EQ PUSH2 0x1536 JUMPI PUSH0 DUP5 ISZERO PUSH2 0x1524 JUMPI DUP3 DUP8 ADD MLOAD SWAP1 POP JUMPDEST PUSH2 0x152E DUP6 DUP3 PUSH2 0x11A5 JUMP JUMPDEST DUP7 SSTORE POP PUSH2 0x1595 JUMP JUMPDEST PUSH1 0x1F NOT DUP5 AND PUSH2 0x1544 DUP7 PUSH2 0x1020 JUMP JUMPDEST PUSH0 JUMPDEST DUP3 DUP2 LT ISZERO PUSH2 0x156B JUMPI DUP5 DUP10 ADD MLOAD DUP3 SSTORE PUSH1 0x1 DUP3 ADD SWAP2 POP PUSH1 0x20 DUP6 ADD SWAP5 POP PUSH1 0x20 DUP2 ADD SWAP1 POP PUSH2 0x1546 JUMP JUMPDEST DUP7 DUP4 LT ISZERO PUSH2 0x1588 JUMPI DUP5 DUP10 ADD MLOAD PUSH2 0x1584 PUSH1 0x1F DUP10 AND DUP3 PUSH2 0x1189 JUMP JUMPDEST DUP4 SSTORE POP JUMPDEST PUSH1 0x1 PUSH1 0x2 DUP9 MUL ADD DUP9 SSTORE POP POP POP JUMPDEST POP POP POP POP POP POP JUMP JUMPDEST PUSH0 DUP2 SWAP1 POP SWAP3 SWAP2 POP POP JUMP JUMPDEST POP JUMP JUMPDEST PUSH0 PUSH2 0x15B5 PUSH0 DUP4 PUSH2 0x159D JUMP JUMPDEST SWAP2 POP PUSH2 0x15C0 DUP3 PUSH2 0x15A7 JUMP JUMPDEST PUSH0 DUP3 ADD SWAP1 POP SWAP2 SWAP1 POP JUMP JUMPDEST PUSH0 PUSH2 0x15D4 DUP3 PUSH2 0x15AA JUMP JUMPDEST SWAP2 POP DUP2 SWAP1 POP SWAP2 SWAP1 POP JUMP JUMPDEST PUSH32 0x5472616E73666572206661696C65642E00000000000000000000000000000000 PUSH0 DUP3 ADD MSTORE POP JUMP JUMPDEST PUSH0 PUSH2 0x1612 PUSH1 0x10 DUP4 PUSH2 0xE76 JUMP JUMPDEST SWAP2 POP PUSH2 0x161D DUP3 PUSH2 0x15DE JUMP JUMPDEST PUSH1 0x20 DUP3 ADD SWAP1 POP SWAP2 SWAP1 POP JUMP JUMPDEST PUSH0 PUSH1 0x20 DUP3 ADD SWAP1 POP DUP2 DUP2 SUB PUSH0 DUP4 ADD MSTORE PUSH2 0x163F DUP2 PUSH2 0x1606 JUMP JUMPDEST SWAP1 POP SWAP2 SWAP1 POP JUMP INVALID LOG2 PUSH5 0x6970667358 0x22 SLT KECCAK256 RETF SWAP8 SGT REVERT SWAPN 0x92 0xC3 SHR SWAP10 PUSH12 0xE2FCA7581B8DA704DB584A1 BALANCE PUSH2 0xC7B5 CALLDATALOAD ADDMOD REVERT 0x2A 0x22 SWAP4 PUSH5 0x736F6C6343 STOP ADDMOD 0x1F STOP CALLER "
				},
				"gasEstimates": {
					"creation": {
						"codeDepositCost": "1151200",
						"executionCost": "25456",
						"totalCost": "1176656"
					},
					"external": {
						"addWaitress(address,string,uint256)": "infinite",
						"addtips()": "141",
						"distributeBalance()": "infinite",
						"removeWaitress(address)": "infinite",
						"viewWaitress()": "infinite",
						"viewtips()": "312"
					},
					"internal": {
						"_transferFunds(address payable,uint256)": "infinite"
					}
				},
				"methodIdentifiers": {
					"addWaitress(address,string,uint256)": "b499b79a",
					"addtips()": "6e7301fd",
					"distributeBalance()": "7943da69",
					"removeWaitress(address)": "369a489d",
					"viewWaitress()": "e83a1b00",
					"viewtips()": "2a08deda"
				}
			},
			"storageLayout": {
				"storage": [
					{
						"astId": 3,
						"contract": "tipjar.sol:tips",
						"label": "owner",
						"offset": 0,
						"slot": "0",
						"type": "t_address"
					},
					{
						"astId": 39,
						"contract": "tipjar.sol:tips",
						"label": "waitress",
						"offset": 0,
						"slot": "1",
						"type": "t_array(t_struct(Waitress)35_storage)dyn_storage"
					}
				],
				"types": {
					"t_address": {
						"encoding": "inplace",
						"label": "address",
						"numberOfBytes": "20"
					},
					"t_address_payable": {
						"encoding": "inplace",
						"label": "address payable",
						"numberOfBytes": "20"
					},
					"t_array(t_struct(Waitress)35_storage)dyn_storage": {
						"base": "t_struct(Waitress)35_storage",
						"encoding": "dynamic_array",
						"label": "struct tips.Waitress[]",
						"numberOfBytes": "32"
					},
					"t_string_storage": {
						"encoding": "bytes",
						"label": "string",
						"numberOfBytes": "32"
					},
					"t_struct(Waitress)35_storage": {
						"encoding": "inplace",
						"label": "struct tips.Waitress",
						"members": [
							{
								"astId": 30,
								"contract": "tipjar.sol:tips",
								"label": "walletAddress",
								"offset": 0,
								"slot": "0",
								"type": "t_address_payable"
							},
							{
								"astId": 32,
								"contract": "tipjar.sol:tips",
								"label": "name",
								"offset": 0,
								"slot": "1",
								"type": "t_string_storage"
							},
							{
								"astId": 34,
								"contract": "tipjar.sol:tips",
								"label": "percent",
								"offset": 0,
								"slot": "2",
								"type": "t_uint256"
							}
						],
						"numberOfBytes": "96"
					},
					"t_uint256": {
						"encoding": "inplace",
						"label": "uint256",
						"numberOfBytes": "32"
					}
				}
			},
			"userdoc": {
				"kind": "user",
				"methods": {},
				"version": 1
			}
		}
	}
}